:020000040000FA
:100000002F2A8207DD348434E934E534B43475347E
:100010007D34C434FD34F534FC343D342934AD34FE
:10002000793478345D34BC3408340034FF34F83427
:1000300028342D34F4340D3439347534E93418341B
:10004000853439341934DC341D3421348207F734D3
:10005000FB34FE34FD34FF34820700349834963488
:10006000803400340F344234403400340134863458
:10007000A034003400342734103400340034033406
:10008000E834003400340034643400340034003484
:100090000A3400340034003401343C088207432B16
:1000A0004E2B642B6C2B742B7C2B872B892B8B2B4F
:1000B0008D2B8F2B432B3C0882079A2B9B2BA22B3B
:1000C000B02BBD2BC22BC52BC52BC52BC52B9A2BFB
:1000D000640083168100831200346400810183165A
:1000E0002730810064002F308100831200340030FB
:1000F00006118B016400810183162B30810083126D
:10010000630000000800C9007F390034CA007F394D
:100110000034CB007F390034CC007F390034CD006F
:100120007F390A300D210D300D2100340030C90017
:10013000CA00CB00CC00CD0000348B1383169B008B
:100140008312000883169A001C158B1355309D00EE
:10015000AA309D009C149C18AB281C1183120034FB
:10016000AF008B1383169B001C141A0883128000A7
:100170002F080800B020013E840AB020013E840A06
:10018000B020013E840AB028B001B101B201B30130
:10019000AC018101000000004E082620AF0049306C
:1001A0004E078400000000002F088500CF0A4F1B77
:1001B000CE0A4F134E08043C031CCE010108B300C5
:1001C0000130AC1F0301B31B0301B2070318B10ACE
:1001D000B11B08293308AC00AE080319AD03AE0308
:1001E00064000C30FF3E031DF228000000000000F8
:1001F000000000002D082E04031DCC280108B300C8
:100200000130AC1F0301B31B0301B2070318B10A8D
:1002100000342E300D210800303E83120313D60027
:100220000830D700061500000000000000002C2157
:100230000310D60C03181F290000061521290611EA
:1002400021292C21D70B18290000000000000000F4
:10025000000006112C21080064000830D800A530E9
:10026000D900D90B3129D80B2F2908000008840A9E
:10027000B0000008840AB1000008840AB200000837
:10028000840AB300A70140308400640027082C20B2
:10029000A800A70A27082C20A900A70A27082C20B5
:1002A000AA00A70A27082C20AB00A70A80012B0868
:1002B000B3022A0803186129B20203190310B2031A
:1002C0006229B202290803186A29B102031903102E
:1002D000B1036B29B102280803187329B00203196E
:1002E0000310B0037429B002031C7829800A57292F
:1002F0002B08B3072A08031C8229B207B20A031984
:1003000003148329B2072908031C8B29B107B10AFA
:10031000031903148C29B1072808031C9429B0077A
:10032000B00A031903149529B007840A2030270264
:10033000031D45294030840000080C21840A000870
:100340000C21840A00080C21840A00080C21840A6C
:1003500000080C21840A00080C21840A00080C21E2
:10036000840A00080C2120300D2120300D215A165E
:100370004030840080080319C3295A1200088008FD
:100380000319CE290C21840A5A1EC9298008031991
:10039000CE295A1200080C212C300D21840A5A1E35
:1003A000D42980080319D7295A1200080C21840A7D
:1003B0005A1EDD2980080319E0295A1200080C2171
:1003C000840A5A1EE62980080319EB295A120008EC
:1003D0000C212C300D21840A5A1EF12980080319A2
:1003E000F4295A1200080C21840A5A1EFA2980089E
:1003F0000319FD295A1200080C21840A00080C2157
:1004000020300D2148300D217A300D2120300D2172
:1004100020300D21403084008008031D1F2A840AEB
:100420008008031D1F2A840A8008031D1C2A840AD1
:100430008008031D1C2A840AC417DA14212AC11754
:10044000DA1000088320840A00088620840A000845
:100450008920840A00088C20840A00088F28003034
:10046000831685008312850100308316860083126F
:100470008601CE01CF011330C80014308320143020
:1004800086201430892014308C2014308F2027309F
:1004900068206130AD00A830AE00C420D201D40184
:1004A000383084000030BA20553084002030B0202D
:1004B0009620831600308500003086008312640089
:1004C00020308316810083120630AD008230AE00EA
:1004D00025306820C4203030AD00D430AE00D10AC1
:1004E000D20A3208C039031DAB2AB21AA72A321A1F
:1004F000A32AB2199F2A32199C2AB2189C2A3218B0
:100500009C2A3308363C031C9C2A3308053C031CF8
:10051000942A8A2A6D20D20AD20AD20AC330AD00A8
:100520005030AE000030AF2A6D20D20A6130AD00ED
:10053000A830AE000130AF2A6D200230AF2A203043
:1005400068200330AF2A213068200430AF2A2230DF
:1005500068200530AF2A233068200630AF2AD0004B
:10056000C420551CE02A5418962033085302AF00CB
:10057000AF1FBC2AAF09AF0A2F080A3C0318C52ACF
:100580005410D2013308D300E02A5418D12A52085B
:100590003C3C0318DA2A0D30D20054143308D3003F
:1005A000DC2A52080E3C0318DC2AD2013308D3009F
:1005B000D201E02A541CE02A772077207720242BD0
:1005C000D0080319EA2A0310B30DB20DB10DB00D16
:1005D000D00BE32A3008310432043304B01B332B30
:1005E0003008B4003108B5003208B6003308B7004F
:1005F0003B08B3073A08031C022BB207B20A0319DF
:100600000314032BB2073908031C0B2BB107B10AE3
:10061000031903140C2BB1073808031C142BB00763
:10062000B00A03190314152BB007B01F232BB00910
:10063000B109B209B309B30F232BB20F232BB10FAA
:10064000232BB00F232B4221592A851EC72B592A51
:1006500013308320133086201330892000308C2003
:1006600013308F20242B1330832013308620133037
:1006700089200E308C2013308F20592A1330AD0082
:100680008830AE00C42818308320193086201230FC
:1006900089201A308C2013308F203E2B551C5A2B6A
:1006A000153083201B3086200A30892022308C2090
:1006B0000E304C2B213083201730862015308920B6
:1006C0001B308C2022304C2B0A3083200D308620AA
:1006D0000D30892013304A2B1B308320193086209F
:1006E0000B30892013304A2B1C3083200E3086209B
:1006F0001630892017304A2B1A3083200A30862082
:100700000B30892020308C200E308F203E2B04307F
:10071000912B0830912B0C30912B1030912B1430F1
:10072000912BAF00343084002F08BA20343084007D
:1007300036213E2B4E2A0130D5065530840020301C
:100740009D203E2B3430840000309D20840A0130EF
:100750009D20840A02309D20840A03309D204E2A69
:10076000B409B509B609B709B70FBC2BB60FBC2B36
:10077000B50FBC2BB40FBC2BA22BB401B501B60135
:10078000B701A22B0630BC00D52B0230C32BBC0115
:1007900015308320163086201730892010308C20A9
:1007A00013308F203E23851ED22BD10A4D20851A6F
:1007B000D52B0A30BD00851AE62B3E23BD0BDB2B63
:1007C00096203E234D20851EE02B5B283C08053CEF
:1007D0000319EE2B031CF02BBC0AD52BBC01D52B27
:1007E0003C080A3C0319F82B031CFB2BBC0AD52B35
:0A07F0000630BC00D52BBC01D52B50
:084000000100020003000400AE
:02400E00063F6B
:10420000000000000000000000000600F10058005F
:1042100000003D0005001800000040000000000004
:1042200000004300A600D3000000A3004400E0000B
:0242400000007C
:00000001FF
