:020000040000FA
:0600000099EF29F0120047
:0600080004EF08F01200F5
:080018000CEF08F01200DACF32
:10002000E4FFE2CFDAFFE9CFE4FFEACFE4FFF6CF67
:10003000E4FFF7CFE4FFF5CFE4FFF3CFE4FFF4CF25
:10004000E4FFFACFE4FF00EE00F0140EE80403E34F
:10005000EECFE4FFFBD700EE14F0100EE80403E34C
:10006000EECFE4FFFBD7E652F2A425D0160ED76EF2
:10007000180ED66EF292F2940201662B000E6723E0
:100080006823692324C124F0256A266A276A24503C
:10009000665D2550675926506859275069590BE30A
:1000A000640E0101245D05E15C0EE66EC3EC29F0EF
:1000B000E55263EC28F09EA007D09E9002016A2BC7
:1000C000000E6B236C236D23E55200EE23F0100E1F
:1000D000E80403E3E5CFEDFFFBD700EE13F0140EC9
:1000E000E80403E3E5CFEDFFFBD7E5CFFAFFE5CF6B
:1000F000F4FFE5CFF3FFE5CFF5FFE5CFF7FFE5CF61
:10010000F6FFE5CFEAFFE5CFE9FFE5CFDAFF110023
:10011000D8CFE4FFE0CFE4FFE46EDACFE4FFE2CF34
:10012000DAFFE6529EA007D09E9002016A2B000ED5
:100130006B236C236D23E552E5CFDAFFE550E5CF65
:10014000E0FFE5CFD8FF10008F0EE66E040EE66EDE
:10015000EB0EE66E05EC28F0E552E552E552050E91
:10016000E66EC3EC29F0E552E8EC29F0E0EC29F06A
:10017000000901E0FBD7CEEC29F0F3CF64F2F4CF15
:1001800065F2E5EF29F0EBD969EC22F00201AE6BE4
:10019000AF6B0E0EAFAF02D0D89003D0AE5D000EA5
:1001A000AF5901E3F0D022EC26F0090A01E1D4D0E6
:1001B000010A01E1BED00F0A01E1A8D0010A01E164
:1001C00092D0030A01E17CD0010A67E0070A52E0FD
:1001D000010A3DE0030A28E0010A13E0310E0201A2
:1001E000AE25E96E010EAF21EA6EEF50E66E6E0E9F
:1001F000AE25E96E020EAF21EA6EE552E750EF6ED2
:10020000BED03F0E0201AE25E96E010EAF21EA6EAF
:10021000EF50E66E6E0EAE25E96E020EAF21EA6E6D
:10022000E552E750EF6EABD04D0E0201AE25E96E00
:10023000010EAF21EA6EEF50E66E6E0EAE25E96E4E
:10024000020EAF21EA6EE552E750EF6E98D05B0EDA
:100250000201AE25E96E010EAF21EA6EEF50E66EA7
:100260006E0EAE25E96E020EAF21EA6EE552E75042
:10027000EF6E85D0690E0201AE25E96E010EAF2149
:10028000EA6EEF50E66E6E0EAE25E96E020EAF21FD
:10029000EA6EE552E750EF6E72D0770E0201AE259E
:1002A000E96E010EAF21EA6EEF50E66E6E0EAE25DE
:1002B000E96E020EAF21EA6EE552E750EF6E5FD0B5
:1002C000850E0201AE25E96E010EAF21EA6EEF50F8
:1002D000E66E6E0EAE25E96E020EAF21EA6EE552B5
:1002E000E750EF6E4CD0930E0201AE25E96E010E81
:1002F000AF21EA6EEF50E66E6E0EAE25E96E020E8D
:10030000AF21EA6EE552E750EF6E39D0A10E02013F
:10031000AE25E96E010EAF21EA6EEF50E66E6E0E6D
:10032000AE25E96E020EAF21EA6EE552E750EF6EA0
:1003300026D0AF0E0201AE25E96E010EAF21EA6EA6
:10034000EF50E66E6E0EAE25E96E020EAF21EA6E3C
:10035000E552E750EF6E13D0BD0E0201AE25E96EF7
:10036000010EAF21EA6EEF50E66E6E0EAE25E96E1D
:10037000020EAF21EA6EE552E750EF6E00D0AE2BD1
:10038000000EAF2306D77C6B6E0EE66E020EE66E95
:1003900071EC22F0E552E5520201AE6BAF6B0A0E32
:1003A000AFAF02D0D89003D0AE5D000EAF5915E2CA
:1003B000270EAE25E96E010EAF21EA6EEF50E66E14
:1003C0006E0EAE25E96E020EAF21EA6EE552E750E1
:1003D000EF6EAE2B000EAF23E2D7786B6E0EE66E9B
:1003E000020EE66E71EC22F0E552E552A60E146E96
:1003F0004D0E156E166A14C0E6FF15C0E6FF16C056
:10040000E6FF6E0EE66E020EE66E45EC26F0176E07
:10041000050EE15E17506E0EE66E020EE66E71EC92
:1004200022F0E552E5528E0E146E4D0E156E166AD0
:1004300014C0E6FF15C0E6FF16C0E6FF6E0EE66EBE
:10044000020EE66E45EC26F0176E050EE15E1750C3
:100450006E0EE66E020EE66E71EC22F0E552E5528B
:100460002C0EE66E34EC24F0E55261EC29F0000924
:1004700001E0FBD7000EE66E010EE66EE9EC28F017
:10048000E552E55261EC29F0000901E0FBD7C00E0E
:10049000E66EC0EC28F0E552100EE66E34EC29F062
:1004A000E55261EC29F0000901E0FBD70F0EE66E82
:1004B000010EE66EE9EC28F0E552E5520101CB6B46
:1004C0000A0ECB5D07E2E66A34EC29F0E552010141
:1004D000CB2BF6D729EC24F066EC28F0896A1F0EA6
:1004E000926EC0EC08F053D824C114F0156A166A55
:1004F000176A14500201665D155067591650685905
:10050000175069592AE3898A63EC28F01DDE64C21A
:10051000E6FF65C2E6FFCE50E66EE66ACF50E66EB5
:10052000E66A6AC2E6FF6BC2E6FF6CC2E6FF6DC216
:10053000E6FF0AEC1CF0146E0A0EE15E1450010195
:10054000246F0201666B676B686B696B6A6B6B6B20
:100550006C6B6D6B66EC28F0899AC3D712001F0E86
:10056000B46E070EB46E010EC26E0D0EC16E010E9A
:10057000946E806A826A02D834EF08F0896A1F0E8E
:10058000926E0101206B216B226B236B1200200EF7
:100590000101E76ED019E8AE02D0E73402D0E7508F
:1005A000D05D03E36D50020B01E01AD1010120512F
:1005B000211102E1000E08D020C1E9FF21C1EAFFAC
:1005C000EF50800B01E0010E000901E009D1100E8F
:1005D0000501005D08E0810E0501005D04E0820E6A
:1005E0000501005D00E005010051EE0A01E18DD03A
:1005F000110A01E183D07D0A5CE0030A33E0010ABD
:1006000030E0900A01E0A3D0400EE66E050EE66EE3
:100610000AEC23F0E552E55201012251231102E1D7
:10062000000E08D022C1E9FF23C1EAFFEF50800B82
:1006300001E0010E000914E1400EE66E400EE66E88
:10064000050EE66E010EE66E010EE66EFAEC11F096
:10065000146E050EE15E1450F3CF22F1F4CF23F1B6
:10066000ACD0ABD00501406B01012251231102E156
:10067000000E08D022C1E9FF23C1EAFFEF50800B32
:1006800001E0010E000914E1400EE66E400EE66E38
:10069000050EE66E010EE66E010EE66EFAEC11F046
:1006A000146E050EE15E1450F3CF22F1F4CF23F166
:1006B00084D001012251231102E1000E08D022C191
:1006C000E9FF23C1EAFFEF50800B01E0010E0009B2
:1006D00014E1400EE66E400EE66E050EE66E010E6B
:1006E000E66E010EE66EFAEC11F0146E050EE15E98
:1006F0001450F3CF22F1F4CF23F15FD001C5E6FF10
:1007000028EC26F0E552FF0058D022EC26F0E66EE9
:10071000E66A760E146E4D0E156E166A14C0E6FF6C
:1007200015C0E6FF16C0E6FF6E0EE66E020EE66E20
:1007300045EC26F0176E070EE15E17506E0EE66E62
:10074000020EE66E71EC22F0E552E55236D005015C
:100750000551E66EE66A05010451E66EE66A05019A
:100760000351E66EE66A05010251E66EE66A05018E
:100770000151E66EE66A05010051E66EE66A360E44
:10078000146E4D0E156E166A14C0E6FF15C0E6FF16
:1007900016C0E6FF6E0EE66E020EE66E45EC26F023
:1007A000176E110EE15E17506E0EE66E020EE66ECB
:1007B00071EC22F0E552E55200D0400EE66E000EDC
:1007C000E66E050EE66EE66A010EE66EFAEC11F0D4
:1007D000146E050EE15E1450F3CF20F1F4CF21F139
:1007E0001200120012001200120019EF25F0120080
:1007F0001E0EE66E010EE66E53EC11F0E552E55268
:10080000400EE66E000EE66E050EE66EE66A010E1E
:10081000E66EFAEC11F0146E050EE15E1450F3CFA3
:1008200020F1F4CF21F112000101EF051EE10101D9
:10083000F0051BE1D7DF6D920101F06B0201100E94
:10084000B06F0E0EB16FB007000EB15BB051B111B9
:10085000FAE16D84080EB06F070EB16FB007000E9D
:10086000B15BB051B111FAE16D941200D9CFE6FF3E
:10087000E1CFD9FFFD0EDBCF08F0FE0EDBCF09F094
:10088000E868081802E17F0E091831E0030E081825
:1008900001E109502AE0020E081801E1095023E0A5
:1008A000010E081801E109501CE0740E081801E15E
:1008B000095015E0750E081801E109500EE0730E9D
:1008C000081801E1095007E0720E081801E109500B
:1008D00001E00FD00ED087DF0CD083DF0AD082DF9B
:1008E00008D086DF06D083DF04D07FDF02D07CDF34
:0E08F00000D0010E00D0E552E7CFD9FF120074
:0610000099EF29F0120037
:061008000FEF00F01200E2
:0610180088EF00F0120059
:06102A0005001D55000049
:10103000B2020000170000000C550000C9020000B9
:1010400011000000D1440000FB020000010000007C
:10105000A85400000002000064000000D853000003
:0810600000010000D0000000B7
:08106800D9CFE6FFE1CFD9FF6B
:10107000E652A09A6A6A686A706A010EE66EE66ACB
:10108000E66A710EE66E0F0EE66E3EEC27F0146E09
:10109000050EE15E1450160E6F6E9F0E6B6E7B0E8A
:1010A000696EDF6ADF50146E156A080E145C000E5C
:1010B000155810E2DF50040DF3CFE9FFF4CFEAFF3B
:1010C000000EE926040EEA22EE6AEE6AEE6AEE6A85
:1010D000DF2AE8D76D8C6E6A6D986D9C68A607D084
:1010E00068960101E36BE86BE96BEA6BF7D70101E6
:1010F000010EFA6FFB6FFC6BFD6BF06BDF6A020E8B
:10110000DF5C26E2EA6ADF34FE0BEA36E96EDB0ECC
:10111000E926010EEA22EE6AED6AEA6ADF34FE0B86
:10112000EA36E96ED70EE926010EEA22EE6AED6A8A
:10113000DF50EA6AF40FE96E010EEA22EF6ADF502F
:10114000EA6AF60FE96E010EEA22EF6ADF2AD7D7C4
:101150000101080EDB6F040EDC6F160E706E0401C9
:10116000200E026F040E036F080E016F840E006FD5
:101170000101D16BD06BE552E552E7CFD9FF1200E8
:10118000D9CFE6FFE1CFD9FFE6520101D05116E1F8
:1011900006D06D6A696A0101D06BA19AB9D06D6AF7
:1011A000696A160E6F6E9F0E6B6E7B0E696E6DB662
:1011B00002D06D86FCD70101010ED06FD00508E189
:1011C0006DBA06D0686A696A69806988020ED06F54
:1011D0006850040B05E06950040B02E06894CBD81A
:1011E0006DA202D0A19A94D06850010B08E069501A
:1011F000010B05E039DF0101040ED06F68906850E3
:10120000100B05E06950100B02E0A0D8689868AC9C
:1012100019D069AC0FD0010EE66EE66A000EE66EDC
:10122000E66A730EE66EE66A36EC04F0146E060E9D
:10123000E15E1450689C0101F85101E0F807F85193
:1012400001E174DB6850200B04E06950200B01E0E1
:1012500064D86850020B13E06950020B10E0010ED5
:10126000E66EE66A000EE66EE66AE6687F0EE66EF9
:1012700036EC04F0146E060EE15E14506A6A040E39
:101280000101E76ED019E8AE02D0E73402D0E75092
:10129000D05D02E2A19A3CD069A639D0DF6A040E83
:1012A000DF5C35E268A630D06CCFF1F10101F1517D
:1012B000780BE842E842E842F26F6896F1B508D050
:1012C000F251EA6AF60FE96E010EEA22EF7007D0DA
:1012D000F251EA6AF40FE96E010EEA22EF70F25160
:1012E00002E160D810D0000EE66EE66AF10EE66EFE
:1012F000010EE66E720EE66EE66A36EC04F0146ECF
:10130000060EE15E145001D002D0DF2AC8D7A19AA0
:10131000E552E552E7CFD9FF120070A015D0D3C136
:10132000E9FFD4C1EAFFEF5080080DE1DBC1E9FF1E
:10133000DCC1EAFFEF50840806E1D3C1E9FFD4C164
:10134000EAFF8C0EEF6E7090689A120069846898BC
:101350006D820101010EF06F000EE66EE66AE66E28
:10136000E66A750EE66EE66A36EC04F0146E060E5A
:10137000E15E145012000101F06B000EE66EE66AA9
:10138000E66EE66A740EE66EE66A36EC04F0146EFB
:10139000060EE15E14506D92699468A402D06894C0
:1013A000FCD71200D9CFE6FFE1CFD9FFE652010109
:1013B0002D0EF86FFD0EF11553E17E0EF115E8408C
:1013C0007F0B040DF3CFD3F1F4CFD4F1000ED3276C
:1013D000040ED423D3C1D5F1D4C1D6F1D575D3C170
:1013E000E9FFD4C1EAFFEF503C0BE842E8420D08A8
:1013F00035E1DF6A080EDF5C23E2D3C1E9FFD4C127
:10140000EAFF020EE926000EEA22EE50EFCFEAFFD5
:10141000E96EEF50E66EDF50EA6A200FE96E040EC7
:10142000EA22E552E750EF6ED3C1E9FFD4C1EAFFEB
:10143000020EE926000EEA22EE2AEF22DF2ADAD790
:10144000D3C1E9FFD4C1EAFF020EE926000EEA2269
:10145000200EEE6E040EED6E0DD801D03AD805D0F8
:10146000FD0EF115040801E15AD8E552E552E7CF27
:10147000D9FF12000101DF6BF96BFC6BFD6BF36BA5
:10148000E06BDBC1E9FFDCC1EAFFEF9EDB75DBC18E
:10149000E9FFDCC1EAFFEF9EDB75D5C1E9FFD6C1EC
:1014A000EAFFEF9EE36BE46BE56BE86BE96BEA6BDD
:1014B00091D8000EE66EE66AE66EE66A030EE66E08
:1014C000E66A36EC04F0146E060EE15E145015EF79
:1014D0000FF0020E0101E05D03E1D8EC0FF01ED029
:1014E000E06BF3511AE1D5C1E9FFD6C1EAFFEE5234
:1014F000080EEF6ED5C1E9FFD6C1EAFF020EE9265C
:10150000000EEA22200EEE6E040EED6ED5C1E9FF4C
:10151000D6C1EAFF8C0EEF6E01D0F36B1200D9CF6B
:10152000E6FFE1CFD9FFE652DBC1E9FFDCC1EAFF0C
:10153000EF50400B01E0010EDF6E0101DB75080E7C
:10154000D05D09E122C46EFF6E5003E0100ED06F33
:1015500002D0040ED06FE00529E1DBC1E9FFDCC158
:10156000EAFF020EE926000EEA22280EEE6E040EB5
:10157000ED6E76EC0FF0020E0101DF5D07E1DBC1DD
:10158000E9FFDCC1EAFF840EEF6E0FD0DF5007E108
:10159000DBC1E9FFDCC1EAFFC80EEF6E06D0DBC19C
:1015A000E9FFDCC1EAFF880EEF6E0FD0E8AF0CD088
:1015B000EB51EC1107E005D0ECC1FAFF0101EB5152
:1015C000F96EFADF0101E89FE06BE552E552E7CFE3
:1015D000D9FF120004012051600BE842E842E842C2
:1015E000E842E842000901E059D021510C0A55E0D7
:1015F0000B0A44E00C0A36E0010A27E00B0A23E05C
:10160000020A21E0030A1DE0080A11E0010A0CE0C9
:101610000F0A08E0030A01E040D00101E38F080E41
:10162000D06F3CD014DA3AD078EC10F037D001010A
:10163000D10EE16F010EE26FE381010EE46FE38FE3
:101640002DD08BDB2BD02BD829D024510101E16F79
:10165000E26BD20EE127010EE223E381010EE46F7B
:10166000E38F1CD00101E38F04012451EA6AD20FF9
:10167000E96E010EEA2222C4EFFF10D0000EE66EE2
:10168000E66AE66EE66A020EE66EE66A36EC04F09C
:10169000146E060EE15E145001D000D01200D9CFB6
:1016A000E6FFE1CFD9FF050EE1260401220510E196
:1016B00020511F0B00090CE10101E38F030E04010F
:1016C000215D04E10101010EEF6F02D00101EF6B1A
:1016D0000401225101E020D120511F0B020801E03A
:1016E0001BD124510F0B000901E116D124510F0B1E
:1016F000010801E211D1200E0101D05D01E00CD101
:10170000E38F040124BF1AD024510F0BE96EEA6A5B
:10171000D890E936EA36D70EE926010EEA22EECF56
:10172000DEFFEDCFDDFF24510F0BEA6AF60FE96E05
:10173000010EEA22020EEFCFDBFF19D024510F0B6E
:10174000E96EEA6AD890E936EA36DB0EE926010E40
:10175000EA22EECFDEFFEDCFDDFF24510F0BEA6A68
:10176000F40FE96E010EEA22020EEFCFDBFFD95033
:10177000020FE96EDACFEAFFEF50010B03E1000E32
:10178000DF9401D0DF8424BF10D024510F0BE96E09
:10179000EA6AD890E936EA36D70EE926010EEA223F
:1017A000DECFEEFFDDCFEDFF0FD024510F0BE96E42
:1017B000EA6AD890E936EA36DB0EE926010EEA221B
:1017C000DECFEEFFDDCFEDFF030E215D23E1DECFA7
:1017D000E9FFDDCFEAFFEF50800B13E024BF09D013
:1017E00024510F0BEA6AF60FE96E010EEA22EF822E
:1017F00008D024510F0BEA6AF40FE96E010EEA22B9
:10180000EF82840E146EDECFE9FFDDCFEAFF1450C5
:10181000EF1282D0DF74DECFE9FFDDCFEAFFEF50B9
:10182000800B1BE0DECFE9FFDDCFEAFFEF9EDECFCE
:10183000E9FFDDCFEAFFEF8C020EE66EE66ADECF4F
:10184000E6FFDDCFE6FF050EE66EE66A36EC04F055
:10185000146E060EE15E145005D0DECFE9FFDDCF39
:10186000EAFFEF8CDF74D950020FE96EDACFEAFF9E
:10187000EF50020B07E1DECFE9FFDDCFEAFFEF50CB
:10188000800B2DE0040124BF09D024510F0BEA6A1C
:10189000F60FE96E010EEA22EF9208D024510F0BE9
:1018A000EA6AF40FE96E010EEA22EF923B0E146E23
:1018B000DECFE9FFDDCFEAFF1450EF16020EE66E31
:1018C000E66ADECFE6FFDDCFE6FF050EE66EE66AEE
:1018D00036EC04F0146E060EE15E145008D03B0E98
:1018E000146EDECFE9FFDDCFEAFF1450EF160401DE
:1018F00024510F0B156A700F146E0F0E1522030E74
:1019000014C0DBFF040E15C0DBFF030EDBCFE9FFC5
:10191000040EDBCFEAFFEF90050EE15C02E2E16A24
:10192000E552E16EE552E7CFD9FF12000101FA510D
:101930004DE1010EFA6FFB5149E1010EFB6F020E02
:10194000E05D0DE1DBC1E9FFDCC1EAFFEE52EF6AC9
:10195000DBC1E9FFDCC1EAFFC80EEF6E37D0E0055E
:1019600035E1F36BD3C1E9FFD4C1EAFFEE52080EB3
:10197000EF6ED3C1E9FFD4C1EAFF020EE926000EE3
:10198000EA22200EEE6E040EED6ED3C1E9FFD4C143
:10199000EAFF840EEF6E010EF36FD5C1E9FFD6C1E9
:1019A000EAFFEE52080EEF6ED5C1E9FFD6C1EAFF9D
:1019B000020EE926000EEA22200EEE6E040EED6EF7
:1019C000D5C1E9FFD6C1EAFF800EEF6E120001011A
:1019D000FC6BFD6B020EE05D1AE1D5C1E9FFD6C1DB
:1019E000EAFFEE52080EEF6ED5C1E9FFD6C1EAFF5D
:1019F000020EE926000EEA22280EEE6E040EED6EAF
:101A0000D5C1E9FFD6C1EAFFC80EEF6E1FD0E45181
:101A10000401265D0101E5510401275904E226C4B1
:101A2000E4F127C4E5F162DADBC1E9FFDCC1EAFFDA
:101A3000020EE926000EEA22280EEE6E040EED6E6E
:101A4000DBC1E9FFDCC1EAFFC80EEF6E1200800EB9
:101A50000401205D01E080D10101C00EE36F0401AB
:101A60002351030A01E187D0010A61E0030A03E080
:101A70000101E36B71D122EC26F0090A4EE0010A64
:101A800046E00F0A3EE0010A36E0030A2EE0010AB2
:101A900026E0070A1EE0010A16E0030A0EE0010A2A
:101AA00006E00101F00EE16F410EE26F3CD0010152
:101AB000020EE16F420EE26F36D00101140EE16FAB
:101AC000420EE26F30D00101260EE16F420EE26F4E
:101AD0002AD00101380EE16F420EE26F24D00101DD
:101AE0004A0EE16F420EE26F1ED001015C0EE16F03
:101AF000420EE26F18D001016E0EE16F420EE26FEE
:101B000012D00101800EE16F420EE26F0CD0010194
:101B1000920EE16F420EE26F06D00101A40EE16F5A
:101B2000420EE26F00D0120EE46FE56B15D1225128
:101B3000F66EF76AD890F636F736770EF626440E2C
:101B4000F7220900F5CFE1F10A00F5CFE2F1020E2C
:101B50000101F76AE125F66EE251F7220800F5CFA0
:101B6000E4F1030EF76AE125F66EE251F722080070
:101B7000F5CFE5F1F1D0030E225D01E3EAD022ECCE
:101B800026F0090A01E1C9D0010A01E1B4D00F0A27
:101B900001E19FD0010A01E18AD0030A76E0010A3F
:101BA00062E0070A4EE0010A3AE0030A26E0010A71
:101BB00012E004012251F66EF76AD890F636F73635
:101BC000790EF626440EF7220900F5CFE1F10A005E
:101BD000F5CFE2F1B4D004012251F66EF76AD89045
:101BE000F636F736810EF626440EF7220900F5CFB9
:101BF000E1F10A00F5CFE2F1A2D004012251F66E24
:101C0000F76AD890F636F736890EF626440EF72294
:101C10000900F5CFE1F10A00F5CFE2F190D004011F
:101C20002251F66EF76AD890F636F736910EF62600
:101C3000440EF7220900F5CFE1F10A00F5CFE2F1F9
:101C40007ED004012251F66EF76AD890F636F73648
:101C5000990EF626440EF7220900F5CFE1F10A00AD
:101C6000F5CFE2F16CD004012251F66EF76AD890FC
:101C7000F636F736A10EF626440EF7220900F5CF08
:101C8000E1F10A00F5CFE2F15AD004012251F66EDB
:101C9000F76AD890F636F736A90EF626440EF722E4
:101CA0000900F5CFE1F10A00F5CFE2F148D00401D7
:101CB0002251F66EF76AD890F636F736B10EF62650
:101CC000440EF7220900F5CFE1F10A00F5CFE2F169
:101CD00036D004012251F66EF76AD890F636F73600
:101CE000B90EF626440EF7220900F5CFE1F10A00FD
:101CF000F5CFE2F124D004012251F66EF76AD890B4
:101D0000F636F736C10EF626440EF7220900F5CF57
:101D1000E1F10A00F5CFE2F112D004012251F66E92
:101D2000F76AD890F636F736C90EF626440EF72233
:101D30000900F5CFE1F10A00F5CFE2F100D0E1C1F1
:101D4000F6FFE2C1F7FF0800F5500101E46FE56B13
:101D500002D00101E36B00D01200D9CFE6FFE1CF42
:101D6000D9FF020EE1260401286B296B20511F0BBD
:101D7000020A12E0030A0DE0010A01E042D001016B
:101D8000E38F040128810101EF0502E104012883AA
:101D900038D00101E38F35D00101E38F040124BF66
:101DA00010D024510F0BE96EEA6AD890E936EA3672
:101DB000D70EE926010EEA22EECFDEFFEDCFDDFFE2
:101DC0000FD024510F0BE96EEA6AD890E936EA3653
:101DD000DB0EE926010EEA22EECFDEFFEDCFDDFFBE
:101DE000DECFE9FFDDCFEAFFEF50800B09E0DECF69
:101DF000E9FFDDCFEAFFEF50040B02E0010E286F90
:101E000000D00101E3AF07D0280EE16F040EE26FAE
:101E1000E381020EE46F020EE15C02E2E16AE55248
:101E2000E16EE552E7CFD9FF12006D980101E3BFE3
:101E30002BD0E8AF09D0020EE06FFD5101E1C7DD04
:101E40000101FB6BFA6B1FD0D5C1E9FFD6C1EAFFD8
:101E5000EE52080EEF6ED5C1E9FFD6C1EAFF020EC1
:101E6000E926000EEA22200EEE6E040EED6ED5C1BC
:101E7000E9FFD6C1EAFF8C0EEF6EDBC1E9FFDCC1E2
:101E8000EAFF840EEF6E31D0040120AF0DD00101C6
:101E9000010EE06FFC5101E19ADD0101FB6BFA6B71
:101EA000F95101E143DD21D00101020EE06FD5C1FE
:101EB000E9FFD6C1EAFFEE52080EEF6ED5C1E9FF89
:101EC000D6C1EAFF020EE926000EEA22200EEE6ECF
:101ED000040EED6ED5C1E9FFD6C1EAFF840EEF6EA8
:101EE000FB6BFA6BF95101E121DD1200D9CFE6FF5E
:101EF000E1CFD9FFE652080EDF6E0101E45D000E6E
:101F0000E5590BE2E4C1DFFFDF5103E1010EDF6FB2
:101F100004D0DF0502E1020EDF6FDF50146E156A98
:101F20001450E45DE46F1550E559E56FDBC1E9FF3E
:101F3000DCC1EAFFEE52DFCFEFFF280EED6F040E9B
:101F4000EE6FE3B119D0DF5016E0E1C1F6FFE2C158
:101F5000F7FFE12B000EE2230800F550E66EEDC11D
:101F6000E9FFEEC1EAFFED2B000EEE23E552E7504C
:101F7000EF6EDF06E8D717D0DF5015E0E1C1E9FFCB
:101F8000E2C1EAFFE12B000EE223EF50E66EEDC165
:101F9000E9FFEEC1EAFFED2B000EEE23E552E7501C
:101FA000EF6EDF06E9D7E552E552E7CFD9FF120021
:101FB000D9CFE6FFE1CFD9FF020EE126D3C1E9FF79
:101FC000D4C1EAFFEE52EFCFDFFFDFCF14F01450A1
:101FD0000101E95D000EEA5902E2E9C1DFFFDF50CD
:101FE000146E156A1450E95DE96F1550EA59EA6FED
:101FF000010EDB6ADF50F36E010EDBCFF4FFF3500E
:10200000F45C16E2010EDB50EA6A280FE96E040E5A
:10201000EA22EF50E66EE6C1E9FFE7C1EAFFE62BF0
:10202000000EE723E552E750EF6E010EDB2AE2D700
:10203000000ED880E955000EEA5528E2D5C1E9FF27
:10204000D6C1EAFFEE52080EEF6ED5C1E9FFD6C148
:10205000EAFF020EE926000EEA22280EEE6E040EBA
:10206000ED6ED3C1E9FFD4C1EAFFEF50400B07E1A9
:10207000D5C1E9FFD6C1EAFFC80EEF6E06D0D5C1C3
:10208000E9FFD6C1EAFF880EEF6E28D0D5C1E9FF7F
:10209000D6C1EAFFEE52080EEF6ED5C1E9FFD6C1F8
:1020A000EAFF020EE926000EEA22200EEE6E040E72
:1020B000ED6ED5C1E9FFD6C1EAFF840EEF6EEB519C
:1020C000EC1107E005D0ECC1FAFF0101EB51F96E0C
:1020D000FADF0101E89FF95101E128DC020EE15C21
:1020E00002E2E16AE552E16EE552E7CFD9FF120064
:1020F000D9CFE6FFE1CFD9FFE6520101E38F010E10
:10210000E66EE66AE66A710EE66E0F0EE66E3EEC6D
:1021100027F0146E050EE15E1450DF6ADF50146E76
:10212000156A080E145C000E155810E2DF50040DFD
:10213000F3CFE9FFF4CFEAFF000EE926040EEA220E
:10214000EE6AEE6AEE6AEE6ADF2AE8D76D8CDF6A25
:10215000020EDF5C10E2DF50EA6AF40FE96E010E56
:10216000EA22EF6ADF50EA6AF60FE96E010EEA2210
:10217000EF6ADF2AEDD7010EE66EE66AE66AD20E56
:10218000E66E010EE66E3EEC27F0146E050EE15E83
:1021900014506D9C0101080EDB6F040EDC6F000E05
:1021A000D36F040ED46FD3C1D5F1D4C1D6F122C4FC
:1021B000D1F1D15103E1100ED06F13D0010EE66EB4
:1021C000E66AD10EE66E010EE66E010EE66EE66A76
:1021D00036EC04F0146E060EE15E14500101200E80
:1021E000D06FE552E552E7CFD9FF1200D9CFE6FF15
:1021F000E1CFD9FF020EE126000EDE6E040EDD6E89
:10220000FD0EDB50E824166EFE0EDB50040DF3507D
:102210001624040DF3CF14F0F4CF15F0D9CFE9FF55
:10222000DACFEAFF1450EE261550ED22DECFE9FF9B
:10223000DDCFEAFFEF9EFD0EDB500FE1FE0EEA6AF6
:10224000DB34FE0BEA36E96ED70EE926010EEA22F0
:10225000DECFEEFFDDCFEDFF0ED0FE0EEA6ADB34FF
:10226000FE0BEA36E96EDB0EE926010EEA22DECF2E
:10227000EEFFDDCFEDFFDECFE9FFDDCFEAFFEF9C24
:10228000DECFE9FFDDCFEAFF040EE926000EEA22E9
:10229000EF8C020EE15C02E2E16AE552E16EE5528A
:1022A000E7CFD9FF1200D9CFE6FFE1CFD9FF020E69
:1022B000E126FD0EDBA407D0E66AFE0EDBCFE6FFCB
:1022C00095DFE552E552FD0EDBA208D0010EE66E69
:1022D000FE0EDBCFE6FF8ADFE552E552FE0EDB5055
:1022E000156A700F146E0F0E152214C0DEFF15C094
:1022F000DDFFDECFE9FFDDCFEAFFFD0EDBCFEFFF35
:10230000020EE15C02E2E16AE552E16EE552E7CFDE
:10231000D9FF1200D9CFE6FFE1CFD9FF020EE126A7
:10232000FE0EDB5020E1D5C1E9FFD6C1EAFFEE5237
:10233000080EEF6ED5C1E9FFD6C1EAFF020EE9260D
:10234000000EEA22200EEE6E040EED6ED5C1E9FFFE
:10235000D6C1EAFF8C0EEF6EDBC1E9FFDCC1EAFFFC
:10236000840EEF6E3DD0FD0EDB50E824166EFE0E9F
:10237000DB50040DF3501624040DF3CF14F0F4CF0A
:1023800015F0000E1426040E152214C0DEFF15C031
:10239000DDFF840E146EDECFE9FFDDCFEAFF1450BF
:1023A000EF12FD0EDB50E824166EFE0EDB50040D1E
:1023B000F3501624010F040DF3CF14F0F4CF15F0F1
:1023C000000E1426040E152214C0DEFF15C0DDFF1A
:1023D000840E146EDECFE9FFDDCFEAFF1450EF125A
:1023E000020EE15C02E2E16AE552E16EE552E7CFFE
:1023F000D9FF1200D9CFE6FFE1CFD9FF020EE126C7
:10240000FD0EDB500FE0FE0EEA6ADB34FE0BEA360F
:10241000E96EDB0EE926010EEA22EECFDEFFEDCFFC
:10242000DDFF0ED0FE0EEA6ADB34FE0BEA36E96E03
:10243000D70EE926010EEA22EECFDEFFEDCFDDFF5B
:10244000D9CFE9FFDACFEAFFEE50ED1003E1F36AEE
:10245000F46A49D0DECFE9FFDDCFEAFF020EE926BC
:10246000000EEA22FB0EDBCFEEFFFC0EDBCFEDFF12
:10247000DECFE9FFDDCFEAFFEE52FA0EDBCFEFFF52
:10248000400E146EDECFE9FFDDCFEAFF1450EF16E9
:10249000880E146EDECFE9FFDDCFEAFF1450EF1295
:1024A000FD0EDB500CE0FE0EEA6ADB34FE0BEA3672
:1024B000E96EDB0EE926010EEA22EF740BD0FE0E68
:1024C000EA6ADB34FE0BEA36E96ED70EE926010E26
:1024D000EA22EF74DECF14F0DDCF15F014C0F3FF65
:1024E00015C0F4FF00D0020EE15C02E2E16AE552A1
:1024F000E16EE552E7CFD9FF1200D9CFE6FFE1CF79
:10250000D9FF6DA84ED0FE0EEA6ADB34FE0BEA3628
:10251000E96EDB0EE926010EEA22EE50EFCFEAFF6C
:10252000E96E400EEE16EE6AEE6AEE6AFE0EEA6A9A
:10253000DB34FE0BEA36E96EDB0EE926010EEA22F9
:10254000EE50EFCFEAFFE96EEE7CFE0EEA6ADB3476
:10255000FE0BEA36E96EDB0EE926010EEA22EF7485
:10256000400E146EFE0EEA6ADB34FE0BEA36E96EAC
:10257000DB0EE926010EEA22EE50EFCFEAFFE96E0C
:102580001450EF16FE0EEA6ADB34FE0BEA36E96EF3
:10259000DB0EE926010EEA22EE50EFCFEAFFE96EEC
:0A25A000EF7CE552E7CFD9FF1200EF
:0625AA0011EC18F0FB0E1D
:1025B000DBCFF3FFDB06F35000090AE05FEC18F015
:1025C000FA0ECAEC18F0F3E1151CF1E1010E01D08E
:1025D000000E40EF18F011EC18F03B0EE12402E37E
:1025E000E168E652E16E010EDB6A020EDB6AF90E6B
:1025F000DBCFF6FFFA0EDBCFF7FFFB0EDBCFF8FFEA
:102600000800F550DF6EDF5002E164EF17F0250E91
:10261000DF5C02E057EF17F0030EDB6A040EDB6AA3
:10262000050EDB6A060EDB6A070EDB6A79EC17F033
:102630002D0EDF5C0CE02B0EDF5C09E0200EDF5C72
:1026400006E0230EDF5C03E0300EDF5C1AE1DF50B2
:10265000300A14E0130A0FE0030A0AE00B0A05E04F
:10266000060AE4E1030EDB80E1D7030EDB82DED74E
:10267000030EDB84DBD7030EDB86D8D7030EDB88A3
:10268000D5D72A0EDF5C1BE175EC17F0C3EC17F011
:1026900010E0030EDB8008680968130EDBCF0DF035
:1026A000140EDBCF0EF0DDEC1BF0040E06C0DBFFDA
:1026B00003D0130EACEC17F079EC17F00BD0090E29
:1026C000DB6A1AEC18F003E08EEC18F0FAD7090E6A
:1026D000ACEC17F0030EDBB0DB982E0EDF5C1BE1D9
:1026E00079EC17F02A0EDF5C0BE175EC17F0C3EC08
:1026F00017F003E1130EFEEC17F079EC17F00BD096
:10270000090EDB6A1AEC18F003E08EEC18F0FAD729
:10271000090EFEEC17F0680EDF5C07E179EC17F0AC
:10272000680EDF5C1DE1030E18D0740EDF5C17E04D
:102730007A0EDF5C14E0480EDF5C06E0540EDF5CCE
:1027400003E05A0EDF5C02E1020E07D06C0EDF5C84
:1027500003E06A0EDF5C04E1010E51EC18F0C9DB06
:10276000DF506E0A01E17FD31E0A01E192D1200AF7
:1027700001E18FD13F0A01E149D11A0A01E146D1B5
:102780000D0A01E143D1200A01E140D13A0A01E1F9
:102790003DD1200A01E13AD1260A01E135D10D0AE5
:1027A00001E132D11A0A01E1D9D0200A4AE0300A07
:1027B0001FE0460A0EE0250A01E083D3D950F90F45
:1027C000E96EFF0EDA20EA6E010EEE5E000EEE5AA2
:1027D000EE5A5FEC18F0250EE66E95DB03E1151C52
:1027E00001E169D35BEC18F001E26BD3DB2A69D31A
:1027F000080EDB6A040EDB50010806E2040EDB045F
:1028000023EC18F0DB508BDB080EDB5009E0030EE5
:10281000DB50010B05E172DB01E04DD3080EDB6AF2
:1028200064DBEFCFDFFFD3EC18F003E1151C01E10F
:1028300042D35BEC18F001E3DB2A60DB01E141D31A
:102840003AD3070EDB5002080FE19FEC18F0030E9D
:1028500066EC18F00E0EEECFDBFF0F0EEECFDBFFB7
:10286000100EEECFDBFF20D0F70EDBCF17F0F80E07
:10287000DBCF18F0020E175E000E185AF70E17C0C5
:10288000DBFFF80E18C0DBFF17C0E9FF18C0EAFF36
:1028900056EC18F0166A0E0E14C0DBFF0F0E15C0B2
:1028A000DBFF100E16C0DBFF0E0EDBCFE6FF0F0EB8
:1028B000DBCFE6FF100EDBCFE6FF66EC27F0E5523C
:1028C000E552E552130E07C0DBFF140E08C0DBFF14
:1028D000060EDB5005E0130E9AEC18F001E26ADBFD
:1028E000BEEC18F002E2130E37DB81EC18F006E0C4
:1028F000040E9AEC18F002E2050E2EDB030EDBB09C
:1029000005D0FCDA01E0D7D2080EDB6A090EDB6ADB
:102910000E0EDBCFF6FF0F0EDBCFF7FF100EDBCF77
:10292000F8FF0800F550DF6EDF5014E0C4EC18F03B
:1029300011E2D3EC18F003E1151C01E1BCD2BBDBC2
:1029400001E3DB2A090EDB2AD9500E0FE96E000ED7
:10295000CBDBE7D7D3DA01E1B4D2ADD2C6DA110EC0
:10296000EECFDBFF120EEDCFDBFF110EDBCFE6FF6C
:10297000120EDBCFE6FF58EC27F0E552E552130EBE
:10298000F3CFDBFF140EF4CFDBFF060EDB5004E0C9
:10299000130ED0DB01E20EDBBEEC18F002E2130EE8
:1029A000DBDAAFDB05E0040EC5DB02E2050ED4DAAC
:1029B000030EDBB005D0A2DA01E07DD2080EDB6A9F
:1029C000090EDB6A110EDBCFE9FF120EDBCFEAFF47
:1029D000EFCFDFFFDF5014E0D7DB12E2E4DB03E1EF
:1029E000151C01E168D267DB01E3DB2A090EDB2A53
:1029F000110EDB2ADBCFE9FF120EE8E3DB2AE6D774
:102A00007DDA01E15ED257D2030EDB8E070EDB04C6
:102A100010E195DB040E5ADB0A0EEECFDBFF0B0E46
:102A2000EECFDBFF0C0EEECFDBFF0D0EEECFDBFFAC
:102A30006CD0070EDB5003082CE1030EDBAE0DD08B
:102A4000B2DA020E76DAEFCF14F0156A166A176A58
:102A500014AE39D01568166835D0F70EDBCF15F0F7
:102A6000F80EDBCF16F0020E155E000E165AF70EAA
:102A700015C0DBFFF80E16C0DBFF15C0E9FF16C05E
:102A8000EAFFEFCF14F00A0E14C0DBFF0B0EDB6A77
:102A900038D0070EDB50020809E1030EDBAE04D08C
:102AA00059DB16AE10D00ED055DB0DD0030EDBAEC9
:102AB00012D079DA020E3DDAF9DA166A176A15AE23
:102AC00002D016681768E2DA0C0E16C0DBFF0D0E96
:102AD00017C0DBFF1AD0F70EDBCF16F0F80EDBCFF6
:102AE00017F0020E165E000E175AF70E16C0DBFF27
:102AF000F80E17C0DBFF16C0E9FF17C0EAFFD6DAF1
:102B0000C5DA0C0EDB6A0D0EDB6A060EDB5005E142
:102B1000010EF36E050EF3CFDBFF150EDB6A160E0A
:102B2000DB6AD950370F146E000EDA20156E390E9D
:102B300014C0DBFF3A0E15C0DBFF380EDB6A080E4F
:102B4000DB6A0A0EAEDADF50780A12E0200A10E0E3
:102B5000280A0CE0200A0AE03F0A06E00D0A02E01B
:102B6000200A08E1020E05D0080E03D0080EDF2669
:102B7000100E97DA030EDBBE02D0DB92DB94DB5043
:102B8000800B24E08ADAD890030EEB50000A08E6A6
:102B9000000EEE5C000EEE58000EEE58000EEE58E1
:102BA00015E213DA0B680C680D680E68CDEC27F09F
:102BB0000A0E02C0DBFF0B0E03C0DBFF0C0E04C0CD
:102BC000DBFF0D0E05C0DBFF2D0E08D0030EDBA2D0
:102BD00002D02B0E03D0DBA408D0200EF36E170E0C
:102BE000F3CFDBFF150EDB2A02D0170EDB6A050ED2
:102BF000DB5003E1B7D901E189D0AE0E146E530E5C
:102C0000156E000E166E070EDBCF17F0186A196AE4
:102C10001A6A17C00BF018C00CF019C00DF01AC0DA
:102C20000EF0D3D910EC29F014500224F36E155095
:102C30000320F46E16500420F86EF4CFF7FFF3CFA4
:102C4000F6FF0800090EF5CFDBFF580EDF5C0FE141
:102C5000610EF36E090E7BD90AE3200E146E090E85
:102C6000DBCFE7FF1450E75E090EE7CFDBFF070E6F
:102C7000DBCF14F0156A166A176A0FDA14C00BF06E
:102C800015C00CF016C00DF017C00EF0EECF06F018
:102C9000EECF07F0EECF08F0EFCF09F010EC29F0FF
:102CA00009C0EDFF08C0EDFF07C0EDFF06C0EFFF54
:102CB000390EDBCFE9FFDB063A0EDBCFEAFF01E29C
:102CC000DB06090EDBCFEFFF150EDB2A4BD995E1B2
:102CD000030EDBA61DD06F0EDF5C06E1C1D918E341
:102CE000150EDB285BDA14D0780EDF5C09E0580E95
:102CF000DF5C06E0620EDF5C03E0420EDF5C08E1B1
:102D0000020EF36E160EF3CFDBFF02D0150EDB6A58
:102D1000030EDB50100B0EE0040EDBCF14F0050E9B
:102D2000DB50D880145406E2060EDB5003E1040E9B
:102D3000DB5034DA95D90AE2050EDBCFE7FF150E3A
:102D4000DB50E75E050EE7CFDBFF02D0050EDB6A46
:102D5000040EDBCF14F0160E45D9D880145414E2BB
:102D6000160EDBCFE6FF150EDBCFE6FF040EDBCF42
:102D7000E6FF050EDB50E552E75CE552D880E754EC
:102D8000E552D880E7545FD9030EDB50010B0BE10D
:102D9000080EDB5008E0B2D801E08DD0080EDB5001
:102DA000BED8080EDB6A170EDB5007E088D9170E75
:102DB000F1D903E1151C01E17ED0160EDB5016E0BF
:102DC0007ED9300EE66E9FD802E1151C74E077D9EB
:102DD000DFCFE6FF8BEC27F0E552E552E552F4CF6A
:102DE00015F00001F31C02E1151C65E0050EDBCFB8
:102DF00014F0160EDB50D880145409E2050EDBCF18
:102E0000E7FF160EDB50E75E050EE7CFDBFF300E67
:102E1000E66E050ECBD94FE1390EDB2ADBCFE9FF99
:102E20003A0E01E3DB2ADBCFEAFF090EEFCFDBFF2F
:102E3000DB500EE044D9090EADD902E1151C3BE090
:102E4000390EDB2ADBCFE9FF3A0EEDE3DB2AEBD7C5
:102E500055D831E1160EDBCFE6FF080EC3D8E55298
:102E6000E7245DD82ED0070EDB50030A1CE0010AD0
:102E700014E0030A07E07BD9DBCFEEFF020EDBCFC5
:102E8000EDFF1FD0F5D8196A17AE02D0186819687F
:102E90002CD8BCD819C0EEFF14D0EAD817BE1868D9
:102EA00024D8B4D80ED063D9DBCFEFFF0AD07BD9BA
:102EB00005E1151C03E1F368F46810D0FCD801E3C8
:102EC000DB2A79D900EF13F0010EDBCF14F0020EEC
:102ED000DBCF15F014C0F3FF15C0F4FF3B0EE15C2F
:102EE00002E2E16AE552E16ECBD029D9020E66EF2B
:102EF00018F061D90800F550DF6E1200200EE66E62
:102F0000080ED6EF18F08BEC27F0E552E552E552AB
:102F1000F3CF14F0F4CF15F00001F31C1200146E7F
:102F2000156AD950010F4DD91450EE261550ED22D7
:102F30001200185E000E195AF70E18C0DBFFF80ECB
:102F400019C0DBFF18C0E9FF19C0EAFF1200DBCF90
:102F5000F4FFF350F45C1200DB50E76E040EE7CF91
:102F6000DBFF12000A0EDBCF14F00B0EDBCF15F0E7
:102F70000C0EDBCF16F00D0EDBCF17F01450151032
:102F8000161017101200130EEECFDBFF140EEDCF4C
:102F9000DBFF130EDBCF14F0140EDBCF15F00001B6
:102FA000800E15141200F70EDBCF18F0F80EDBCFF1
:102FB00019F01200050EDB50E66ED950130F01D93F
:102FC000E552E750EE6EED6A12000A0EDBCF06F016
:102FD0000B0EDBCF07F00C0EDBCF08F00D0EDBCFB6
:102FE00009F01200DBCFE6FF150EDBCFE6FF050E82
:102FF000DB50E552E724E552E7241200DB50CED83F
:10300000010EF36E060EF3CFDBFF1200EE50EFCF92
:10301000EAFFE96E16C0EEFF17C0EEFF18C0EEFF24
:103020001200D9CFE6FFDACFE6FFE1CFD9FFE2CF3A
:10303000DAFF1200DFCFE6FFE66A77EC29F0E5520F
:10304000E552F3501200E76E080EE7CFDBFF1200E7
:10305000EECF14F0EECF15F0EFCF16F0176A120096
:10306000050EDBCF14F0150EDB50D880145412007F
:10307000010EDBCF16F0020EDBCF17F0186A12003C
:10308000E552E5CFDAFFE7CFD9FF12000A0E14C0F0
:10309000DBFF0B0E15C0DBFF1200D9500A0FE1EF6A
:1030A00018F0F36E070EF3CFDBFF1200EECF14F033
:1030B000EFCF15F01200010EDB2A020E1200FC0EFB
:1030C000DBCFE6FFFD0EDBCFE6FF1200145E000E45
:1030D000155AF70E14C0DBFFF80E15C0DBFF14C045
:1030E000E9FF15C0EAFF1200DA20EA6EEF2AEECF00
:1030F000F6FF000EEF22EECFF7FFEF22EECFF8FF44
:103100001200040EDBCFE6FF130EDB50E552E75C46
:103110009ADFDB5004DF060EDB501200090EDB5095
:103120000A0DF350DF24D00FE76E090EE7CFDBFF67
:1031300079EF17F0DB50F36E050EA7EF17F0F70EDF
:10314000DBCF14F0F80EDBCF15F01200DFCFE6FF77
:1031500083EF17F028DF030EECDE28EF18F0D5EC34
:1031600012F0E552E552E552E55200091200BDDECB
:10317000EE50EFCFEAFFE96E010E1200130EDB50A6
:10318000F36E040EA7EF17F0040EDB50F36E090E7A
:10319000A7EF17F0DBCFE6FF83EF17F0E76E050E22
:1031A000E7CFDBFF12008BDFA6EF18F0DBCFE6FFE7
:1031B00086DFAFEF18F0D950F90FE96EFF0E74EF0C
:0C31C00018F0E96E000EDA20EA6E120032
:0431CC00019E08D088
:1031D000019E09AE05D0086C091EE86A0922018E1D
:1031E00009C003F008C002F0136A126A8E0E046E62
:1031F000056A73EF1BF0019E0CD0019E09AE09D049
:10320000066C071E081E091EE86A0722082209220A
:10321000018E09C003F008C002F007C013F006C019
:1032200012F09E0E046E056A73EF1BF00F7E016AAA
:10323000AFEC1BF0C7EC1BF001B657EF1BF001A27F
:103240000AD001AA03D001BE57EF1BF001A463EF1F
:103250001BF060EF1BF001AA05D001AC63EF1BF07F
:1032600060EF1BF001A00AD001A808D001BE04D075
:1032700001A402D06CEF1BF070EF1BF0126A056A1C
:103280000F500A5C116E10E307C013F008C002F083
:1032900009C003F00AC010F00CC007F00DC008F020
:1032A0000EC009F0013A09D00CC013F00DC002F0B5
:1032B0000EC003F00FC010F0116C019E01BC018E16
:1032C00010C004F001B09FEF1BF01A0E11609FEFC9
:1032D0001BF0046A0A6A01A408D0076C081E091EC4
:1032E0000A1EE86A082209220A2201AC08D0136CDF
:1032F000021E031E041EE86A022203220422066A3A
:10330000115207E00A340932083207320632112E10
:10331000F9D70750132608500222095003220A50F9
:10332000042206C012F0019E04AE0BD0126C131ED4
:10333000021E031E041EE86A132202220322042234
:10334000018E04A006D0D88003320232133212322A
:10335000102A10C004F073EF1BF0016AAFEC1BF0F1
:10336000C7EC1BF001B657EF1BF001A205D001BA64
:1033700057EF1BF05EEF1BF001BA6AEF1BF001A0E4
:1033800005D001B857EF1BF06AEF1BF001B85EEFF4
:103390001BF0056A7F0E0A24046EE86A05220F50AE
:1033A000045EE86A055A1A0E106E0A6A126A136AF7
:1033B000026A036A0C50075E0D50085A0E50095AF3
:1033C000000E0A5A09E70C5007260D5008220E502D
:1033D0000922000E0A2201D0128AD8900736083638
:1033E00009360A36D8901236133602360336102EB6
:1033F000E1D7095008100710D8A4128A73EF1BF008
:10340000016AAFEC1BF0C7EC1BF001B657EF1BF0E5
:1034100001A205D001B857EF1BF05EEF1BF001AA27
:1034200005D001B057EF1BF05EEF1BF001B002D0EA
:1034300001A802D06AEF1BF0056A0F500A24046E3F
:10344000E86A05227E0E045EE86A055A126A136A6B
:10345000026A036A0E500902F4CF03F0F3CF02F0C0
:103460000D500902F3501326F4500222000E0322DD
:103470000E500802F3501326F4500222000E0322CD
:103480000C500902F3501226F4501322000E0222AF
:1034900003220D500802F3501226F4501322000E9E
:1034A000022203220E500702F3501226F450132278
:1034B000000E022203220C500802F4501226000EC5
:1034C0001322022203220D500702F4501226000E8E
:1034D00013220222032273EF1BF0006A0EAE76EF76
:1034E0001AF00D6C0E1EE86A0E22001E09AE7EEF69
:1034F0001AF0086C091EE86A0922001E4BEC29F03C
:1035000009BE8EEF1AF000AE000C086C091EE86AC6
:103510000922046C051EE86A0522000C00BE85EF36
:103520001AF00188FF0C016AAFEC1BF001B69DEFA9
:103530001AF001A20ED001B405D07F0E096EFF0E65
:10354000086E1FD0800E096E086A1BD0096A086ACF
:1035500018D001B0FBD78F0E0A60EDD77E0E0A643B
:10356000F5D78E0E0A5C05E0D890093208320A2A97
:10357000F8D701A406D0086C091EE86A092209AE32
:10358000E5D71200016AAFEC1BF001B6CCEF1AF0E0
:1035900001A20FD001B407D07F0E096EFF0E086E96
:1035A000076E066E25D0800E096E01D0096A000EE6
:1035B000F6D701B0FBD7066A9F0E0A60EBD77E0EE6
:1035C0000A64F4D79E0E0A5C07E0D89009320832EC
:1035D000073206320A2AF6D701A40AD0066C071E63
:1035E000081E091EE86A07220822092209AEDED752
:1035F000120002EC1BF001B6000C01B0000C01A49B
:10360000000C010C016AAFEC1BF0C7EC1BF001B61B
:10361000120001AE08D001A004D001A802D00180A0
:103620001200019012000F500A5C0BE10E50095C71
:1036300008E10D50085C05E10C50075C02E10180D7
:103640001200D8A002D0018E10D00A500FC00AF08C
:103650000F6E09500EC009F00E6E08500DC008F034
:103660000D6E07500CC007F00C6E0F500A5C10E096
:10367000FF0F09E0019001B403D001AE01841200F4
:1036800001AE019412000F2AD8900E320D320C3286
:103690000C50075E0D50085A0E50095A09BEEAD761
:1036A000D8900736083609360A2EF8D7C8D77F0EC5
:1036B0000A6EFF0E096E086E076E12007F0E01BEC5
:1036C000FF0E0A6E02D07F0E0A6E800E096E086A27
:1036D000076AF3D701AE04D0800E0A6E096AF7D7E5
:1036E0000A6A096AF4D70350021013101210F8E0A6
:1036F00005BEF0D703BE0CD004500510EBE0D89007
:1037000012361336023603360406D8A00506F2D761
:103710000550D4E10428D2E012AE11D07F0E12146D
:1037200002E113A00CD0132AE86A0222032207E365
:10373000D880033202321332042A0428BFE0045036
:10374000C9E013C007F002C008F00334096E04306A
:103750000A6E09320A9E01BE0A8E5DEF1BF0093621
:103760000A3602E30184017E06E101800A6A096AE1
:10377000086A076A12000A2803E0D880093212009A
:10378000D890093202E101821200018612000E3641
:103790000F3602E3018C017E06E101880F6A0E6A92
:1037A0000D6A0C6A12000F2803E0D8800E32120056
:1037B000D8900E32EAE1018A120009C013F008C065
:1037C00012F008500D02F4CF07F0F3CF06F00950C5
:1037D0000E02F4CF09F0F3CF08F00D02F3500726E4
:1037E000F4500822E86A092212500E02F35007260C
:1037F000F4500822E86A09220EAE03EF1CF01250C2
:10380000085E1350095A13AE000C0D50085E0E509E
:04381000095A000C45
:0C381400D9CFE6FFE1CFD9FF020100513F
:103820000201DA5D01E0C1D02EC220F02FC221F0EA
:1038300030C222F0236AFB0EDBCF14F0FC0EDBCF8C
:1038400015F0FD0EDBCF16F0FE0EDBCF17F016C025
:1038500017F015C016F014C015F00001146A16C058
:1038600017F015C016F014C015F0146AF90EDBCF6E
:1038700018F0FA0EDBCF19F01A6A1B6A1AC01BF097
:1038800019C01AF018C019F0186A185014261950E7
:1038900015221A5016221B501722F70EDBCF1CF0F0
:1038A000F80EDBCF1DF01E6A1F6A1C5014261D5037
:1038B00015221E5016221F50172214C006F015C0E4
:1038C00007F016C008F017C009F020C00BF021C0A7
:1038D0000CF022C00DF023C00EF0CDEC27F002C09A
:1038E00029F203C02AF204C02BF205C02CF2800E8C
:1038F000E66EC0EC28F0E552100EE66E34EC29F0CE
:10390000E55229C2E6FF2AC2E6FF2BC2E6FF2CC21F
:10391000E6FF98EC24F0E552E552E552E552840EBC
:10392000E66EC0EC28F0E552100EE66E34EC29F09D
:10393000E5522EC214F02FC215F030C216F0176AED
:1039400014C0E6FF15C0E6FF16C0E6FF17C0E6FF8D
:1039500088EC25F0E552E552E552E552880EE66E18
:10396000C0EC28F0E552100EE66E34EC29F0E5527A
:10397000F50EDBCFE6FFF60EDBCFE6FFEEEC1FF039
:10398000E552E552899C928C8B9294828B9494841C
:1039900080B408D000C2DAF20201010E2E6F2F6B44
:1039A000306B02D001C2DAF25BD0100EE66E34EC5E
:1039B00029F0E552FB0EDBCF14F0FC0EDBCF15F047
:1039C000FD0EDBCF16F0FE0EDBCF17F016C017F0A2
:1039D00015C016F014C015F00001146A16C017F0D7
:1039E00015C016F014C015F0146AF90EDBCF18F0EC
:1039F000FA0EDBCF19F01A6A1B6A1AC01BF019C045
:103A00001AF018C019F0186A185014261950152207
:103A10001A5016221B501722F70EDBCF1CF0F80E9F
:103A2000DBCF1DF01E6A1F6A14501C240201296F8F
:103A300015501D202A6F16501E202B6F17501F2067
:103A40002C6F29C2E6FF2AC2E6FF2BC2E6FF2CC27A
:103A5000E6FF0DD8E552E552E552E55200C2DAF232
:103A60000201DA5100D0E552E7CFD9FF1200D9CFD9
:103A7000E6FFE1CFD9FFFB0EDBCF14F0FC0EDBCF6E
:103A800015F0FD0EDBCF16F0FE0EDBCF17F0130E98
:103A9000D8901732163215321432E806F9E114C004
:103AA00031F215C032F216C033F20201D880020E94
:103AB0003155000E3255000E33550BE3140E2E6FA8
:103AC0002F6B306B899C928C8B8294928B84949414
:103AD0001DD0D880040E3155000E3255000E3355DE
:103AE0000BE3280E2E6F2F6B306B899C928C8B9280
:103AF00094828B8494940AD0500E2E6F2F6B306B6F
:103B0000899C928C8B9294828B949484E552E7CF1B
:103B1000D9FF1200D9CFE6FFE1CFD9FF020EE1268F
:103B20002E0EDF6E010EDB6A0201256BCA0E266FB8
:103B30009A0E276F3B0E286F0201DB6BD950FB0FEB
:103B4000E96EFF0EDA20EA6ED880000EEE54000E09
:103B5000EE54000EEE54000EEE5401E300D10201CB
:103B6000236B246B0A0E24AF02D0D89003D0235DC0
:103B7000000E245901E3CCD025C20BF026C20CF074
:103B800027C20DF028C20EF0FB0EDBCF06F0FC0EB4
:103B9000DBCF07F0FD0EDBCF08F0FE0EDBCF09F028
:103BA00010EC29F006C0DCF225C20BF026C20CF0A6
:103BB00027C20DF028C20EF0FB0EDBCF06F0FC0E84
:103BC000DBCF07F0FD0EDBCF08F0FE0EDBCF09F0F8
:103BD00010EC29F0FB0E02C0DBFFFC0E03C0DBFF84
:103BE000FD0E04C0DBFFFE0E05C0DBFF0201DC5151
:103BF000000802E3DB513DE061EC29F0000901E03F
:103C0000FBD7300E0201DC25E66E97EC28F0E5527A
:103C10000201DB2B23C214F024C215F0090ED88058
:103C20001456000E1556030E0D6E0E6A14C008F0E1
:103C300015C009F06DEC1AF004C014F005C015F0C1
:103C40001450151015E10201090E231901E1245148
:103C50000FE061EC29F0000901E0FBD7D9CFE6FFC6
:103C6000DACFE6FFE9EC28F0E552E5522C0EDF6EE4
:103C700033D023C214F024C215F0090ED880145694
:103C8000000E1556030E0D6E0E6A14C008F015C016
:103C900009F06DEC1AF004C014F005C015F01450D2
:103CA000151010E10201090E231901E124510AE067
:103CB00061EC29F0000901E0FBD7200EE66E97ECDD
:103CC00028F0E55261EC29F0000901E0FBD7200E55
:103CD000E66E97EC28F0E5520A0E0B6E0C6A0D6A40
:103CE0000E6A25C206F026C207F027C208F028C2D5
:103CF00009F010EC29F006C025F207C026F208C032
:103D000027F209C028F20201232B000E24232AD710
:103D10000201DB51030815E2DB51EA6A020FE96E8A
:103D2000020EEA22EFCFDFFF61EC29F0000901E08B
:103D3000FBD7D9CFE6FFDACFE6FFE9EC28F0E55272
:103D4000E55261EC29F0000901E0FBD70E0EE66EAA
:103D5000020EE66EE9EC28F0E552E55208D0120EAC
:103D6000E66E020EE66EE9EC28F0E552E552020E30
:103D7000E15C02E2E16AE552E16EE552E7CFD9FF8C
:023D800012002F
:0E3D8200D9CFE6FFE1CFD9FF020EE1262E0ECB
:103D9000DF6E010EDB6AD950FB0FE96EFF0EDA20F1
:103DA000EA6ED890030EEB50000A08E6000EEE5CB7
:103DB000000EEE58000EEE58000EEE5817E22D0ED3
:103DC000E66E97EC28F0E552D950FB0FE96EFF0E36
:103DD000DA20EA6E000EEE6CEF1EEE22EF1EEE22EF
:103DE000EF1EEF22ED52ED52ED5205D0200EE66EA1
:103DF00097EC28F0E5520201100ED66F270ED76F10
:103E0000D86BD96BD46BD56BD551D319E8AE02D032
:103E1000D33504D0D251D45DD351D55975E2D6C231
:103E20000BF0D7C20CF0D8C20DF0D9C20EF0FB0EC9
:103E3000DBCF06F0FC0EDBCF07F0FD0EDBCF08F08A
:103E4000FE0EDBCF09F010EC29F006C0FFF0D6C261
:103E50000BF0D7C20CF0D8C20DF0D9C20EF0FB0E99
:103E6000DBCF06F0FC0EDBCF07F0FD0EDBCF08F05A
:103E7000FE0EDBCF09F010EC29F0FB0E02C0DBFFD9
:103E8000FC0E03C0DBFFFD0E04C0DBFFFE0E05C011
:103E9000DBFF61EC29F0000901E0FBD7300E0001E7
:103EA000FF25E66E97EC28F0E5520201010ED419C9
:103EB00001E1D5510DE161EC29F0000901E0FBD7EA
:103EC000D9CFE6FFDACFE6FFE9EC28F0E552E5527C
:103ED0000A0E0B6E0C6A0D6A0E6AD6C206F0D7C2C5
:103EE00007F0D8C208F0D9C209F010EC29F006C0DA
:103EF000D6F207C0D7F208C0D8F209C0D9F2020141
:103F0000D42B000ED52380D7020EE15C02E2E16AD9
:103F1000E552E16EE552E7CFD9FF1200D9CFE6FFB7
:103F2000E1CFD9FFFB0EDBCF14F0FC0EDBCF15F099
:103F3000FD0EDBCF16F0FE0EDBCF17F00C6A0D6A1C
:103F40000E6A0F6A14C007F015C008F016C009F019
:103F500017C00AF0F9EC1AF0010A1EE0FB0EDBCFE5
:103F600014F0FC0EDBCF15F0FD0EDBCF16F0FE0ECD
:103F7000DBCF17F00C6A0D6A0E6A3F0E0F6E14C08D
:103F800007F015C008F016C009F017C00AF017ECCA
:103F900019F0C2EC1AF01ED0FB0EDBCF14F0FC0EB1
:103FA000DBCF15F0FD0EDBCF16F0FE0EDBCF17F0EA
:103FB0000C6A0D6A0E6A3F0E0F6E14C007F015C032
:103FC00008F016C009F017C00AF016EC19F0C2ECA0
:103FD0001AF000D0E552E7CFD9FF1200D9CFE6FFA3
:103FE000E1CFD9FF040E0201D26FD36BFD0EDBCF00
:103FF00008F0FE0EDBCF09F0E8EC18F007C018F06F
:1040000008C019F009C01AF00AC01BF0330E0C6E7C
:104010000D6E9F0E0E6E400E0F6E18C007F019C089
:1040200008F01AC009F01BC00AF000EC1AF007C033
:1040300014F008C015F009C016F00AC017F014C03B
:10404000E6FF15C0E6FF16C0E6FF17C0E6FF66DF15
:10405000E552E552E552E552FDEC18F007C0F2F0EA
:1040600008C0F3F009C0F4F00AC0F5F0C9C20CF0C2
:10407000CAC20DF0CBC20EF0CCC20FF0F2C007F0F6
:10408000F3C008F0F4C009F0F5C00AF0ADEC19F087
:1040900007C0F6F008C0F7F009C0F8F00AC0F9F060
:1040A000EC0E0C6E510E0D6EF80E0E6E3F0E0F6E76
:1040B000F6C007F0F7C008F0F8C009F0F9C00AF040
:1040C00016EC19F007C014F008C015F009C016F07E
:1040D0000AC017F00A0E0C6ED70E0D6EA30E0E6EF0
:1040E0003C0E0F6E14C007F015C008F016C009F0A2
:1040F00017C00AF0ADEC19F007C0FAF008C0FBF0E9
:1041000009C0FCF00AC0FDF00C6A0D6A7A0E0E6E52
:10411000440E0F6EFAC007F0FBC008F0FCC009F0B7
:10412000FDC00AF000EC1AF093EC1AF008C014F08D
:1041300009C015F0166A176A15AE02D0166817681E
:1041400014C0E6FF15C0E6FF16C0E6FF17C0E6FF85
:1041500018DEE552E552E552E55261EC29F000091E
:1041600001E0FBD7CD0EE66E020EE66EE9EC28F01C
:10417000E552E552C00EE66EC0EC28F0E552100E96
:10418000E66E34EC29F0E552060E0201D26FD36BD5
:104190000C6A0D6A7A0E0E6E440E0F6EF6C007F0B2
:1041A000F7C008F0F8C009F0F9C00AF000EC1AF006
:1041B000C2EC1AF006C014F007C015F008C016F0E3
:1041C00009C017F014C0E6FF15C0E6FF16C0E6FFF1
:1041D00017C0E6FFD6DDE552E552E552E552560E30
:1041E000E66E97EC28F0E552E552E7CFD9FF1200D2
:1041F0001201000200000008D9049909020001021E
:1042000003011201000200000008D90400010200AD
:10421000010203011201000200000008D90401019B
:104220000200010203011201000200000008D9048B
:104230000201020001020301120100020000000855
:10424000D90403010200010203011201000200006F
:104250000008D90404010200010203011201000256
:1042600000000008D9040501020001020301120147
:10427000000200000008D904060102000102030147
:104280001201000200000008D90407010200010227
:1042900003011201000200000008D9040801020015
:1042A000010203011201000200000008D904090103
:1042B00002000102030109022900010100C03209C4
:1042C0000400000203000000092111010001221C6A
:1042D00000070581034000010705010340000104B8
:1042E0000309041803510075006500730065006E32
:1042F00000620065007200720079001E0351002DFB
:104300000042006500720072007900200048007AC7
:10431000002000200023003F001E0351002D00421A
:10432000006500720072007900200048007A0020C9
:10433000002000230030001E0351002D00420065C4
:1043400000720072007900200048007A00200020EE
:1043500000230031001E0351002D00420065007251
:104360000072007900200048007A0020002000231D
:104370000032001E0351002D0042006500720072E1
:10438000007900200048007A00200020002300333C
:10439000001E0351002D004200650072007200797A
:1043A00000200048007A0020002000230034001E76
:1043B0000351002D00420065007200720079002058
:1043C0000048007A0020002000230035001E035121
:1043D000002D004200650072007200790020004844
:1043E000007A0020002000230036001E0351002D1B
:1043F0000042006500720072007900200048007AD7
:104400000020002000230037001E0351002D004231
:10441000006500720072007900200048007A0020D8
:10442000002000230038001E0351002D00420065CB
:1044300000720072007900200048007A00200020FD
:104440000023003900160351004200570020007677
:104450000031002E003000770020000600FF090127
:10446000A1011901294015012540750895408100D9
:10447000190129409100C0B642DF42E342FB4245A8
:1044800044DF42E34219434544DF42E342374345B8
:1044900044DF42E34255434544DF42E34273434530
:1044A00044DF42E34291434544DF42E342AF4345A8
:1044B00044DF42E342CD434544DF42E342EB434520
:1044C00044DF42E34209444544DF42E34227444596
:0144D00044A7
:0144D10000EA
:0E44D2000001606B616B626B636B646B656B0A
:1044E0001200D9CFE6FFE1CFD9FF020EE126FD0E83
:1044F000DBCFE6FFFE0EDBCFE6FF58EC27F0E55200
:10450000E55200016451F324146E6551F420156ED8
:104510007E0E145C000E155801E372D0DE6ADD6A6F
:10452000DECF14F0DDCF15F014C0E6FF15C0E6FFB6
:10453000FD0EDBCFE6FFFE0EDBCFE6FF58EC27F0EB
:10454000E552E552E552E7CF15F0E552E7CF14F01A
:10455000F3CF16F0F4CF17F01650145C175015581F
:1045600028E2FD0EDBCF14F0FE0EDBCF15F0DE509F
:104570001424E96EDD501520EA6EEF50E66E660EEB
:1045800000016225E96E000E6321EA6EE552E750F4
:10459000EF6E010E6225626F000E6321636F636B25
:1045A000629F642B000E6523DF2A010E01E3DB2AE4
:1045B000B7D7660E00016225E96E000E6321EA6E30
:1045C0000D0EEF6E010E6225626F000E6321636FA8
:1045D000636B629F642B000E6523660E6225E96E95
:1045E000000E6321EA6E0A0EEF6E010E6225626F05
:1045F000000E6321636F636B629F642B000E652363
:10460000020EE15C02E2E16AE552E16EE552E7CFBB
:10461000D9FF1200D9CFE6FFE1CFD9FF040EE12682
:10462000DE6ADD6A00013F0ED8806455000E6555D4
:1046300004E23F0EDE6EDD6A04D064C0DEFF65C0BA
:10464000DDFFDECF14F0DDCF15F01406000E155A95
:10465000FD0EDBCFE9FFFE0EDBCFEAFF14C0EFFF5C
:104660006451651140E0010EF36E020EF3CFDBFFE3
:10467000030EDB6A020EDBCF14F0030EDBCF15F066
:10468000DECF16F0DDCF17F01650145C175015581A
:104690002AE2660E6025E96E000E6121EA6EEF5097
:1046A000E66E020EDBCF14F0030EDBCF15F0FD0E2D
:1046B000DB501424E96EFE0EDB501520EA6EE55245
:1046C000E750EF6E010E6025606F000E6121616F93
:1046D000616B609F6407000E655B020EDB2A030EB0
:1046E00001E3DB2AC7D7040EE15C02E2E16AE5528E
:0A46F000E16EE552E7CFD9FF12009A
:0646FA00D9CFE6FFDACF84
:10470000E6FFFA0EE3CFD9FFFB0EE3CFDAFFFD0E93
:10471000E35209E72D0EDE6EFC0EE31EE32AFD0ECA
:10472000D8B4E306E31EE652E652E652FD0EE1245B
:10473000E76EFF0EE220E46EE652F70EE3CFE6FFEF
:10474000F70EE3CFE6FFEDEC23F0F90EE124E96E7E
:10475000FF0EE220EA6EDDEC23F00AE1DAEC23F052
:1047600009E1DDEC23F008E1DAEC23F007E108D001
:10477000E8EC23F0E3EC23F0E8EC23F0E3EC23F0A7
:10478000E8EC23F0DE6AF90EE126FF0EE222FF0ECE
:10479000E3CFDAFFE552FF0EE3CFD9FFE552FC0E7F
:1047A000E124E96EFF0EE220EA6EEECFF3FFEFCFD9
:1047B000F4FF1200EF380F0B1200EF500F0B02E165
:1047C000EE52D8841200EF380F0B300FDE6E12005D
:1047D000EE500F0B300FDE6E1200FC0EE3CFE9FF40
:1047E000FD0EE3CFEAFF100EE66EEE6AEE6AEF6AA8
:1047F000D890FD0EE336FE0EE336ED36ED36EF369D
:10480000FF0EE30609E00EEC24F0EE520EEC24F06D
:10481000EE520EEC24F0EDD7E56E1200030EEF24FD
:0E482000E8B6EF6E300EEF24E8BEEF6E000C2F
:02482E00120E68
:10483000E66EB5EC29F0E5521200010EE66EB5EC1D
:1048400029F0E5521200010EE66EB5EC29F0E552B2
:10485000120061EC29F0000901E0FBD7010EE66EC1
:10486000C0EC28F0E5521200D9CFE6FFE1CFD9FF26
:10487000F00E81169316939C939A93988A9C8A9A29
:104880008A98DBDF300EE66EC0EC28F0E552050EAC
:10489000E66E34EC29F0E552300EE66EC0EC28F0FE
:1048A000E552010EE66E34EC29F0E552320EE66E6A
:1048B000C0EC28F0E55261EC29F0000901E0FBD7DB
:1048C00061EC29F0000901E0FBD7280EE66EC0EC90
:1048D00028F0E55261EC29F0000901E0FBD7080E51
:1048E000E66EC0EC28F0E55261EC29F0000901E029
:1048F000FBD70C0EE66EC0EC28F0E552AADF61ECA7
:1049000029F0000901E0FBD7060EE66EC0EC28F0A6
:10491000E55261EC29F0000901E0FBD7800EE66E5C
:104920006CEC28F0E55200D0E552E7CFD9FF120039
:10493000D9CFE6FFE1CFD9FF020EE1262E0EDF6EC2
:10494000010EDB6A0201B80EF66F0B0EF76FF86B03
:10495000F96BFA6BFA5107082AE3D950FB0FE96E9D
:10496000FF0EDA20EA6EF651EE5CF751EE58F85180
:10497000EE58F951EE5801E21AD00A0E0B6E0C6A8D
:104980000D6A0E6AF6C206F0F7C207F0F8C208F028
:10499000F9C209F0CDEC27F002C0F6F203C0F7F23D
:1049A00004C0F8F205C0F9F20201FA2BD3D7FA518C
:1049B000EA6AB20FE96E020EEA22EFCFDFFF61EC86
:1049C00029F0000901E0FBD7D9CFE6FFDACFE6FFF7
:1049D000E9EC28F0E552E5520201FA51EA6ABC0F0F
:1049E000E96E020EEA22EFCFDFFF61EC29F0000949
:1049F00001E0FBD7D9CFE6FFDACFE6FFE9EC28F0FC
:104A0000E552E55261EC29F0000901E0FBD7C60E42
:104A1000E66E020EE66EE9EC28F0E552E552020E73
:104A2000E15C02E2E16AE552E16EE552E7CFD9FFCF
:024A3000120072
:0E4A3200040120511F0B010801E068D024513F
:104A400001E065D0060E215D25E12351230A21E016
:104A5000010A11E0030A01E01DD00101D1050AE1BC
:104A60000101C80EE16F420EE26F090EE46FE56BC3
:104A7000C00EE36F0FD00101D1050AE101015B0E09
:104A8000E16F440EE26F1C0EE46FE56BC00EE36F46
:104A900001D000D004012051600BE842E842E84216
:104AA000E842E842010801E032D021510B0A29E036
:104AB000080A1CE0090A14E0080A07E00B0A04E0EF
:104AC000080A01E024D023D022D00101FE0EE16FBC
:104AD000010EE26F010EE46FE56BC10EE36F17D0BC
:104AE0000101800EE36F23C4FEF111D00101FF0E1E
:104AF000E16F010EE26F010EE46FE56B810EE36F73
:104B000006D00101800EE36F22C4FFF100D0120035
:104B1000D9CFE6FFE1CFD9FF030EE126310EDF6EDC
:104B2000DE522F0EDD6E020EDB6A61EC29F0000909
:104B300001E0FBD7D9CFE6FFDACFE6FFE9EC28F0BA
:104B4000E552E552F10EE66E020EE66EFB0EDBCF8D
:104B5000E6FFFC0EDBCFE6FF7DEC23F0E552E552ED
:104B6000E552E552F10EE66E020EE66EE9EC28F033
:104B7000E552E5520201F56BF551146E156A040E0B
:104B8000145C000E15580BE2F551EA6AF10FE96E5C
:104B9000020EEA22EF5001E102D0F52BEDD7F551DC
:104BA000146E156A040ED8801456000E155614C0E3
:104BB000F5F2F551000808E2200EE66E97EC28F0B9
:104BC000E5520201F507F5D7030EE15C02E2E16A66
:0C4BD000E552E16EE552E7CFD9FF12007C
:044BDC00D9CFE6FF48
:104BE000E1CFD9FFE652FE0EDB50A96EFD0EDB5081
:104BF000A86EA69EA69CA684F250DF6EF26A550EA1
:104C0000A76EAA0EA76EA682DF50F26E0000A1B8B2
:104C100002D00000FCD7A694A198E552E552E7CF58
:104C2000D9FF1200D9CFE6FFE1CFD9FFFE0EDB504E
:104C3000A96EA69EA69CA680A85000D0E552E7CFFC
:104C4000D9FF1200FBC2E6FFEDDFE55200D01200F3
:104C5000D9CFE6FFE1CFD9FF000EF36EFE0EDBCF1A
:104C6000F4FFF350F45C0DE3FE0EDB50090809E39A
:104C7000FE0EDBCFE6FFFBC2E6FFB0DFE552E552FA
:0A4C80000000E552E7CFD9FF120053
:064C8A00D9CFE6FFDACFEE
:104C9000E6FFE1CFD9FFE2CFDAFFE652E652E65275
:104CA000E652D950F90F146EFF0EDA20156E020E7F
:104CB00014C0DBFF030E15C0DBFF020EDBCFE6FFE7
:104CC000030EDBCFE6FFF90EDBCFE6FFFA0EDBCFFC
:104CD000E6FFFB0EDBCFE6FFD950FC0FE66EFF0EC2
:104CE000DA20E66EEBEC12F0146E070EE15C02E2E5
:104CF000E16AE552E16E1450F3CFDEFFF4CFDDFF41
:104D0000FC0EDBCFE9FFFD0EDBCFEAFFEF6ADECF63
:104D100014F0DDCF15F014C0F3FF15C0F4FF040E3E
:104D2000E15C02E2E16AE552E16EE552E5CFDAFFCD
:064D3000E7CFD9FF1200DD
:0A4D36004F4F5053202D20496E7698
:104D4000616C696420636F6D6D616E6420307825DD
:104D5000582030782558203078255820307825582C
:104D6000203078255820307825582066726F6D20C5
:104D7000686F73742E005049445F474554202D20BE
:104D80003078255820746F20686F73742E00555347
:104D9000422044657669636520496E697469616C77
:104DA000697365642E002843293230313420446110
:104DB0007669642051756573656E626572727920DB
:104DC0002D20687474703A2F2F7777772E5142799F
:0D4DD000746573576F726C642E636F6D0015
:024DDE002A0E9B
:104DE000F66E100EF76E000EF86E02010900F55017
:104DF000EC6F0900F550ED6F03E1EC6701D03DD099
:104E00000900F550E76F0900F550E86F0900F5500B
:104E1000E96F09000900F550E96E0900F550EA6EE6
:104E2000090009000900F550EA6F0900F550EB6F21
:104E300009000900F6CFEEF2F7CFEFF2F8CFF0F26B
:104E4000E7C2F6FFE8C2F7FFE9C2F8FF0201EA5342
:104E500002E1EB5307E00900F550EE6EEA07F8E2D5
:104E6000EB07F9D7EEC2F6FFEFC2F7FFF0C2F8FF8B
:0C4E70000201EC07000EED5BBFD7120042
:044E7C00FE0EE3CF74
:104E8000E9FFFF0EE3CFEAFFE9CFF3FFEACFF4FF3C
:104E9000FB0EE35003E1FC0EE35009E0FB0EE306DA
:104EA00002E2FC0EE306FD0EE350EE6EF1D71200B7
:104EB000FE0EE3CFE9FFFF0EE3CFEAFFF36AF46AE9
:104EC000EE5203E0F34AF42AFBD71200FF0EE3CFC1
:104ED000F8FFE552FF0EE3CFF7FFE552FF0EE3CFF9
:104EE000F6FFE552E66AE66AE66A0900F55209E06D
:104EF000FD0EE32A05E1FE0EE32A02E1FF0EE32A9E
:104F0000F4D7FD0EE3CF07F0FE0EE3CF08F0FF0E5F
:064F1000E3CF09F01200DE
:0A4F1600D9CFE6FFDACFE6FFE1CFC6
:104F2000D9FFE2CFDAFFFB0EDBCF14F0FC0EDBCFB4
:104F300015F00001800E15141AE1FB0EDBCFE9FF1E
:104F4000FC0EDBCFEAFFEECFF3FFEDCFF4FFEE2A4E
:104F5000000EEF22F3CFE9FFF4CFEAFFFD0EDBCF27
:104F6000EFFFEF50156AF36E15C0F4FF10D0FB0E83
:104F7000DB50FE0806E1FD0EDBCFE6FFA7EC29F0D3
:104F800005D0FD0EDBCFE6FFEAEC29F0E552E55255
:0A4F9000E5CFDAFFE7CFD9FF1200EA
:064F9A0006500B02F3CFEC
:104FA00002F0F4CF03F00C02F3500326000EF420BD
:104FB000046E06500D02F3500426000EF420056E18
:104FC00006500E02F350052607500B02F35003263D
:104FD000F4500422000E052207500C02F350042660
:104FE000F450052207500D02F350052608500B021D
:104FF000F3500426F450052208500C02F350052605
:0A50000009500B02F35005261200C0
:06500A00D9CFE6FFDACF6A
:10501000E6FFE1CFD9FFE2CFDAFFC26AC06AFC0E39
:10502000DB407F0B3C0BC26EFC0EDB38F00B300B11
:10503000146EFB0EDB500F0B1410C16EFD0EDB5017
:10504000040DF350380B156EFD0EDB380F0B070BFC
:10505000146EFD0EDB50800B14101510C06EFC0E8C
:10506000DBAE03D09E9C9D8CF28CC280E552E5CFD6
:08507000DAFFE7CFD9FF1200BF
:08507800800ED56E160ED76EF6
:10508000180ED66ED59ED59CD59AD598D596F80E85
:10509000D5140009D56ED08EF28CF28EF28EF28C81
:1050A000F184F28A1200CD9ECD9CCF0ECD14000962
:1050B000CD6ECD96CD84CD82CD909F909D801200F7
:1050C000DBDF53EF28F0D59ECD901200F9DFCE6ADA
:0850D000CF6AD58ECD801200DD
:0850D800D9CFE6FFDACFE6FFB5
:1050E000E1CFD9FFE2CFDAFFF00E93168116FD0E65
:1050F000DB508009E8380F0B0F0B81128A9C8A9ACB
:105100000FD8F00E8116FD0EDB500F0B811208D860
:105110000F0E9312E552E5CFDAFFE7CFD9FF120069
:0E51200017EC24F08A8817EC24F08A9812000D
:02512E00D9CFD7
:10513000E6FFDACFE6FFE1CFD9FFE2CFDAFFF00EEC
:1051400093168116FD0EDB380F0B0F0B81128A8A26
:105150008A9C0FD8F00E8116FD0EDB500F0B8112CA
:1051600008D80F0E9312E552E5CFDAFFE7CFD9FF4B
:10517000120017EC24F08A8817EC24F08A981200A9
:10518000D9CFE6FFDACFE6FFE1CFD9FFE2CFDAFFF2
:10519000F00E93168116FD0EDB380F0B0F0B8112EC
:1051A0008A9C8A9A0FD8F00E8116FD0EDB500F0BE9
:1051B000811208D80F0E9312E552E5CFDAFFE7CF40
:1051C000D9FF120017EC24F08A8817EC24F08A9893
:0251D0001200CB
:0E51D200D9CFE6FFDACFE6FFE1CFD9FFE2CF7B
:1051E000DAFF16D80FE061EC29F00009FCE110D8D5
:1051F000E66E97EC28F0E552FC0EDB2AFD0EF1E39B
:10520000DB2AEFD7E552E5CFDAFFE7CFD9FF12006F
:10521000FC0EDBCFE9FFFD0EDBCFEAFFEF50120003
:10522000056A046A036A026A200EE76ED8900636A1
:1052300007360836093602360336043605360B5073
:10524000025C0C5003580D5004580E50055809E3E9
:105250000B50025E0C50035A0D50045A0E50055A62
:08526000062AE72EE4D7120034
:08526800FF0EE350296EEF0E6A
:1052700001D0F30EE76EE72E3BEF29F00C0E286EFF
:10528000E76AE72E41EF29F0282E40EF29F0292E7A
:0652900039EF29F01200C5
:0A529600056A046A100EE76ED89056
:1052A00008360936043605360D50045C0E50055894
:1052B00005E30D50045E0E50055A082AE72EF0D77C
:0252C0001200DA
:0E52C2008A8C8A9A17EC24F08A8817EC24F064
:1052D00081A602D003D8010C01D8000C8A9817ECE3
:0E52E00024F08A8817EC24F08A988A9C120029
:0252EE00F36A61
:1052F000F46AFF0EE124E96EFF0EE220EA6EED662D
:1053000007D02F0EEF6404D03A0EEF6001D0F32ADD
:02531000120089
:0E531200000EF36E00EE00F0080E01D812003F
:10532000EA6002D0EE6AFCD7F350E9601200EE6A40
:02533000FCD7A8
:0E53320013EE00F023EE00F0F86A019CEFECA1
:0E53400026F0EBEC29F0C3EC00F0FBD71200D6
:02534E00FF0E50
:10535000E350ACBA04D0AF6AAB8EAC8A949CACA2DA
:0A536000FED7AD6EF36EF46A120082
:06536A00FF0EE350296E66
:105370001B0E00D001D0200EE76EE72EFED7292E9F
:06538000FAD700D0120074
:0A538600FF0EE350E84E1200000095
:0C53900000D000D000D0E82EFAD71200A8
:04539C00C450176E74
:0E53A000166AC3501610F36E17C0F4FF120009
:0253AE0030319C
:0F53B000323334353637383961626364656600ED
:0A53C000C250020B01E0010E1200C2
:0653CA00C2909D9C120040
:0453D000C282120083
:0253D4001200C5
:0253D6001200C3
:0853D800512D42797465732028
:1053E000576F726C642E00487A20436F756E746537
:1053F000722076312E307700000000000A00005144
:1054000042572076312E307720512D4265727279C5
:1054100020487A2020233F512D426572727920481E
:105420007A20202330512D426572727920487A20EB
:10543000202331512D426572727920487A20202331
:1054400032512D426572727920487A2020233351DF
:105450002D426572727920487A20202334512D42E2
:105460006572727920487A20202335512D42657269
:10547000727920487A20202336512D426572727944
:1054800020487A20202337512D42657272792048B6
:105490007A20202338512D426572727920487A2073
:0854A000202339000000000088
:0854A800640A202020204B4B78
:1054B0004B4D4D4D4700487A20002D2D2D3E4E6F0F
:1054C00020696E7075743C2D2D2D000000000000C9
:1054D00000000000000701000001000000010203BD
:1054E0000405060702020201020304050607080379
:1054F00003030000000000000000010203000000A0
:0C5500000000000000060708000000008A
:04550C0000007A44DD
:0D55100064426D2000040000000000000057
:03551D00455620D0
:1055200020205655533F004C4C4C4D484848483F6E
:045530000046200011
:020000040030CA
:0100000027D8
:0100010006F8
:010002003FBE
:010003001EDE
:01000500807A
:010006008178
:010008000FE8
:01000900C036
:01000A000FE6
:01000B00E014
:01000C000FE4
:01000D0040B2
:00000001FF
