:020000040000FA
:100000000247120000000000000000000000000095
:100010000000000000000000000000000000506B25
:100020003302000500000000000000000000000096
:1000300000000000000000000000000000000000C0
:100040000247120000000000000000000000000055
:100050000000000000000000000000000000506BE5
:100060003302000500000000000000000000000056
:100070000000000000000000000000000000000080
:100080000247120000000000000000000000000015
:100090000000000000000000000000000000506BA5
:1000A0003302000500000000000000000000000016
:1000B0000000000000000000000000000000000040
:1000C00002471200000000000000000000000000D5
:1000D0000000000000000000000000000000506B65
:1000E00033020005000000000000000000000000D6
:1000F0000000000000000000000000000000000000
:100100000247120000000000000000000000000094
:100110000000000000000000000000000000506B24
:100120003302000500000000000000000000000095
:1001300000000000000000000000000000000000BF
:100140000247120000000000000000000000000054
:100150000000000000000000000000000000506BE4
:100160003302000500000000000000000000000055
:10017000000000000000000000000000000000007F
:100180000247120000000000000000000000000014
:100190000000000000000000000000000000506BA4
:1001A0003302000500000000000000000000000015
:1001B000000000000000000000000000000000003F
:1001C00002471200000000000000000000000000D4
:1001D0000000000000000000000000000000506B64
:1001E00033020005000000000000000000000000D5
:1001F00000000000000000000000000000000000FF
:100200000247120000000000000000000000000093
:100210000000000000000000000000000000506B23
:100220003302000500000000000000000000000094
:1002300000000000000000000000000000000000BE
:100240000247120000000000000000000000000053
:100250000000000000000000000000000000506BE3
:100260003302000500000000000000000000000054
:10027000000000000000000000000000000000007E
:100280000247120000000000000000000000000013
:100290000000000000000000000000000000506BA3
:1002A0003302000500000000000000000000000014
:1002B000000000000000000000000000000000003E
:1002C00002471200000000000000000000000000D3
:1002D0000000000000000000000000000000506B63
:1002E00033020005000000000000000000000000D4
:1002F00000000000000000000000000000000000FE
:100300000247120000000000000000000000000092
:100310000000000000000000000000000000506B22
:100320003302000500000000000000000000000093
:1003300000000000000000000000000000000000BD
:100340000247120000000000000000000000000052
:100350000000000000000000000000000000506BE2
:100360003302000500000000000000000000000053
:10037000000000000000000000000000000000007D
:100380000247120000000000000000000000000012
:100390000000000000000000000000000000506BA2
:1003A0003302000500000000000000000000000013
:1003B000000000000000000000000000000000003D
:1003C00002471200000000000000000000000000D2
:1003D0000000000000000000000000000000506B62
:1003E00033020005000000000000000000000000D3
:1003F00000000000000000000000000000000000FD
:100400000247120000000000000000000000000091
:100410000000000000000000000000000000506B21
:100420003302000500000000000000000000000092
:1004300000000000000000000000000000000000BC
:100440000247120000000000000000000000000051
:100450000000000000000000000000000000506BE1
:100460003302000500000000000000000000000052
:10047000000000000000000000000000000000007C
:100480000247120000000000000000000000000011
:100490000000000000000000000000000000506BA1
:1004A0003302000500000000000000000000000012
:1004B000000000000000000000000000000000003C
:1004C00002471200000000000000000000000000D1
:1004D0000000000000000000000000000000506B61
:1004E00033020005000000000000000000000000D2
:1004F00000000000000000000000000000000000FC
:100500000247120000000000000000000000000090
:100510000000000000000000000000000000506B20
:100520003302000500000000000000000000000091
:1005300000000000000000000000000000000000BB
:100540000247120000000000000000000000000050
:100550000000000000000000000000000000506BE0
:100560003302000500000000000000000000000051
:10057000000000000000000000000000000000007B
:100580000247120000000000000000000000000010
:100590000000000000000000000000000000506BA0
:1005A0003302000500000000000000000000000011
:1005B000000000000000000000000000000000003B
:1005C00002471200000000000000000000000000D0
:1005D0000000000000000000000000000000506B60
:1005E00033020005000000000000000000000000D1
:1005F00000000000000000000000000000000000FB
:10060000024712000000000000000000000000008F
:100610000000000000000000000000000000506B1F
:100620003302000500000000000000000000000090
:1006300000000000000000000000000000000000BA
:10064000024712000000000000000000000000004F
:100650000000000000000000000000000000506BDF
:100660003302000500000000000000000000000050
:10067000000000000000000000000000000000007A
:10068000024712000000000000000000000000000F
:100690000000000000000000000000000000506B9F
:1006A0003302000500000000000000000000000010
:1006B000000000000000000000000000000000003A
:1006C00002471200000000000000000000000000CF
:1006D0000000000000000000000000000000506B5F
:1006E00033020005000000000000000000000000D0
:1006F00000000000000000000000000000000000FA
:10070000024712000000000000000000000000008E
:100710000000000000000000000000000000506B1E
:10072000330200050000000000000000000000008F
:1007300000000000000000000000000000000000B9
:10074000024712000000000000000000000000004E
:100750000000000000000000000000000000506BDE
:10076000330200050000000000000000000000004F
:100770000000000000000000000000000000000079
:10078000024712000000000000000000000000000E
:100790000000000000000000000000000000506B9E
:1007A000330200050000000000000000000000000F
:1007B0000000000000000000000000000000000039
:1007C00002471200000000000000000000000000CE
:1007D0000000000000000000000000000000506B5E
:1007E00033020005000000000000000000000000CF
:1007F00000000000000000000000000000000000F9
:10080000024712000000000000000000000000008D
:100810000000000000000000000000000000506B1D
:10082000330200050000000000000000000000008E
:1008300000000000000000000000000000000000B8
:10084000024712000000000000000000000000004D
:100850000000000000000000000000000000506BDD
:10086000330200050000000000000000000000004E
:100870000000000000000000000000000000000078
:10088000024712000000000000000000000000000D
:100890000000000000000000000000000000506B9D
:1008A000330200050000000000000000000000000E
:1008B0000000000000000000000000000000000038
:1008C00002471200000000000000000000000000CD
:1008D0000000000000000000000000000000506B5D
:1008E00033020005000000000000000000000000CE
:1008F00000000000000000000000000000000000F8
:10090000024712000000000000000000000000008C
:100910000000000000000000000000000000506B1C
:10092000330200050000000000000000000000008D
:1009300000000000000000000000000000000000B7
:10094000024712000000000000000000000000004C
:100950000000000000000000000000000000506BDC
:10096000330200050000000000000000000000004D
:100970000000000000000000000000000000000077
:10098000024712000000000000000000000000000C
:100990000000000000000000000000000000506B9C
:1009A000330200050000000000000000000000000D
:1009B0000000000000000000000000000000000037
:1009C00002471200000000000000000000000000CC
:1009D0000000000000000000000000000000506B5C
:1009E00033020005000000000000000000000000CD
:1009F00000000000000000000000000000000000F7
:100A0000024712000000000000000000000000008B
:100A10000000000000000000000000000000506B1B
:100A2000330200050000000000000000000000008C
:100A300000000000000000000000000000000000B6
:100A4000024712000000000000000000000000004B
:100A50000000000000000000000000000000506BDB
:100A6000330200050000000000000000000000004C
:100A70000000000000000000000000000000000076
:100A8000024712000000000000000000000000000B
:100A90000000000000000000000000000000506B9B
:100AA000330200050000000000000000000000000C
:100AB0000000000000000000000000000000000036
:100AC00002471200000000000000000000000000CB
:100AD0000000000000000000000000000000506B5B
:100AE00033020005000000000000000000000000CC
:100AF00000000000000000000000000000000000F6
:100B0000024712000000000000000000000000008A
:100B10000000000000000000000000000000506B1A
:100B2000330200050000000000000000000000008B
:100B300000000000000000000000000000000000B5
:100B4000024712000000000000000000000000004A
:100B50000000000000000000000000000000506BDA
:100B6000330200050000000000000000000000004B
:100B70000000000000000000000000000000000075
:100B8000024712000000000000000000000000000A
:100B90000000000000000000000000000000506B9A
:100BA000330200050000000000000000000000000B
:100BB0000000000000000000000000000000000035
:100BC00002471200000000000000000000000000CA
:100BD0000000000000000000000000000000506B5A
:100BE00033020005000000000000000000000000CB
:100BF00000000000000000000000000000000000F5
:100C00000247120000000000000000000000000089
:100C10000000000000000000000000000000506B19
:100C2000330200050000000000000000000000008A
:100C300000000000000000000000000000000000B4
:100C40000247120000000000000000000000000049
:100C50000000000000000000000000000000506BD9
:100C6000330200050000000000000000000000004A
:100C70000000000000000000000000000000000074
:100C80000247120000000000000000000000000009
:100C90000000000000000000000000000000506B99
:100CA000330200050000000000000000000000000A
:100CB0000000000000000000000000000000000034
:100CC00002471200000000000000000000000000C9
:100CD0000000000000000000000000000000506B59
:100CE00033020005000000000000000000000000CA
:100CF00000000000000000000000000000000000F4
:100D00000247120000000000000000000000000088
:100D10000000000000000000000000000000506B18
:100D20003302000500000000000000000000000089
:100D300000000000000000000000000000000000B3
:100D40000247120000000000000000000000000048
:100D50000000000000000000000000000000506BD8
:100D60003302000500000000000000000000000049
:100D70000000000000000000000000000000000073
:100D80000247120000000000000000000000000008
:100D90000000000000000000000000000000506B98
:100DA0003302000500000000000000000000000009
:100DB0000000000000000000000000000000000033
:100DC00002471200000000000000000000000000C8
:100DD0000000000000000000000000000000506B58
:100DE00033020005000000000000000000000000C9
:100DF00000000000000000000000000000000000F3
:100E00000247120000000000000000000000000087
:100E10000000000000000000000000000000506B17
:100E20003302000500000000000000000000000088
:100E300000000000000000000000000000000000B2
:100E40000247120000000000000000000000000047
:100E50000000000000000000000000000000506BD7
:100E60003302000500000000000000000000000048
:100E70000000000000000000000000000000000072
:100E80000247120000000000000000000000000007
:100E90000000000000000000000000000000506B97
:100EA0003302000500000000000000000000000008
:100EB0000000000000000000000000000000000032
:100EC00002471200000000000000000000000000C7
:100ED0000000000000000000000000000000506B57
:100EE00033020005000000000000000000000000C8
:100EF00000000000000000000000000000000000F2
:100F00000247120000000000000000000000000086
:100F10000000000000000000000000000000506B16
:100F20003302000500000000000000000000000087
:100F300000000000000000000000000000000000B1
:100F40000247120000000000000000000000000046
:100F50000000000000000000000000000000506BD6
:100F60003302000500000000000000000000000047
:100F70000000000000000000000000000000000071
:100F80000247120000000000000000000000000006
:100F90000000000000000000000000000000506B96
:100FA0003302000500000000000000000000000007
:100FB0000000000000000000000000000000000031
:100FC00002471200000000000000000000000000C6
:100FD0000000000000000000000000000000506B56
:100FE00033020005000000000000000000000000C7
:100FF00000000000000000000000000000000000F1
:101000000247120000000000000000000000000085
:101010000000000000000000000000000000506B15
:101020003302000500000000000000000000000086
:1010300000000000000000000000000000000000B0
:101040000247120000000000000000000000000045
:101050000000000000000000000000000000506BD5
:101060003302000500000000000000000000000046
:101070000000000000000000000000000000000070
:101080000247120000000000000000000000000005
:101090000000000000000000000000000000506B95
:1010A0003302000500000000000000000000000006
:1010B0000000000000000000000000000000000030
:1010C00002471200000000000000000000000000C5
:1010D0000000000000000000000000000000506B55
:1010E00033020005000000000000000000000000C6
:1010F00000000000000000000000000000000000F0
:101100000247120000000000000000000000000084
:101110000000000000000000000000000000506B14
:101120003302000500000000000000000000000085
:1011300000000000000000000000000000000000AF
:101140000247120000000000000000000000000044
:101150000000000000000000000000000000506BD4
:101160003302000500000000000000000000000045
:10117000000000000000000000000000000000006F
:101180000247120000000000000000000000000004
:101190000000000000000000000000000000506B94
:1011A0003302000500000000000000000000000005
:1011B000000000000000000000000000000000002F
:1011C00002471200000000000000000000000000C4
:1011D0000000000000000000000000000000506B54
:1011E00033020005000000000000000000000000C5
:1011F00000000000000000000000000000000000EF
:101200000247120000000000000000000000000083
:101210000000000000000000000000000000506B13
:101220003302000500000000000000000000000084
:1012300000000000000000000000000000000000AE
:101240000247120000000000000000000000000043
:101250000000000000000000000000000000506BD3
:101260003302000500000000000000000000000044
:10127000000000000000000000000000000000006E
:101280000247120000000000000000000000000003
:101290000000000000000000000000000000506B93
:1012A0003302000500000000000000000000000004
:1012B000000000000000000000000000000000002E
:1012C00002471200000000000000000000000000C3
:1012D0000000000000000000000000000000506B53
:1012E00033020005000000000000000000000000C4
:1012F00000000000000000000000000000000000EE
:101300000247120000000000000000000000000082
:101310000000000000000000000000000000506B12
:101320003302000500000000000000000000000083
:1013300000000000000000000000000000000000AD
:101340000247120000000000000000000000000042
:101350000000000000000000000000000000506BD2
:101360003302000500000000000000000000000043
:10137000000000000000000000000000000000006D
:101380000247120000000000000000000000000002
:101390000000000000000000000000000000506B92
:1013A0003302000500000000000000000000000003
:1013B000000000000000000000000000000000002D
:1013C00002471200000000000000000000000000C2
:1013D0000000000000000000000000000000506B52
:1013E00033020005000000000000000000000000C3
:1013F00000000000000000000000000000000000ED
:101400000247120000000000000000000000000081
:101410000000000000000000000000000000506B11
:101420003302000500000000000000000000000082
:1014300000000000000000000000000000000000AC
:101440000247120000000000000000000000000041
:101450000000000000000000000000000000506BD1
:101460003302000500000000000000000000000042
:10147000000000000000000000000000000000006C
:101480000247120000000000000000000000000001
:101490000000000000000000000000000000506B91
:1014A0003302000500000000000000000000000002
:1014B000000000000000000000000000000000002C
:1014C00002471200000000000000000000000000C1
:1014D0000000000000000000000000000000506B51
:1014E00033020005000000000000000000000000C2
:1014F00000000000000000000000000000000000EC
:101500000247120000000000000000000000000080
:101510000000000000000000000000000000506B10
:101520003302000500000000000000000000000081
:1015300000000000000000000000000000000000AB
:101540000247120000000000000000000000000040
:101550000000000000000000000000000000506BD0
:101560003302000500000000000000000000000041
:10157000000000000000000000000000000000006B
:101580000247120000000000000000000000000000
:101590000000000000000000000000000000506B90
:1015A0003302000500000000000000000000000001
:1015B000000000000000000000000000000000002B
:1015C00002471200000000000000000000000000C0
:1015D0000000000000000000000000000000506B50
:1015E00033020005000000000000000000000000C1
:1015F00000000000000000000000000000000000EB
:10160000024712000000000000000000000000007F
:101610000000000000000000000000000000506B0F
:101620003302000500000000000000000000000080
:1016300000000000000000000000000000000000AA
:10164000024712000000000000000000000000003F
:101650000000000000000000000000000000506BCF
:101660003302000500000000000000000000000040
:10167000000000000000000000000000000000006A
:1016800002471200000000000000000000000000FF
:101690000000000000000000000000000000506B8F
:1016A0003302000500000000000000000000000000
:1016B000000000000000000000000000000000002A
:1016C00002471200000000000000000000000000BF
:1016D0000000000000000000000000000000506B4F
:1016E00033020005000000000000000000000000C0
:1016F00000000000000000000000000000000000EA
:10170000024712000000000000000000000000007E
:101710000000000000000000000000000000506B0E
:10172000330200050000000000000000000000007F
:1017300000000000000000000000000000000000A9
:10174000024712000000000000000000000000003E
:101750000000000000000000000000000000506BCE
:10176000330200050000000000000000000000003F
:101770000000000000000000000000000000000069
:1017800002471200000000000000000000000000FE
:101790000000000000000000000000000000506B8E
:1017A00033020005000000000000000000000000FF
:1017B0000000000000000000000000000000000029
:1017C00002471200000000000000000000000000BE
:1017D0000000000000000000000000000000506B4E
:1017E00033020005000000000000000000000000BF
:1017F00000000000000000000000000000000000E9
:10180000024712000000000000000000000000007D
:101810000000000000000000000000000000506B0D
:10182000330200050000000000000000000000007E
:1018300000000000000000000000000000000000A8
:10184000024712000000000000000000000000003D
:101850000000000000000000000000000000506BCD
:10186000330200050000000000000000000000003E
:101870000000000000000000000000000000000068
:1018800002471200000000000000000000000000FD
:101890000000000000000000000000000000506B8D
:1018A00033020005000000000000000000000000FE
:1018B0000000000000000000000000000000000028
:1018C00002471200000000000000000000000000BD
:1018D0000000000000000000000000000000506B4D
:1018E00033020005000000000000000000000000BE
:1018F00000000000000000000000000000000000E8
:10190000024712000000000000000000000000007C
:101910000000000000000000000000000000506B0C
:10192000330200050000000000000000000000007D
:1019300000000000000000000000000000000000A7
:10194000024712000000000000000000000000003C
:101950000000000000000000000000000000506BCC
:10196000330200050000000000000000000000003D
:101970000000000000000000000000000000000067
:1019800002471200000000000000000000000000FC
:101990000000000000000000000000000000506B8C
:1019A00033020005000000000000000000000000FD
:1019B0000000000000000000000000000000000027
:1019C00002471200000000000000000000000000BC
:1019D0000000000000000000000000000000506B4C
:1019E00033020005000000000000000000000000BD
:1019F00000000000000000000000000000000000E7
:101A0000024712000000000000000000000000007B
:101A10000000000000000000000000000000506B0B
:101A2000330200050000000000000000000000007C
:101A300000000000000000000000000000000000A6
:101A4000024712000000000000000000000000003B
:101A50000000000000000000000000000000506BCB
:101A6000330200050000000000000000000000003C
:101A70000000000000000000000000000000000066
:101A800002471200000000000000000000000000FB
:101A90000000000000000000000000000000506B8B
:101AA00033020005000000000000000000000000FC
:101AB0000000000000000000000000000000000026
:101AC00002471200000000000000000000000000BB
:101AD0000000000000000000000000000000506B4B
:101AE00033020005000000000000000000000000BC
:101AF00000000000000000000000000000000000E6
:101B0000024712000000000000000000000000007A
:101B10000000000000000000000000000000506B0A
:101B2000330200050000000000000000000000007B
:101B300000000000000000000000000000000000A5
:101B4000024712000000000000000000000000003A
:101B50000000000000000000000000000000506BCA
:101B6000330200050000000000000000000000003B
:101B70000000000000000000000000000000000065
:101B800002471200000000000000000000000000FA
:101B90000000000000000000000000000000506B8A
:101BA00033020005000000000000000000000000FB
:101BB0000000000000000000000000000000000025
:101BC00002471200000000000000000000000000BA
:101BD0000000000000000000000000000000506B4A
:101BE00033020005000000000000000000000000BB
:101BF00000000000000000000000000000000000E5
:101C00000247120000000000000000000000000079
:101C10000000000000000000000000000000506B09
:101C2000330200050000000000000000000000007A
:101C300000000000000000000000000000000000A4
:101C40000247120000000000000000000000000039
:101C50000000000000000000000000000000506BC9
:101C6000330200050000000000000000000000003A
:101C70000000000000000000000000000000000064
:101C800002471200000000000000000000000000F9
:101C90000000000000000000000000000000506B89
:101CA00033020005000000000000000000000000FA
:101CB0000000000000000000000000000000000024
:101CC00002471200000000000000000000000000B9
:101CD0000000000000000000000000000000506B49
:101CE00033020005000000000000000000000000BA
:101CF00000000000000000000000000000000000E4
:101D00000247120000000000000000000000000078
:101D10000000000000000000000000000000506B08
:101D20003302000500000000000000000000000079
:101D300000000000000000000000000000000000A3
:101D40000247120000000000000000000000000038
:101D50000000000000000000000000000000506BC8
:101D60003302000500000000000000000000000039
:101D70000000000000000000000000000000000063
:101D800002471200000000000000000000000000F8
:101D90000000000000000000000000000000506B88
:101DA00033020005000000000000000000000000F9
:101DB0000000000000000000000000000000000023
:101DC00002471200000000000000000000000000B8
:101DD0000000000000000000000000000000506B48
:101DE00033020005000000000000000000000000B9
:101DF00000000000000000000000000000000000E3
:101E00000247120000000000000000000000000077
:101E10000000000000000000000000000000506B07
:101E20003302000500000000000000000000000078
:101E300000000000000000000000000000000000A2
:101E40000247120000000000000000000000000037
:101E50000000000000000000000000000000506BC7
:101E60003302000500000000000000000000000038
:101E70000000000000000000000000000000000062
:101E800002471200000000000000000000000000F7
:101E90000000000000000000000000000000506B87
:101EA00033020005000000000000000000000000F8
:101EB0000000000000000000000000000000000022
:101EC00002471200000000000000000000000000B7
:101ED0000000000000000000000000000000506B47
:101EE00033020005000000000000000000000000B8
:101EF00000000000000000000000000000000000E2
:101F00000247120000000000000000000000000076
:101F10000000000000000000000000000000506B06
:101F20003302000500000000000000000000000077
:101F300000000000000000000000000000000000A1
:101F40000247120000000000000000000000000036
:101F50000000000000000000000000000000506BC6
:101F60003302000500000000000000000000000037
:101F70000000000000000000000000000000000061
:101F800002471200000000000000000000000000F6
:101F90000000000000000000000000000000506B86
:101FA00033020005000000000000000000000000F7
:101FB0000000000000000000000000000000000021
:101FC00002471200000000000000000000000000B6
:101FD0000000000000000000000000000000506B46
:101FE00033020005000000000000000000000000B7
:101FF00000000000000000000000000000000000E1
:102000000247120000000000000000000000000075
:102010000000000000000000000000000000506B05
:102020003302000500000000000000000000000076
:1020300000000000000000000000000000000000A0
:102040000247120000000000000000000000000035
:102050000000000000000000000000000000506BC5
:102060003302000500000000000000000000000036
:102070000000000000000000000000000000000060
:1020800002471200000000000000000000000000F5
:102090000000000000000000000000000000506B85
:1020A00033020005000000000000000000000000F6
:1020B0000000000000000000000000000000000020
:1020C00002471200000000000000000000000000B5
:1020D0000000000000000000000000000000506B45
:1020E00033020005000000000000000000000000B6
:1020F00000000000000000000000000000000000E0
:102100000247120000000000000000000000000074
:102110000000000000000000000000000000506B04
:102120003302000500000000000000000000000075
:10213000000000000000000000000000000000009F
:102140000247120000000000000000000000000034
:102150000000000000000000000000000000506BC4
:102160003302000500000000000000000000000035
:10217000000000000000000000000000000000005F
:1021800002471200000000000000000000000000F4
:102190000000000000000000000000000000506B84
:1021A00033020005000000000000000000000000F5
:1021B000000000000000000000000000000000001F
:1021C00002471200000000000000000000000000B4
:1021D0000000000000000000000000000000506B44
:1021E00033020005000000000000000000000000B5
:1021F00000000000000000000000000000000000DF
:102200000247120000000000000000000000000073
:102210000000000000000000000000000000506B03
:102220003302000500000000000000000000000074
:10223000000000000000000000000000000000009E
:102240000247120000000000000000000000000033
:102250000000000000000000000000000000506BC3
:102260003302000500000000000000000000000034
:10227000000000000000000000000000000000005E
:1022800002471200000000000000000000000000F3
:102290000000000000000000000000000000506B83
:1022A00033020005000000000000000000000000F4
:1022B000000000000000000000000000000000001E
:1022C00002471200000000000000000000000000B3
:1022D0000000000000000000000000000000506B43
:1022E00033020005000000000000000000000000B4
:1022F00000000000000000000000000000000000DE
:102300000247120000000000000000000000000072
:102310000000000000000000000000000000506B02
:102320003302000500000000000000000000000073
:10233000000000000000000000000000000000009D
:102340000247120000000000000000000000000032
:102350000000000000000000000000000000506BC2
:102360003302000500000000000000000000000033
:10237000000000000000000000000000000000005D
:1023800002471200000000000000000000000000F2
:102390000000000000000000000000000000506B82
:1023A00033020005000000000000000000000000F3
:1023B000000000000000000000000000000000001D
:1023C00002471200000000000000000000000000B2
:1023D0000000000000000000000000000000506B42
:1023E00033020005000000000000000000000000B3
:1023F00000000000000000000000000000000000DD
:102400000247120000000000000000000000000071
:102410000000000000000000000000000000506B01
:102420003302000500000000000000000000000072
:10243000000000000000000000000000000000009C
:102440000247120000000000000000000000000031
:102450000000000000000000000000000000506BC1
:102460003302000500000000000000000000000032
:10247000000000000000000000000000000000005C
:1024800002471200000000000000000000000000F1
:102490000000000000000000000000000000506B81
:1024A00033020005000000000000000000000000F2
:1024B000000000000000000000000000000000001C
:1024C00002471200000000000000000000000000B1
:1024D0000000000000000000000000000000506B41
:1024E00033020005000000000000000000000000B2
:1024F00000000000000000000000000000000000DC
:102500000247120000000000000000000000000070
:102510000000000000000000000000000000506B00
:102520003302000500000000000000000000000071
:10253000000000000000000000000000000000009B
:102540000247120000000000000000000000000030
:102550000000000000000000000000000000506BC0
:102560003302000500000000000000000000000031
:10257000000000000000000000000000000000005B
:1025800002471200000000000000000000000000F0
:102590000000000000000000000000000000506B80
:1025A00033020005000000000000000000000000F1
:1025B000000000000000000000000000000000001B
:1025C00002471200000000000000000000000000B0
:1025D0000000000000000000000000000000506B40
:1025E00033020005000000000000000000000000B1
:1025F00000000000000000000000000000000000DB
:10260000024712000000000000000000000000006F
:102610000000000000000000000000000000506BFF
:102620003302000500000000000000000000000070
:10263000000000000000000000000000000000009A
:10264000024712000000000000000000000000002F
:102650000000000000000000000000000000506BBF
:102660003302000500000000000000000000000030
:10267000000000000000000000000000000000005A
:1026800002471200000000000000000000000000EF
:102690000000000000000000000000000000506B7F
:1026A00033020005000000000000000000000000F0
:1026B000000000000000000000000000000000001A
:1026C00002471200000000000000000000000000AF
:1026D0000000000000000000000000000000506B3F
:1026E00033020005000000000000000000000000B0
:1026F00000000000000000000000000000000000DA
:10270000024712000000000000000000000000006E
:102710000000000000000000000000000000506BFE
:10272000330200050000000000000000000000006F
:102730000000000000000000000000000000000099
:10274000024712000000000000000000000000002E
:102750000000000000000000000000000000506BBE
:10276000330200050000000000000000000000002F
:102770000000000000000000000000000000000059
:1027800002471200000000000000000000000000EE
:102790000000000000000000000000000000506B7E
:1027A00033020005000000000000000000000000EF
:1027B0000000000000000000000000000000000019
:1027C00002471200000000000000000000000000AE
:1027D0000000000000000000000000000000506B3E
:1027E00033020005000000000000000000000000AF
:1027F00000000000000000000000000000000000D9
:10280000024712000000000000000000000000006D
:102810000000000000000000000000000000506BFD
:10282000330200050000000000000000000000006E
:102830000000000000000000000000000000000098
:10284000024712000000000000000000000000002D
:102850000000000000000000000000000000506BBD
:10286000330200050000000000000000000000002E
:102870000000000000000000000000000000000058
:1028800002471200000000000000000000000000ED
:102890000000000000000000000000000000506B7D
:1028A00033020005000000000000000000000000EE
:1028B0000000000000000000000000000000000018
:1028C00002471200000000000000000000000000AD
:1028D0000000000000000000000000000000506B3D
:1028E00033020005000000000000000000000000AE
:1028F00000000000000000000000000000000000D8
:10290000024712000000000000000000000000006C
:102910000000000000000000000000000000506BFC
:10292000330200050000000000000000000000006D
:102930000000000000000000000000000000000097
:10294000024712000000000000000000000000002C
:102950000000000000000000000000000000506BBC
:10296000330200050000000000000000000000002D
:102970000000000000000000000000000000000057
:1029800002471200000000000000000000000000EC
:102990000000000000000000000000000000506B7C
:1029A00033020005000000000000000000000000ED
:1029B0000000000000000000000000000000000017
:1029C00002471200000000000000000000000000AC
:1029D0000000000000000000000000000000506B3C
:1029E00033020005000000000000000000000000AD
:1029F00000000000000000000000000000000000D7
:102A0000024712000000000000000000000000006B
:102A10000000000000000000000000000000506BFB
:102A2000330200050000000000000000000000006C
:102A30000000000000000000000000000000000096
:102A4000024712000000000000000000000000002B
:102A50000000000000000000000000000000506BBB
:102A6000330200050000000000000000000000002C
:102A70000000000000000000000000000000000056
:102A800002471200000000000000000000000000EB
:102A90000000000000000000000000000000506B7B
:102AA00033020005000000000000000000000000EC
:102AB0000000000000000000000000000000000016
:102AC00002471200000000000000000000000000AB
:102AD0000000000000000000000000000000506B3B
:102AE00033020005000000000000000000000000AC
:102AF00000000000000000000000000000000000D6
:102B0000024712000000000000000000000000006A
:102B10000000000000000000000000000000506BFA
:102B2000330200050000000000000000000000006B
:102B30000000000000000000000000000000000095
:102B4000024712000000000000000000000000002A
:102B50000000000000000000000000000000506BBA
:102B6000330200050000000000000000000000002B
:102B70000000000000000000000000000000000055
:102B800002471200000000000000000000000000EA
:102B90000000000000000000000000000000506B7A
:102BA00033020005000000000000000000000000EB
:102BB0000000000000000000000000000000000015
:102BC00002471200000000000000000000000000AA
:102BD0000000000000000000000000000000506B3A
:102BE00033020005000000000000000000000000AB
:102BF00000000000000000000000000000000000D5
:102C00000247120000000000000000000000000069
:102C10000000000000000000000000000000506BF9
:102C2000330200050000000000000000000000006A
:102C30000000000000000000000000000000000094
:102C40000247120000000000000000000000000029
:102C50000000000000000000000000000000506BB9
:102C6000330200050000000000000000000000002A
:102C70000000000000000000000000000000000054
:102C800002471200000000000000000000000000E9
:102C90000000000000000000000000000000506B79
:102CA00033020005000000000000000000000000EA
:102CB0000000000000000000000000000000000014
:102CC00002471200000000000000000000000000A9
:102CD0000000000000000000000000000000506B39
:102CE00033020005000000000000000000000000AA
:102CF00000000000000000000000000000000000D4
:102D00000247120000000000000000000000000068
:102D10000000000000000000000000000000506BF8
:102D20003302000500000000000000000000000069
:102D30000000000000000000000000000000000093
:102D40000247120000000000000000000000000028
:102D50000000000000000000000000000000506BB8
:102D60003302000500000000000000000000000029
:102D70000000000000000000000000000000000053
:102D800002471200000000000000000000000000E8
:102D90000000000000000000000000000000506B78
:102DA00033020005000000000000000000000000E9
:102DB0000000000000000000000000000000000013
:102DC00002471200000000000000000000000000A8
:102DD0000000000000000000000000000000506B38
:102DE00033020005000000000000000000000000A9
:102DF00000000000000000000000000000000000D3
:102E00000247120000000000000000000000000067
:102E10000000000000000000000000000000506BF7
:102E20003302000500000000000000000000000068
:102E30000000000000000000000000000000000092
:102E40000247120000000000000000000000000027
:102E50000000000000000000000000000000506BB7
:102E60003302000500000000000000000000000028
:102E70000000000000000000000000000000000052
:102E800002471200000000000000000000000000E7
:102E90000000000000000000000000000000506B77
:102EA00033020005000000000000000000000000E8
:102EB0000000000000000000000000000000000012
:102EC00002471200000000000000000000000000A7
:102ED0000000000000000000000000000000506B37
:102EE00033020005000000000000000000000000A8
:102EF00000000000000000000000000000000000D2
:102F00000247120000000000000000000000000066
:102F10000000000000000000000000000000506BF6
:102F20003302000500000000000000000000000067
:102F30000000000000000000000000000000000091
:102F40000247120000000000000000000000000026
:102F50000000000000000000000000000000506BB6
:102F60003302000500000000000000000000000027
:102F70000000000000000000000000000000000051
:102F800002471200000000000000000000000000E6
:102F90000000000000000000000000000000506B76
:102FA00033020005000000000000000000000000E7
:102FB0000000000000000000000000000000000011
:102FC00002471200000000000000000000000000A6
:102FD0000000000000000000000000000000506B36
:102FE00033020005000000000000000000000000A7
:102FF00000000000000000000000000000000000D1
:103000000247120000000000000000000000000065
:103010000000000000000000000000000000506BF5
:103020003302000500000000000000000000000066
:103030000000000000000000000000000000000090
:103040000247120000000000000000000000000025
:103050000000000000000000000000000000506BB5
:103060003302000500000000000000000000000026
:103070000000000000000000000000000000000050
:1030800002471200000000000000000000000000E5
:103090000000000000000000000000000000506B75
:1030A00033020005000000000000000000000000E6
:1030B0000000000000000000000000000000000010
:1030C00002471200000000000000000000000000A5
:1030D0000000000000000000000000000000506B35
:1030E00033020005000000000000000000000000A6
:1030F00000000000000000000000000000000000D0
:103100000247120000000000000000000000000064
:103110000000000000000000000000000000506BF4
:103120003302000500000000000000000000000065
:10313000000000000000000000000000000000008F
:103140000247120000000000000000000000000024
:103150000000000000000000000000000000506BB4
:103160003302000500000000000000000000000025
:10317000000000000000000000000000000000004F
:1031800002471200000000000000000000000000E4
:103190000000000000000000000000000000506B74
:1031A00033020005000000000000000000000000E5
:1031B000000000000000000000000000000000000F
:1031C00002471200000000000000000000000000A4
:1031D0000000000000000000000000000000506B34
:1031E00033020005000000000000000000000000A5
:1031F00000000000000000000000000000000000CF
:103200000247120000000000000000000000000063
:103210000000000000000000000000000000506BF3
:103220003302000500000000000000000000000064
:10323000000000000000000000000000000000008E
:103240000247120000000000000000000000000023
:103250000000000000000000000000000000506BB3
:103260003302000500000000000000000000000024
:10327000000000000000000000000000000000004E
:1032800002471200000000000000000000000000E3
:103290000000000000000000000000000000506B73
:1032A00033020005000000000000000000000000E4
:1032B000000000000000000000000000000000000E
:1032C00002471200000000000000000000000000A3
:1032D0000000000000000000000000000000506B33
:1032E00033020005000000000000000000000000A4
:1032F00000000000000000000000000000000000CE
:103300000247120000000000000000000000000062
:103310000000000000000000000000000000506BF2
:103320003302000500000000000000000000000063
:10333000000000000000000000000000000000008D
:103340000247120000000000000000000000000022
:103350000000000000000000000000000000506BB2
:103360003302000500000000000000000000000023
:10337000000000000000000000000000000000004D
:1033800002471200000000000000000000000000E2
:103390000000000000000000000000000000506B72
:1033A00033020005000000000000000000000000E3
:1033B000000000000000000000000000000000000D
:1033C00002471200000000000000000000000000A2
:1033D0000000000000000000000000000000506B32
:1033E00033020005000000000000000000000000A3
:1033F00000000000000000000000000000000000CD
:103400000247120000000000000000000000000061
:103410000000000000000000000000000000506BF1
:103420003302000500000000000000000000000062
:10343000000000000000000000000000000000008C
:103440000247120000000000000000000000000021
:103450000000000000000000000000000000506BB1
:103460003302000500000000000000000000000022
:10347000000000000000000000000000000000004C
:1034800002471200000000000000000000000000E1
:103490000000000000000000000000000000506B71
:1034A00033020005000000000000000000000000E2
:1034B000000000000000000000000000000000000C
:1034C00002471200000000000000000000000000A1
:1034D0000000000000000000000000000000506B31
:1034E00033020005000000000000000000000000A2
:1034F00000000000000000000000000000000000CC
:103500000247120000000000000000000000000060
:103510000000000000000000000000000000506BF0
:103520003302000500000000000000000000000061
:10353000000000000000000000000000000000008B
:103540000247120000000000000000000000000020
:103550000000000000000000000000000000506BB0
:103560003302000500000000000000000000000021
:10357000000000000000000000000000000000004B
:1035800002471200000000000000000000000000E0
:103590000000000000000000000000000000506B70
:1035A00033020005000000000000000000000000E1
:1035B000000000000000000000000000000000000B
:1035C00002471200000000000000000000000000A0
:1035D0000000000000000000000000000000506B30
:1035E00033020005000000000000000000000000A1
:1035F00000000000000000000000000000000000CB
:10360000024712000000000000000000000000005F
:103610000000000000000000000000000000506BEF
:103620003302000500000000000000000000000060
:10363000000000000000000000000000000000008A
:10364000024712000000000000000000000000001F
:103650000000000000000000000000000000506BAF
:103660003302000500000000000000000000000020
:10367000000000000000000000000000000000004A
:1036800002471200000000000000000000000000DF
:103690000000000000000000000000000000506B6F
:1036A00033020005000000000000000000000000E0
:1036B000000000000000000000000000000000000A
:1036C000024712000000000000000000000000009F
:1036D0000000000000000000000000000000506B2F
:1036E00033020005000000000000000000000000A0
:1036F00000000000000000000000000000000000CA
:10370000024712000000000000000000000000005E
:103710000000000000000000000000000000506BEE
:10372000330200050000000000000000000000005F
:103730000000000000000000000000000000000089
:10374000024712000000000000000000000000001E
:103750000000000000000000000000000000506BAE
:10376000330200050000000000000000000000001F
:103770000000000000000000000000000000000049
:1037800002471200000000000000000000000000DE
:103790000000000000000000000000000000506B6E
:1037A00033020005000000000000000000000000DF
:1037B0000000000000000000000000000000000009
:1037C000024712000000000000000000000000009E
:1037D0000000000000000000000000000000506B2E
:1037E000330200050000000000000000000000009F
:1037F00000000000000000000000000000000000C9
:10380000024712000000000000000000000000005D
:103810000000000000000000000000000000506BED
:10382000330200050000000000000000000000005E
:103830000000000000000000000000000000000088
:10384000024712000000000000000000000000001D
:103850000000000000000000000000000000506BAD
:10386000330200050000000000000000000000001E
:103870000000000000000000000000000000000048
:1038800002471200000000000000000000000000DD
:103890000000000000000000000000000000506B6D
:1038A00033020005000000000000000000000000DE
:1038B0000000000000000000000000000000000008
:1038C000024712000000000000000000000000009D
:1038D0000000000000000000000000000000506B2D
:1038E000330200050000000000000000000000009E
:1038F00000000000000000000000000000000000C8
:10390000024712000000000000000000000000005C
:103910000000000000000000000000000000506BEC
:10392000330200050000000000000000000000005D
:103930000000000000000000000000000000000087
:10394000024712000000000000000000000000001C
:103950000000000000000000000000000000506BAC
:10396000330200050000000000000000000000001D
:103970000000000000000000000000000000000047
:1039800002471200000000000000000000000000DC
:103990000000000000000000000000000000506B6C
:1039A00033020005000000000000000000000000DD
:1039B0000000000000000000000000000000000007
:1039C000024712000000000000000000000000009C
:1039D0000000000000000000000000000000506B2C
:1039E000330200050000000000000000000000009D
:1039F00000000000000000000000000000000000C7
:103A0000024712000000000000000000000000005B
:103A10000000000000000000000000000000506BEB
:103A2000330200050000000000000000000000005C
:103A30000000000000000000000000000000000086
:103A4000024712000000000000000000000000001B
:103A50000000000000000000000000000000506BAB
:103A6000330200050000000000000000000000001C
:103A70000000000000000000000000000000000046
:103A800002471200000000000000000000000000DB
:103A90000000000000000000000000000000506B6B
:103AA00033020005000000000000000000000000DC
:103AB0000000000000000000000000000000000006
:103AC000024712000000000000000000000000009B
:103AD0000000000000000000000000000000506B2B
:103AE000330200050000000000000000000000009C
:103AF00000000000000000000000000000000000C6
:103B0000024712000000000000000000000000005A
:103B10000000000000000000000000000000506BEA
:103B2000330200050000000000000000000000005B
:103B30000000000000000000000000000000000085
:103B4000024712000000000000000000000000001A
:103B50000000000000000000000000000000506BAA
:103B6000330200050000000000000000000000001B
:103B70000000000000000000000000000000000045
:103B800002471200000000000000000000000000DA
:103B90000000000000000000000000000000506B6A
:103BA00033020005000000000000000000000000DB
:103BB0000000000000000000000000000000000005
:103BC000024712000000000000000000000000009A
:103BD0000000000000000000000000000000506B2A
:103BE000330200050000000000000000000000009B
:103BF00000000000000000000000000000000000C5
:103C00000247120000000000000000000000000059
:103C10000000000000000000000000000000506BE9
:103C2000330200050000000000000000000000005A
:103C30000000000000000000000000000000000084
:103C40000247120000000000000000000000000019
:103C50000000000000000000000000000000506BA9
:103C6000330200050000000000000000000000001A
:103C70000000000000000000000000000000000044
:103C800002471200000000000000000000000000D9
:103C90000000000000000000000000000000506B69
:103CA00033020005000000000000000000000000DA
:103CB0000000000000000000000000000000000004
:103CC0000247120000000000000000000000000099
:103CD0000000000000000000000000000000506B29
:103CE000330200050000000000000000000000009A
:103CF00000000000000000000000000000000000C4
:103D00000247120000000000000000000000000058
:103D10000000000000000000000000000000506BE8
:103D20003302000500000000000000000000000059
:103D30000000000000000000000000000000000083
:103D40000247120000000000000000000000000018
:103D50000000000000000000000000000000506BA8
:103D60003302000500000000000000000000000019
:103D70000000000000000000000000000000000043
:103D800002471200000000000000000000000000D8
:103D90000000000000000000000000000000506B68
:103DA00033020005000000000000000000000000D9
:103DB0000000000000000000000000000000000003
:103DC0000247120000000000000000000000000098
:103DD0000000000000000000000000000000506B28
:103DE0003302000500000000000000000000000099
:103DF00000000000000000000000000000000000C3
:103E00000247120000000000000000000000000057
:103E10000000000000000000000000000000506BE7
:103E20003302000500000000000000000000000058
:103E30000000000000000000000000000000000082
:103E40000247120000000000000000000000000017
:103E50000000000000000000000000000000506BA7
:103E60003302000500000000000000000000000018
:103E70000000000000000000000000000000000042
:103E800002471200000000000000000000000000D7
:103E90000000000000000000000000000000506B67
:103EA00033020005000000000000000000000000D8
:103EB0000000000000000000000000000000000002
:103EC0000247120000000000000000000000000097
:103ED0000000000000000000000000000000506B27
:103EE0003302000500000000000000000000000098
:103EF00000000000000000000000000000000000C2
:103F00000247120000000000000000000000000056
:103F10000000000000000000000000000000506BE6
:103F20003302000500000000000000000000000057
:103F30000000000000000000000000000000000081
:103F40000247120000000000000000000000000016
:103F50000000000000000000000000000000506BA6
:103F60003302000500000000000000000000000017
:103F70000000000000000000000000000000000041
:103F800002471200000000000000000000000000D6
:103F90000000000000000000000000000000506B66
:103FA00033020005000000000000000000000000D7
:103FB0000000000000000000000000000000000001
:103FC0000247120000000000000000000000000096
:103FD0000000000000000000000000000000506B26
:103FE0003302000500000000000000000000000097
:103FF00000000000000000000000000000000000C1
:104000000247120000000000000000000000000055
:104010000000000000000000000000000000506BE5
:104020003302000500000000000000000000000056
:104030000000000000000000000000000000000080
:104040000247120000000000000000000000000015
:104050000000000000000000000000000000506BA5
:104060003302000500000000000000000000000016
:104070000000000000000000000000000000000040
:1040800002471200000000000000000000000000D5
:104090000000000000000000000000000000506B65
:1040A00033020005000000000000000000000000D6
:1040B0000000000000000000000000000000000000
:1040C0000247120000000000000000000000000095
:1040D0000000000000000000000000000000506B25
:1040E0003302000500000000000000000000000096
:1040F00000000000000000000000000000000000C0
:104100000247120000000000000000000000000054
:104110000000000000000000000000000000506BE4
:104120003302000500000000000000000000000055
:10413000000000000000000000000000000000007F
:104140000247120000000000000000000000000014
:104150000000000000000000000000000000506BA4
:104160003302000500000000000000000000000015
:10417000000000000000000000000000000000003F
:1041800002471200000000000000000000000000D4
:104190000000000000000000000000000000506B64
:1041A00033020005000000000000000000000000D5
:1041B00000000000000000000000000000000000FF
:1041C0000247120000000000000000000000000094
:1041D0000000000000000000000000000000506B24
:1041E0003302000500000000000000000000000095
:1041F00000000000000000000000000000000000BF
:104200000247120000000000000000000000000053
:104210000000000000000000000000000000506BE3
:104220003302000500000000000000000000000054
:10423000000000000000000000000000000000007E
:104240000247120000000000000000000000000013
:104250000000000000000000000000000000506BA3
:104260003302000500000000000000000000000014
:10427000000000000000000000000000000000003E
:1042800002471200000000000000000000000000D3
:104290000000000000000000000000000000506B63
:1042A00033020005000000000000000000000000D4
:1042B00000000000000000000000000000000000FE
:1042C0000247120000000000000000000000000093
:1042D0000000000000000000000000000000506B23
:1042E0003302000500000000000000000000000094
:1042F00000000000000000000000000000000000BE
:104300000247120000000000000000000000000052
:104310000000000000000000000000000000506BE2
:104320003302000500000000000000000000000053
:10433000000000000000000000000000000000007D
:104340000247120000000000000000000000000012
:104350000000000000000000000000000000506BA2
:104360003302000500000000000000000000000013
:10437000000000000000000000000000000000003D
:1043800002471200000000000000000000000000D2
:104390000000000000000000000000000000506B62
:1043A00033020005000000000000000000000000D3
:1043B00000000000000000000000000000000000FD
:1043C0000247120000000000000000000000000092
:1043D0000000000000000000000000000000506B22
:1043E0003302000500000000000000000000000093
:1043F00000000000000000000000000000000000BD
:104400000247120000000000000000000000000051
:104410000000000000000000000000000000506BE1
:104420003302000500000000000000000000000052
:10443000000000000000000000000000000000007C
:104440000247120000000000000000000000000011
:104450000000000000000000000000000000506BA1
:104460003302000500000000000000000000000012
:10447000000000000000000000000000000000003C
:1044800002471200000000000000000000000000D1
:104490000000000000000000000000000000506B61
:1044A00033020005000000000000000000000000D2
:1044B00000000000000000000000000000000000FC
:1044C0000247120000000000000000000000000091
:1044D0000000000000000000000000000000506B21
:1044E0003302000500000000000000000000000092
:1044F00000000000000000000000000000000000BC
:104500000247120000000000000000000000000050
:104510000000000000000000000000000000506BE0
:104520003302000500000000000000000000000051
:10453000000000000000000000000000000000007B
:104540000247120000000000000000000000000010
:104550000000000000000000000000000000506BA0
:104560003302000500000000000000000000000011
:10457000000000000000000000000000000000003B
:1045800002471200000000000000000000000000D0
:104590000000000000000000000000000000506B60
:1045A00033020005000000000000000000000000D1
:1045B00000000000000000000000000000000000FB
:1045C0000247120000000000000000000000000090
:1045D0000000000000000000000000000000506B20
:1045E0003302000500000000000000000000000091
:1045F00000000000000000000000000000000000BB
:10460000024712000000000000000000000000004F
:104610000000000000000000000000000000506BDF
:104620003302000500000000000000000000000050
:10463000000000000000000000000000000000007A
:10464000024712000000000000000000000000000F
:104650000000000000000000000000000000506B9F
:104660003302000500000000000000000000000010
:10467000000000000000000000000000000000003A
:1046800002471200000000000000000000000000CF
:104690000000000000000000000000000000506B5F
:1046A00033020005000000000000000000000000D0
:1046B00000000000000000000000000000000000FA
:1046C000024712000000000000000000000000008F
:1046D0000000000000000000000000000000506B1F
:1046E0003302000500000000000000000000000090
:1046F00000000000000000000000000000000000BA
:10470000024712000000000000000000000000004E
:104710000000000000000000000000000000506BDE
:10472000330200050000000000000000000000004F
:104730000000000000000000000000000000000079
:10474000024712000000000000000000000000000E
:104750000000000000000000000000000000506B9E
:10476000330200050000000000000000000000000F
:104770000000000000000000000000000000000039
:1047800002471200000000000000000000000000CE
:104790000000000000000000000000000000506B5E
:1047A00033020005000000000000000000000000CF
:1047B00000000000000000000000000000000000F9
:1047C000024712000000000000000000000000008E
:1047D0000000000000000000000000000000506B1E
:1047E000330200050000000000000000000000008F
:1047F00000000000000000000000000000000000B9
:10480000024712000000000000000000000000004D
:104810000000000000000000000000000000506BDD
:10482000330200050000000000000000000000004E
:104830000000000000000000000000000000000078
:10484000024712000000000000000000000000000D
:104850000000000000000000000000000000506B9D
:10486000330200050000000000000000000000000E
:104870000000000000000000000000000000000038
:1048800002471200000000000000000000000000CD
:104890000000000000000000000000000000506B5D
:1048A00033020005000000000000000000000000CE
:1048B00000000000000000000000000000000000F8
:1048C000024712000000000000000000000000008D
:1048D0000000000000000000000000000000506B1D
:1048E000330200050000000000000000000000008E
:1048F00000000000000000000000000000000000B8
:10490000024712000000000000000000000000004C
:104910000000000000000000000000000000506BDC
:10492000330200050000000000000000000000004D
:104930000000000000000000000000000000000077
:10494000024712000000000000000000000000000C
:104950000000000000000000000000000000506B9C
:10496000330200050000000000000000000000000D
:104970000000000000000000000000000000000037
:1049800002471200000000000000000000000000CC
:104990000000000000000000000000000000506B5C
:1049A00033020005000000000000000000000000CD
:1049B00000000000000000000000000000000000F7
:1049C000024712000000000000000000000000008C
:1049D0000000000000000000000000000000506B1C
:1049E000330200050000000000000000000000008D
:1049F00000000000000000000000000000000000B7
:104A0000024712000000000000000000000000004B
:104A10000000000000000000000000000000506BDB
:104A2000330200050000000000000000000000004C
:104A30000000000000000000000000000000000076
:104A4000024712000000000000000000000000000B
:104A50000000000000000000000000000000506B9B
:104A6000330200050000000000000000000000000C
:104A70000000000000000000000000000000000036
:104A800002471200000000000000000000000000CB
:104A90000000000000000000000000000000506B5B
:104AA00033020005000000000000000000000000CC
:104AB00000000000000000000000000000000000F6
:104AC000024712000000000000000000000000008B
:104AD0000000000000000000000000000000506B1B
:104AE000330200050000000000000000000000008C
:104AF00000000000000000000000000000000000B6
:104B0000024712000000000000000000000000004A
:104B10000000000000000000000000000000506BDA
:104B2000330200050000000000000000000000004B
:104B30000000000000000000000000000000000075
:104B4000024712000000000000000000000000000A
:104B50000000000000000000000000000000506B9A
:104B6000330200050000000000000000000000000B
:104B70000000000000000000000000000000000035
:104B800002471200000000000000000000000000CA
:104B90000000000000000000000000000000506B5A
:104BA00033020005000000000000000000000000CB
:104BB00000000000000000000000000000000000F5
:104BC000024712000000000000000000000000008A
:104BD0000000000000000000000000000000506B1A
:104BE000330200050000000000000000000000008B
:104BF00000000000000000000000000000000000B5
:104C00000247120000000000000000000000000049
:104C10000000000000000000000000000000506BD9
:104C2000330200050000000000000000000000004A
:104C30000000000000000000000000000000000074
:104C40000247120000000000000000000000000009
:104C50000000000000000000000000000000506B99
:104C6000330200050000000000000000000000000A
:104C70000000000000000000000000000000000034
:104C800002471200000000000000000000000000C9
:104C90000000000000000000000000000000506B59
:104CA00033020005000000000000000000000000CA
:104CB00000000000000000000000000000000000F4
:104CC0000247120000000000000000000000000089
:104CD0000000000000000000000000000000506B19
:104CE000330200050000000000000000000000008A
:104CF00000000000000000000000000000000000B4
:104D00000247120000000000000000000000000048
:104D10000000000000000000000000000000506BD8
:104D20003302000500000000000000000000000049
:104D30000000000000000000000000000000000073
:104D40000247120000000000000000000000000008
:104D50000000000000000000000000000000506B98
:104D60003302000500000000000000000000000009
:104D70000000000000000000000000000000000033
:104D800002471200000000000000000000000000C8
:104D90000000000000000000000000000000506B58
:104DA00033020005000000000000000000000000C9
:104DB00000000000000000000000000000000000F3
:104DC0000247120000000000000000000000000088
:104DD0000000000000000000000000000000506B18
:104DE0003302000500000000000000000000000089
:104DF00000000000000000000000000000000000B3
:104E00000247120000000000000000000000000047
:104E10000000000000000000000000000000506BD7
:104E20003302000500000000000000000000000048
:104E30000000000000000000000000000000000072
:104E40000247120000000000000000000000000007
:104E50000000000000000000000000000000506B97
:104E60003302000500000000000000000000000008
:104E70000000000000000000000000000000000032
:104E800002471200000000000000000000000000C7
:104E90000000000000000000000000000000506B57
:104EA00033020005000000000000000000000000C8
:104EB00000000000000000000000000000000000F2
:104EC0000247120000000000000000000000000087
:104ED0000000000000000000000000000000506B17
:104EE0003302000500000000000000000000000088
:104EF00000000000000000000000000000000000B2
:104F00000247120000000000000000000000000046
:104F10000000000000000000000000000000506BD6
:104F20003302000500000000000000000000000047
:104F30000000000000000000000000000000000071
:104F40000247120000000000000000000000000006
:104F50000000000000000000000000000000506B96
:104F60003302000500000000000000000000000007
:104F70000000000000000000000000000000000031
:104F800002471200000000000000000000000000C6
:104F90000000000000000000000000000000506B56
:104FA00033020005000000000000000000000000C7
:104FB00000000000000000000000000000000000F1
:104FC0000247120000000000000000000000000086
:104FD0000000000000000000000000000000506B16
:104FE0003302000500000000000000000000000087
:104FF00000000000000000000000000000000000B1
:105000000247120000000000000000000000000045
:105010000000000000000000000000000000506BD5
:105020003302000500000000000000000000000046
:105030000000000000000000000000000000000070
:105040000247120000000000000000000000000005
:105050000000000000000000000000000000506B95
:105060003302000500000000000000000000000006
:105070000000000000000000000000000000000030
:1050800002471200000000000000000000000000C5
:105090000000000000000000000000000000506B55
:1050A00033020005000000000000000000000000C6
:1050B00000000000000000000000000000000000F0
:1050C0000247120000000000000000000000000085
:1050D0000000000000000000000000000000506B15
:1050E0003302000500000000000000000000000086
:1050F00000000000000000000000000000000000B0
:105100000247120000000000000000000000000044
:105110000000000000000000000000000000506BD4
:105120003302000500000000000000000000000045
:10513000000000000000000000000000000000006F
:105140000247120000000000000000000000000004
:105150000000000000000000000000000000506B94
:105160003302000500000000000000000000000005
:10517000000000000000000000000000000000002F
:1051800002471200000000000000000000000000C4
:105190000000000000000000000000000000506B54
:1051A00033020005000000000000000000000000C5
:1051B00000000000000000000000000000000000EF
:1051C0000247120000000000000000000000000084
:1051D0000000000000000000000000000000506B14
:1051E0003302000500000000000000000000000085
:1051F00000000000000000000000000000000000AF
:105200000247120000000000000000000000000043
:105210000000000000000000000000000000506BD3
:105220003302000500000000000000000000000044
:10523000000000000000000000000000000000006E
:105240000247120000000000000000000000000003
:105250000000000000000000000000000000506B93
:105260003302000500000000000000000000000004
:10527000000000000000000000000000000000002E
:1052800002471200000000000000000000000000C3
:105290000000000000000000000000000000506B53
:1052A00033020005000000000000000000000000C4
:1052B00000000000000000000000000000000000EE
:1052C0000247120000000000000000000000000083
:1052D0000000000000000000000000000000506B13
:1052E0003302000500000000000000000000000084
:1052F00000000000000000000000000000000000AE
:105300000247120000000000000000000000000042
:105310000000000000000000000000000000506BD2
:105320003302000500000000000000000000000043
:10533000000000000000000000000000000000006D
:105340000247120000000000000000000000000002
:105350000000000000000000000000000000506B92
:105360003302000500000000000000000000000003
:10537000000000000000000000000000000000002D
:1053800002471200000000000000000000000000C2
:105390000000000000000000000000000000506B52
:1053A00033020005000000000000000000000000C3
:1053B00000000000000000000000000000000000ED
:1053C0000247120000000000000000000000000082
:1053D0000000000000000000000000000000506B12
:1053E0003302000500000000000000000000000083
:1053F00000000000000000000000000000000000AD
:105400000247120000000000000000000000000041
:105410000000000000000000000000000000506BD1
:105420003302000500000000000000000000000042
:10543000000000000000000000000000000000006C
:105440000247120000000000000000000000000001
:105450000000000000000000000000000000506B91
:105460003302000500000000000000000000000002
:10547000000000000000000000000000000000002C
:1054800002471200000000000000000000000000C1
:105490000000000000000000000000000000506B51
:1054A00033020005000000000000000000000000C2
:1054B00000000000000000000000000000000000EC
:1054C0000247120000000000000000000000000081
:1054D0000000000000000000000000000000506B11
:1054E0003302000500000000000000000000000082
:1054F00000000000000000000000000000000000AC
:105500000247120000000000000000000000000040
:105510000000000000000000000000000000506BD0
:105520003302000500000000000000000000000041
:10553000000000000000000000000000000000006B
:105540000247120000000000000000000000000000
:105550000000000000000000000000000000506B90
:105560003302000500000000000000000000000001
:10557000000000000000000000000000000000002B
:1055800002471200000000000000000000000000C0
:105590000000000000000000000000000000506B50
:1055A00033020005000000000000000000000000C1
:1055B00000000000000000000000000000000000EB
:1055C0000247120000000000000000000000000080
:1055D0000000000000000000000000000000506B10
:1055E0003302000500000000000000000000000081
:1055F00000000000000000000000000000000000AB
:10560000024712000000000000000000000000003F
:105610000000000000000000000000000000506BCF
:105620003302000500000000000000000000000040
:10563000000000000000000000000000000000006A
:1056400002471200000000000000000000000000FF
:105650000000000000000000000000000000506B8F
:105660003302000500000000000000000000000000
:10567000000000000000000000000000000000002A
:1056800002471200000000000000000000000000BF
:105690000000000000000000000000000000506B4F
:1056A00033020005000000000000000000000000C0
:1056B00000000000000000000000000000000000EA
:1056C000024712000000000000000000000000007F
:1056D0000000000000000000000000000000506B0F
:1056E0003302000500000000000000000000000080
:1056F00000000000000000000000000000000000AA
:10570000024712000000000000000000000000003E
:105710000000000000000000000000000000506BCE
:10572000330200050000000000000000000000003F
:105730000000000000000000000000000000000069
:1057400002471200000000000000000000000000FE
:105750000000000000000000000000000000506B8E
:1057600033020005000000000000000000000000FF
:105770000000000000000000000000000000000029
:1057800002471200000000000000000000000000BE
:105790000000000000000000000000000000506B4E
:1057A00033020005000000000000000000000000BF
:1057B00000000000000000000000000000000000E9
:1057C000024712000000000000000000000000007E
:1057D0000000000000000000000000000000506B0E
:1057E000330200050000000000000000000000007F
:1057F00000000000000000000000000000000000A9
:10580000024712000000000000000000000000003D
:105810000000000000000000000000000000506BCD
:10582000330200050000000000000000000000003E
:105830000000000000000000000000000000000068
:1058400002471200000000000000000000000000FD
:105850000000000000000000000000000000506B8D
:1058600033020005000000000000000000000000FE
:105870000000000000000000000000000000000028
:1058800002471200000000000000000000000000BD
:105890000000000000000000000000000000506B4D
:1058A00033020005000000000000000000000000BE
:1058B00000000000000000000000000000000000E8
:1058C000024712000000000000000000000000007D
:1058D0000000000000000000000000000000506B0D
:1058E000330200050000000000000000000000007E
:1058F00000000000000000000000000000000000A8
:10590000024712000000000000000000000000003C
:105910000000000000000000000000000000506BCC
:10592000330200050000000000000000000000003D
:105930000000000000000000000000000000000067
:1059400002471200000000000000000000000000FC
:105950000000000000000000000000000000506B8C
:1059600033020005000000000000000000000000FD
:105970000000000000000000000000000000000027
:1059800002471200000000000000000000000000BC
:105990000000000000000000000000000000506B4C
:1059A00033020005000000000000000000000000BD
:1059B00000000000000000000000000000000000E7
:1059C000024712000000000000000000000000007C
:1059D0000000000000000000000000000000506B0C
:1059E000330200050000000000000000000000007D
:1059F00000000000000000000000000000000000A7
:105A0000024712000000000000000000000000003B
:105A10000000000000000000000000000000506BCB
:105A2000330200050000000000000000000000003C
:105A30000000000000000000000000000000000066
:105A400002471200000000000000000000000000FB
:105A50000000000000000000000000000000506B8B
:105A600033020005000000000000000000000000FC
:105A70000000000000000000000000000000000026
:105A800002471200000000000000000000000000BB
:105A90000000000000000000000000000000506B4B
:105AA00033020005000000000000000000000000BC
:105AB00000000000000000000000000000000000E6
:105AC000024712000000000000000000000000007B
:105AD0000000000000000000000000000000506B0B
