:02000000DC2AF8
:1005A600831203138514D72A831203138510DB2ABB
:1005B6000800B601B701B801B901BA01BB01BC0117
:1005C600BD018301302C8312031305108601D3224B
:1005D6000130831203138600D3228312031386018C
:1005E600D3220230831203138600D3224230F00056
:1005F600F00BFB2A64000800F100831203130514B4
:100606007108F00004300310F00CFF3E031D062BAA
:1006160070088600D32271080F39831203138600EF
:10062600D322831203130510080007308312031325
:100636009F000E309000C030831603138600F03002
:100646008500A03081000D30F100FB30F000F00B8A
:100656002A2BF10B2A2B2F2B831203138501023031
:100666008600D3220230831203138600D322083079
:10067600831203138600D322402B412B83120313CC
:100686008601D3220C30831203138600D3224B2B10
:100696004C2B831203138601D322013083120313DA
:1006A6008600D3224230F000F00B572B64008312F1
:1006B60003138601D3220630831203138600D32246
:1006C60008008312031323082204210420040319BB
:1006D6006D2B6E2BB82BA9010314A90D802B0130AD
:1006E600A8000310A00DA10DA20DA30DA80B742B3D
:1006F6000130A8002808A907802BA31F832B842B71
:10070600722B862B862B23082702031D942B220887
:100716002602031D942B21082502031D942B200875
:100726002402031C972B982BA72B2008A402210830
:10073600031C210FA5022208031C220FA602230870
:10074600031C230FA702A72B01300310A30CA20C36
:10075600A10CA00CFF3E031DA82B0130A902031D0E
:10076600B52BB62B862BB82BB82B2708A30026084B
:10077600A2002508A1002408A000C12B0800003013
:10078600FC000030FB000030FA000030F90073086E
:100796007204710470040319D12BD22B262CFD018F
:1007A6000314FD0DE42B0130F8000310F00DF10DDC
:1007B600F20DF30DF80BD82B0130F8007808FD0781
:1007C600E42BF31FE72BE82BD62BEA2BEA2B013081
:1007D600F8000310F90DFA0DFB0DFC0DF80BEC2BD0
:1007E60073087702031D012C72087602031D012C83
:1007F60071087502031D012C70087402031C042C79
:10080600052C152C7008F4027108031C710FF502F3
:100816007208031C720FF6027308031C730FF702AB
:100826007914152C01300310F30CF20CF10CF00CBA
:10083600FF3E031D162C0130FD02031D232C242C24
:10084600EA2B262C262C7C08F3007B08F2007A087B
:10085600F1007908F0002F2C08001823322C83129F
:100866000313B001AE01AF018E018F010C10B1016F
:10087600101481010B114C2C0B1D422C432C4C2CBB
:100886000130AE070318AF0A0030AF070B114C2C2E
:100896004C2C0C1C4F2C502C3F2C512C0108AA0020
:1008A6002A08B00010102E08AA002F08AB00AC01D1
:1008B600AD0108300310AA0DAB0DAC0DAD0DFF3E1A
:1008C600031D5D2C30082A07B2002B0803182B0FD6
:1008D6000310B3002C0803182C0F0310B4002D08C6
:1008E60003182D0AB5000030F3000F30F200423035
:1008F600F1004030F0003508F7003408F600330800
:10090600F5003208F400C2237008303E8312031348
:10091600AA002A08BC000030A3000030A200003064
:10092600A1000A30A0000030F3000130F20086304A
:10093600F100A030F0003508F7003408F60033085F
:10094600F5003208F400C223730883120313A700CC
:100956007208A6007108A5007008A400642383121B
:1009660003132008303EAA002A08BB000030A3006B
:100976000030A2000030A1000A30A0000030F300D1
:100986000030F2002730F1001030F0003508F70093
:100996003408F6003308F5003208F400C223730861
:1009A60083120313A7007208A6007108A500700839
:1009B600A4006423831203132008303EAA002A08E9
:1009C600BA000030A3000030A2000030A1000A30B7
:1009D600A0000030F3000030F2000330F100E830F0
:1009E600F0003508F7003408F6003308F500320841
:1009F600F400C223730883120313A7007208A6002B
:100A06007108A5007008A40064238312031320084C
:100A1600303EAA002A08B9000030A3000030A20028
:100A26000030A1000A30A0000030F3000030F200D0
:100A36000030F1006430F0003508F7003408F600A5
:100A46003308F5003208F400C22373088312031337
:100A5600A7007208A6007108A5007008A400642308
:100A6600831203132008303EAA002A08B80000307B
:100A7600A3000030A2000030A1000A30A000003020
:100A8600F3000030F2000030F1000A30F0003508C3
:100A9600F7003408F6003308F5003208F400C223E4
:100AA600730883120313A7007208A6007108A50035
:100AB6007008A4006423831203132008303EAA00A2
:100AC6002A08B7000030A3000030A2000030A100C1
:100AD6000A30A0003508A7003408A6003308A50090
:100AE6003208A4006423831203132008303EAA00B0
:100AF6002A08B600E6222030FF222030FF22831289
:100B060003133C08303A031D892D8A2D8F2D203082
:100B1600FF222030FF229B2D831203133C08FF2265
:100B26002C30FF2283120313B1010314B10D9B2D48
:100B3600831203133B08303A031DA22DA32DAB2DC0
:100B4600B108031DA72DA82DAB2D2030FF22B52DF2
:100B5600831203133B08FF2283120313B10103140C
:100B6600B10DB52D831203133A08303A031DBC2D7F
:100B7600BD2DC52DB108031DC12DC22DC52D20309B
:100B8600FF22CF2D831203133A08FF228312031389
:100B9600B1010314B10DCF2D831203133908303A76
:100BA600031DD62DD72DE12DB108031DDB2DDC2D20
:100BB600E12D2030FF222030FF22E72D8312031380
:100BC6003908FF222C30FF22831203133808FF2234
:100BD600831203133708FF22831203133608FF22FA
:100BE6002030FF224830FF227A30FF220C30831259
:100BF60003138600D322831203138601D3224230C5
:100C060083120313AA00AA0B062E64008312031391
:100C1600B10100303502031D1A2E00303402031DC7
:100C26001A2E03303302031D1A2EE830320203183F
:100C36001D2E1E2E3E2E3508F3003408F200330812
:100C4600F1003208F0000030F7000F30F6004230B5
:100C5600F5004030F400C223730883120313B50075
:100C66007208B4007108B3007008B2007530AA00AB
:100C76002A08BD005E2E3508F3003408F20033085A
:100C8600F1003208F0003B30F7009A30F600CA3027
:100C9600F5000030F400C223730883120313B50075
:100CA6007208B4007108B3007008B2006E30AA0072
:100CB6002A08BD005E2E0030F3000F30F2004230ED
:100CC600F1004030F0003508F7003408F60033082C
:100CD600F5003208F400C2237008303E8312031375
:100CE600AA002A08BC000030A3000030A200003091
:100CF600A1000A30A0000030F3000130F200863077
:100D0600F100A030F0003508F7003408F60033088B
:100D1600F5003208F400C223730883120313A700F8
:100D26007208A6007108A5007008A4006423831247
:100D360003132008303EAA002A08BB000030A30097
:100D46000030A2000030A1000A30A0000030F300FD
:100D56000030F2002730F1001030F0003508F700BF
:100D66003408F6003308F5003208F400C22373088D
:100D760083120313A7007208A6007108A500700865
:100D8600A4006423831203132008303EAA002A0815
:100D9600BA000030A3000030A2000030A1000A30E3
:100DA600A0000030F3000030F2000330F100E8301C
:100DB600F0003508F7003408F6003308F50032086D
:100DC600F400C223730883120313A7007208A60057
:100DD6007108A5007008A400642383120313200879
:100DE600303EAA002A08B9000030A3000030A20055
:100DF6000030A1000A30A0000030F3000030F200FD
:100E06000030F1006430F0003508F7003408F600D1
:100E16003308F5003208F400C22373088312031363
:100E2600A7007208A6007108A5007008A400642334
:100E3600831203132008303EAA002A08B8000030A7
:100E4600A3000030A2000030A1000A30A00000304C
:100E5600F3000030F2000030F1000A30F0003508EF
:100E6600F7003408F6003308F5003208F400C22310
:100E7600730883120313A7007208A6007108A50061
:100E86007008A4006423831203132008303EAA00CE
:100E96002A08B7000030A3000030A2000030A100ED
:100EA6000A30A0003508A7003408A6003308A500BC
:100EB6003208A4006423831203132008303EAA00DC
:100EC6002A08B6002030FF222030FF2283120313A7
:100ED6003C08303A031D702F712F762F2030FF22E9
:100EE6002030FF22822F831203133C08FF222C306E
:100EF600FF2283120313B1010314B10D822F831253
:100F060003133B08303A031D892F8A2F922FB1080D
:100F1600031D8E2F8F2F922F2030FF229C2F83129E
:100F260003133B08FF2283120313B1010314B10D0F
:100F36009C2F831203133A08303A031DA32FA42FC4
:100F4600AC2FB108031DA82FA92FAC2F2030FF22EC
:100F5600B62F831203133A08FF2283120313B1013B
:100F66000314B10DB62F831203133908303A031D4B
:100F7600BD2FBE2FC82FB108031DC22FC32FC82FE8
:100F86002030FF222030FF22CE2F83120313390890
:100F9600FF222C30FF22831203133808FF2283120C
:100FA60003133708FF22831203133608FF2220306B
:100FB600FF22831203133D08FF227330FF228312A0
:100FC600031306142130AA00AA0BE72F831203137A
:100FD60006102130AA00AA0BEE2F831203138617E0
:100FE6002130AA00AA0BF52F831203138613213092
:0A0FF600AA00AA0BFC2F322C0028E1
:02400E00793FF8
:00000001FF
