:020000001028C6
:10000800FE00030EF0000408F1000A08F200831253
:1000180003137F08F300182F892F83120313600836
:10002800B401B4075F08B301B3073B30C8009A3086
:10003800C700CA30C6000030C500D401B501B601FA
:100048003608803AFF0080307F02031D2D280A30D1
:100058003502031C3028312833280A290A2983123B
:1000680003134808A3004708A2004608A100450852
:10007800A0003008A7002F08A6002E08A5002D080C
:10008800A400E923831203132008B1003108D30028
:100098004808A3004708A2004608A1004508A00098
:1000A8003008A7002F08A6002E08A5002D08A400D8
:1000B8008F25831203132308B0002208AF002108FC
:1000C800AE002008AD00D308031D6B286C287128EA
:1000D8005408031D7028A92871285308DC2701300B
:1000E80083120313B1003108D4070330A000003095
:1000F800A1003509B1003609B200B10A0319B20AE4
:100108003108093EA20032080318013E003EA30050
:1001180059248312031321082004031D94289528C9
:10012800D92809303506360403199B289C28D92874
:100138003330A0000030A1006A272C30831203134B
:10014800B1003108B300D928D9280330A000003005
:10015800A1003509B1003609B200B10A0319B20A83
:100168003108093EA20032080318013E003EA300F0
:1001780059248312031321082004031DC428C52809
:10018800D1280930350636040319CB28CC28D128C4
:100198008530A0008030A1006A27853083120313C0
:1001A800A0008030A1006A27D928003083120313E9
:1001B800A3000030A2000030A1000A30A0004808C7
:1001C800A7004708A6004608A5004508A400E9239B
:1001D800831203132308C8002208C7002108C60099
:1001E8002008C5000130B5070318B60A0030B60765
:1001F8003608803AFF0080307F02031D05290A3047
:100208003502031C0829092933280A2983120313F4
:100218005408013E84000A22B1003108B30033308B
:10022800A0000030A1006A278B3083120313A000BE
:100238008030A1006A270800831203134208D10105
:10024800D1074108D001D0070030E42783120313F7
:100258004C084B044A0449040319332934293E291C
:100268004C08B0004B08AF004A08AE004908AD0082
:1002780011204629303083120313A0008030A100DA
:100288006A2746294030E427003083120313C4004C
:100298000030C3000B30C200B830C100D2010830B2
:1002A8005202031C582959295B2995299529440884
:1002B8004C02031D692943084B02031D69294208A2
:1002C8004A02031D69294108490203186C296D294E
:1002D8006F29952995290030A3000030A20000302D
:1002E800A1000A30A0004408A7004308A60042085D
:1002F800A5004108A4004726831203132308C4005D
:100308002208C3002108C2002008C1000130B9003A
:100318003908D20708305202031C932994295B2913
:1003280095297C30A0008030A1006A2752308312C2
:100338000313B9003908BD005208B9003908BD07D0
:100348003D0884000A22A0000A22A1006A27A930D9
:1003580083120313A0008030A1006A27873083121C
:100368000313A0008030A1006A27831203134D08ED
:10037800AD004E08AE004F08AF00B0010A30B10022
:100388000030B20055305823553083120313A000B3
:100398000030A1006A27073083120313B900390817
:1003A800E2006208183E84000A22B900B90A62080D
:1003B800713E84000A22BA00BA0A0130BB0000303C
:1003C800BC00E9290310BB0DBC0DBA0BE629EF29C7
:1003D8000310BB0DBC0DB90BEC293B08CD003C0844
:1003E800CE000030BC1BFF30CF008330A00080302F
:0603F800A1006A270800C5
:10040000FF1B0A2A83137F1883170008840A031925
:10041000FF0A080002308A000408840A82070034B8
:1004200020342034203420344B344B344B344D347E
:100430004D344D344734003400340034003400343B
:100440000034003400340034013402340334003406
:1004500000340034003400340034003400340634F6
:1004600007340834003401340234033404340534CE
:10047000063407340234023402340A3401342D3491
:100480002D342D343E344E346F34203469346E3480
:100490007034753474343C342D342D342D340034A0
:1004A00048347A34203443346F3475346E347434C1
:1004B000653472342034763431342E343134683437
:1004C0000034A034A3349D34A63491349A34973444
:1004D00094348E340034003400340034003400345A
:1004E000003451342D3442347934743465347334E7
:1004F000203457346F3472346C3464342E34003406
:100500000134023403340434053406340734083427
:100510000334033403346D3457342F346434423499
:10052000203400342034203420340034203431345A
:100530002F34003448347A3400343F343F340034AC
:10054000203448340034533448340034553448346B
:10055000003456344834003420344C3400344534AC
:100560004C34003456344C34003420344D34003490
:1005700046340034831203134908A0004A08A1003E
:100580004B08A2004C08A30011300310A30CA20CCE
:10059000A10CA00CFF3E031DC52A2308CC00220895
:1005A000CB002108CA002008C9000030C400003078
:1005B000C3000030C2000130C100E2010830620215
:1005C000031CE32AE42AE62A1E2B1E2B44084C02B5
:1005D000031DF42A43084B02031DF42A42084A0271
:1005E000031DF42A410849020318F72AF82AFA2AB7
:1005F0001E2B1E2B4108A0004208A1004308A200A8
:100600004408A30001300310A00DA10DA20DA30DFD
:10061000FF3E031D032B2308C4002208C30021084A
:10062000C2002008C1000130A0002008E207083005
:100630006202031C1C2B1D2BE62A1E2B08306202B3
:10064000031C232B242B292B0730A0002008E200B9
:10065000292B6208183E84000A22A000A00A620822
:10066000713E84000A22A100A10A0130A2000030DC
:10067000A3003D2B0310A20DA30DA10B3A2B432B7E
:100680000310A20DA30DA00B402B2208CD002308C0
:10069000CE000030A31BFF30CF006208A000A101F4
:1006A000A2012008F7002108F8002208F90008003C
:1006B00083120313B8003008B6002F08B5002E08C7
:1006C000B4002D08B300642B3108A0003208A1004B
:1006D0000030A11BFF30A200A3003608A700350898
:1006E000A6003408A5003308A400E92383120313ED
:1006F0002308B6002208B5002108B4002008B30082
:100700000130F6007608B80736083504340433049F
:10071000031D8B2B8C2B642B8D2B380884008313AB
:1007200080010130B802942B3108A0003208A100EA
:100730000030A11BFF30A200A3003008A7002F0843
:10074000A6002E08A5002D08A4008F2583120313F0
:100750002008F6007608B7003108A0003208A10092
:100760000030A11BFF30A200A3003008A7002F0813
:10077000A6002E08A5002D08A400E9238312031368
:100780002308B0002208AF002108AE002008AD0009
:100790000A303702031CCD2BCE2BD22B0730F600AC
:1007A0007608B7073030F6007608B7073708F60046
:1007B000380884007608831380000130B8023008BE
:1007C0002F042E042D04031DE62BE72B942BE82B7E
:1007D0000800003083120313AB000030AA00003081
:1007E000A9000030A80023082204210420040319D2
:1007F000FA2BFB2B4F2CAC010314AC0D0D2C01304C
:10080000F4000310A00DA10DA20DA30DF40B012CFB
:100810000130F4007408AC070D2CA31F102C112C10
:10082000FF2B132C132C0130F4000310A80DA90D7D
:10083000AA0DAB0DF40B152C23082702031D2A2C3F
:1008400022082602031D2A2C21082502031D2A2C1A
:1008500020082402031C2D2C2E2C3E2C2008A40240
:100860002108031C210FA5022208031C220FA60247
:100870002308031C230FA70228143E2C0130031069
:10088000A30CA20CA10CA00CFF3E031D3F2C0130B9
:10089000AC02031D4C2C4D2C132C4F2C4F2C2B0831
:1008A000A3002A08A2002908A1002808A000582CAB
:1008B0000800F60183120313A31F5F2C602C692C20
:1008C000A209A309A20A0319A30AF6010314F60D4B
:1008D000692CA11F6C2C6D2C732CA009A109A00AF6
:1008E0000319A10A732C210820040319782C792CF0
:1008F000AF2CF5010314F50D892C01300310A00D68
:10090000A10DFF3E031D7E2C0130F4007408F50795
:10091000892CA11F8C2C8D2C7D2C8F2C8F2C2108A9
:100920002302031D952C20082202031C982C992CCD
:10093000A02C2008A2022108031CA303A302A02CC0
:1009400001300310A10CA00CFF3E031DA12C0130AF
:10095000F502031DAC2CAD2C8F2CAF2CAF2C7608E0
:10096000031DB32CB92CA209A309A20A0319A30AD7
:10097000B92C2308A101A1072208A001A007C02CBF
:100980000800A0308B00A03083160313810083126F
:1009900003136208233E84000A22A0002008831665
:1009A000031381048312031362080D3E84000A229C
:1009B0000139031DDC2CE02C831203130616E32CF3
:1009C00083120313061262080D3E84000A220239C4
:1009D000031DEB2CEF2C831203138616F22C8312CB
:1009E000031386126208183E84000A22A000A00A9F
:1009F0006208713E84000A22A100A10A0130A2000F
:100A00000030A300062D0310A20DA30DA10B032D92
:100A10000C2D0310A20DA30DA00B092D2208CD0053
:100A20002308CE000030A31BFF30CF00810100302F
:100A3000C4000030C3000030C2000030C1000030EC
:100A4000CC000030CB000030CA000030C9008B174A
:100A500008008316031385018B120C1083120313F5
:100A600005140108AC00AD01AE012C08A0002D0852
:100A7000A1002E08A2004D08A3004E08A4004F08B4
:100A8000A500DA26831203132008AF002108B00066
:100A90002208B100B2014D08B3004E08B4004F085F
:100AA000B50008300310B30DB40DB50DFF3E031DA6
:100AB000522D3308A0003408A1003508A200A3017C
:100AC0004408A7004308A6004208A5004108A40066
:100AD0004726831203132008AF0721080318210FAC
:100AE000722D732DB00722080318220F782D792D4F
:100AF000B10723080318230AB2073208CC003108D3
:100B0000CB003008CA002F08C9004130AD00EE30DC
:100B1000AC00AC0B892DAD0B892D6400080083124D
:100B2000031323082204210420040319982D992D6E
:100B3000E32DF5010314F50DAB2D0130F400031086
:100B4000A00DA10DA20DA30DF40B9F2D0130F400FB
:100B50007408F507AB2DA31FAE2DAF2D9D2DB12D24
:100B6000B12D23082702031DBF2D22082602031DD5
:100B7000BF2D21082502031DBF2D20082402031CC0
:100B8000C22DC32DD22D2008A4022108031C210F41
:100B9000A5022208031C220FA6022308031C230F10
:100BA000A702D22D01300310A30CA20CA10CA00CA3
:100BB000FF3E031DD32D0130F502031DE02DE12D75
:100BC000B12DE32DE32D2708A3002608A200250858
:100BD000A1002408A000EC2D0800CA2793269B271B
:100BE000623083120313A0008030A1006A274030D6
:100BF000E427413083120313A0008030A1006A274C
:100C0000333083120313C000BC30BF001030BE006D
:100C1000BE0B082EBF0B082EC00B082EAD27122EC0
:100C2000122E122E831203135108803ABE00803018
:100C30003E02031D1D2E61085002031C202E212E92
:100C4000122E222E29252F3084000A22831203130C
:100C5000BE0061083E06031D2E2E2F2E392EBA220D
:100C60002E3084000A2283120313BE003E08E100E6
:100C7000432E20212F3084000A2283120313BE004A
:100C80003E08E100432E9B27122E122E1028003022
:100C900083120313AB000030AA000030A90000301B
:100CA000A800522E201C552E562E6E2E2408A80762
:100CB000250803110318013E03195F2EA907260812
:100CC00003110318013E0319662EAA072708031112
:100CD0000318013E03196D2EAB076E2E0130F40090
:100CE0000310A40DA50DA60DA70DF40B702E013059
:100CF0000310A30CA20CA10CA00CFF3E031D782E28
:100D00002308220421042004031D872E882E522E3E
:100D1000892E2B08A3002A08A2002908A100280870
:100D2000A000922E08008312031386170430A4003B
:100D3000CF30A3000330A200A20B9C2EA30B9C2E4D
:100D4000A40B9C2EA32E831203130608F03903383C
:100D50008600851485102130A3007630A200A20BF6
:100D6000AF2EA30BAF2E64008312031385148510DE
:100D7000F930A2006400A20BBA2EBE2E64008312CA
:100D8000031385148510F930A2006400A20BC52E50
:100D9000C92E6400831203130608F0390238860056
:100DA00085148510283047270C304727AD2706309B
:100DB000472708000030F4000030F5000030F6004E
:100DC000E12E83120313201CE62EE72EF82E2308B3
:100DD000F407240803110318240A0319F02EF50759
:100DE000250803110318250A0319F72EF607F82E14
:100DF00001300310A30DA40DA50DFF3E031DF92E18
:100E000001300310A20CA10CA00CFF3E031D012F0A
:100E1000220821042004031D0E2F0F2FE12E102F76
:100E20007408A0007508A1007608A200172F08001A
:100E30000B1D1B2F1C2F2C2F0B110130C107003055
:100E400003180130C207003003180130C307003017
:100E500003180130C4072C2F0C1C2F2F302F3C2FD0
:100E60000B308F00DC308E000C100130D0070318DF
:100E7000D10A0030D1073C2F7308FF0072088A00A6
:100E800071088400700E8300FE0E7E0E0900F600CD
:100E90004230F400F40B4A2F6400F0308312031345
:100EA0000605F4007608F50004300310F50CFF3E4B
:100EB000031D552F75080F3974048600851485109D
:100EC000F0300605F40076080F39740486008514A6
:100ED000851008008312031385157D2F2108FF005C
:100EE0002008840000224727013083120313A00743
:100EF0000318A10A0030A1077D2F2108FF00200858
:100F0000840000220038031D862F872F6E2F882F24
:100F10000800F701F801F9018313413084005F30C4
:100F2000D427EC27DF00ED27E000EE27E100EF27D4
:100F3000E2008301ED2D8312031305101030831698
:100F400003138500C124BE2783120313D001D101EE
:100F5000831603130C148B160800831203138511D8
:100F6000013047270D3083120313A100FB30A0008E
:100F7000A00BB82FA10BB82FBD2F08003130831262
:100F8000031390000C1009308F00AC308E00C0307D
:100F90008B0008000730831203139F001030831664
:100FA000031385008601080064008001840A04069A
:100FB000031900340406D52F83120313A0008515EE
:100FC0002008303E4727080083120313A000851134
:100FD0002008803E472708002E34003401340734AF
:02400E0022FF8F
:00000001FF
