:020000001028C6
:10000800FE00030EF0000408F1000A08F200831253
:1000180003137F08F300B62E8B2F83120313600897
:10002800B401B4075F08B301B3073B30C8009A3086
:10003800C700CA30C6000030C500D401B501B601FA
:100048003608803AFF0080307F02031D2D280A30D1
:100058003502031C3028312833280A290A2983123B
:1000680003134808A3004708A2004608A100450852
:10007800A0003008A7002F08A6002E08A5002D080C
:10008800A400E223831203132008B1003108D3002F
:100098004808A3004708A2004608A1004508A00098
:1000A8003008A7002F08A6002E08A5002D08A400D8
:1000B8002125831203132308B0002208AF0021086A
:1000C800AE002008AD00D308031D6B286C287128EA
:1000D8005408031D7028A92871285308D627013011
:1000E80083120313B1003108D4070330A000003095
:1000F800A1003509B1003609B200B10A0319B20AE4
:100108003108093EA20032080318013E003EA30050
:1001180052248312031321082004031D94289528D0
:10012800D92809303506360403199B289C28D92874
:100138003330A0000030A10058272C30831203135D
:10014800B1003108B300D928D9280330A000003005
:10015800A1003509B1003609B200B10A0319B20A83
:100168003108093EA20032080318013E003EA300F0
:1001780052248312031321082004031DC428C52810
:10018800D1280930350636040319CB28CC28D128C4
:100198007E30A0008030A10058277E3083120313E0
:1001A800A0008030A1005827D928003083120313FB
:1001B800A3000030A2000030A1000A30A0004808C7
:1001C800A7004708A6004608A5004508A400E223A2
:1001D800831203132308C8002208C7002108C60099
:1001E8002008C5000130B5070318B60A0030B60765
:1001F8003608803AFF0080307F02031D05290A3047
:100208003502031C0829092933280A2983120313F4
:100218005408013E84000A22B1003108B30033308B
:10022800A0000030A1005827843083120313A000D7
:100238008030A10058270800831203134208D10117
:10024800D1074108D001D0070030DE2783120313FD
:100258004C084B044A0449040319332934293E291C
:100268004C08B0004B08AF004A08AE004908AD0082
:1002780011204629303083120313A0008030A100DA
:10028800582746294030DE27003083120313C40064
:100298000030C3000B30C200B830C100D2010830B2
:1002A8005202031C582959295B2995299529440884
:1002B8004C02031D692943084B02031D69294208A2
:1002C8004A02031D69294108490203186C296D294E
:1002D8006F29952995290030A3000030A20000302D
:1002E800A1000A30A0004408A7004308A60042085D
:1002F800A5004108A400D925831203132308C400CC
:100308002208C3002108C2002008C1000130B9003A
:100318003908D20708305202031C932994295B2913
:1003280095295230B9003908BD005208B90039087A
:10033800BD073D0884000A22A0000A22A100582710
:10034800A23083120313A0008030A1005827803008
:1003580083120313A0008030A100582783120313CF
:100368004D08AD004E08AE004F08AF00B0010A308E
:10037800B1000030B20055305123553083120313B9
:10038800A0000030A1005827073083120313B900DA
:100398003908E2006208183E84000A22B900B90A46
:1003A8006208713E84000A22BA00BA0A0130BB0012
:1003B8000030BC00E2290310BB0DBC0DBA0BDF29CD
:1003C800E8290310BB0DBC0DB90BE5293B08CD008E
:1003D8003C08CE000030BC1BFF30CF007C30A000B2
:0803E8008030A1005827080035
:10040000FF1B0A2A83137F1883170008840A031925
:10041000FF0A080002308A000408840A82070034B8
:1004200020342034203420344B344B344B344D347E
:100430004D344D344734003400340034003400343B
:100440000034003400340034013402340334003406
:1004500000340034003400340034003400340634F6
:1004600007340834003401340234033404340534CE
:100470000634073402340234023450340A342D3442
:100480002D342D343E344E346F34203469346E3480
:100490007034753474343C342D342D342D340034A0
:1004A00048347A34203443346F3475346E347434C1
:1004B000653472342034763431342E343134683437
:1004C000003499349C3496349F348A349334903475
:1004D0008D34873400340034003400340034003468
:1004E000003451342D3442347934743465347334E7
:1004F000203457346F3472346C3464342E34003406
:100500000134023403340434053406340734083427
:1005100003340334033420342034203400342034B2
:1005200031342F34003448347A3400343F343F348B
:1005300000342034483400345334483400345534C3
:100540004834003456344834003420344C340034B9
:1005500045344C34003456344C34003420344D345B
:10056000003446340034831203134908A0004A08BB
:10057000A1004B08A2004C08A30011300310A30CEB
:10058000A20CA10CA00CFF3E031DBE2A2308CC0028
:100590002208CB002108CA002008C9000030C4008E
:1005A0000030C3000030C2000130C100E201083059
:1005B0006202031CDC2ADD2ADF2A172B172B4408D2
:1005C0004C02031DED2A43084B02031DED2A42088D
:1005D0004A02031DED2A410849020318F02AF12AB4
:1005E000F32A172B172B4108A0004208A10043084B
:1005F000A2004408A30001300310A00DA10DA20D1C
:10060000A30DFF3E031DFC2A2308C4002208C300DB
:100610002108C2002008C1000130A0002008E20724
:1006200008306202031C152B162BDF2A172B08300B
:100630006202031C1C2B1D2B222B0730A00020085C
:10064000E200222B6208183E84000A22A000A00AC1
:100650006208713E84000A22A100A10A0130A200B2
:100660000030A300362B0310A20DA30DA10B332BDA
:100670003C2B0310A20DA30DA00B392B2208CD009B
:100680002308CE000030A31BFF30CF006208A0007B
:10069000A101A2012008F7002108F8002208F900B2
:1006A000080083120313B8003008B6002F08B50005
:1006B0002E08B4002D08B3005D2B3108A0003208CD
:1006C000A1000030A11BFF30A200A3003608A70044
:1006D0003508A6003408A5003308A400E2238312DD
:1006E00003132308B6002208B5002108B40020082F
:1006F000B3000130F6007608B80736083504340434
:100700003304031D842B852B5D2B862B3808840036
:10071000831380010130B8028D2B3108A00032080C
:10072000A1000030A11BFF30A200A3003008A700E9
:100730002F08A6002E08A5002D08A400212583124D
:1007400003132008F6007608B7003108A00032082D
:10075000A1000030A11BFF30A200A3003008A700B9
:100760002F08A6002E08A5002D08A400E22383125E
:1007700003132308B0002208AF002108AE002008B0
:10078000AD000A303702031CC62BC72BCB2B07301A
:10079000F6007608B7073030F6007608B707370856
:1007A000F600380884007608831380000130B80210
:1007B00030082F042E042D04031DDF2BE02B8D2B7E
:1007C000E12B0800003083120313AB000030AA00B5
:1007D0000030A9000030A8002308220421042004CE
:1007E0000319F32BF42B482CAC010314AC0D062C8D
:1007F0000130F4000310A00DA10DA20DA30DF40B08
:10080000FA2B0130F4007408AC07062CA31F092C46
:100810000A2CF82B0C2C0C2C0130F4000310A80D22
:10082000A90DAA0DAB0DF40B0E2C23082702031DF6
:10083000232C22082602031D232C21082502031D38
:10084000232C20082402031C262C272C372C2008BC
:10085000A4022108031C210FA5022208031C220F59
:10086000A6022308031C230FA7022814372C0130EB
:100870000310A30CA20CA10CA00CFF3E031D382CEE
:100880000130AC02031D452C462C0C2C482C482C66
:100890002B08A3002A08A2002908A1002808A0000C
:1008A000512C0800F60183120313A31F582C592C56
:1008B000622CA209A309A20A0319A30AF6010314D0
:1008C000F60D622CA11F652C662C6C2CA009A109C9
:1008D000A00A0319A10A6C2C210820040319712C09
:1008E000722CA82CF5010314F50D822C0130031095
:1008F000A00DA10DFF3E031D772C0130F4007408FC
:10090000F507822CA11F852C862C762C882C882C10
:1009100021082302031D8E2C20082202031C912C87
:10092000922C992C2008A2022108031CA303A302E5
:10093000992C01300310A10CA00CFF3E031D9A2C32
:100940000130F502031DA52CA62C882CA82CA82C60
:100950007608031DAC2CB22CA209A309A20A031924
:10096000A30AB22C2308A101A1072208A001A00715
:10097000B92C08008316031385018B120C108C1000
:100980008312031305140108AC00AD01AE012C085D
:10099000A0002D08A1002E08A2004D08A3004E08BB
:1009A000A4004F08A500F726831203132008AF0008
:1009B0002108B0002208B100B2014D08B3004E0872
:1009C000B4004F08B50008300310B30DB40DB50DD9
:1009D000FF3E031DE42C3308A0003408A1003508B5
:1009E000A200A3014408A7004308A6004208A500EE
:1009F0004108A400D925831203132008AF0721085A
:100A00000318210F042D052DB00722080318220F0B
:100A10000A2D0B2DB10723080318230AB207320849
:100A2000CC003108CB003008CA002F08C900413083
:100A3000AD00EE30AC00AC0B1B2DAD0B1B2D6400DC
:100A4000080083120313230822042104200403193D
:100A50002A2D2B2D752DF5010314F50D3D2D01309B
:100A6000F4000310A00DA10DA20DA30DF40B312D68
:100A70000130F4007408F5073D2DA31F402D412DD2
:100A80002F2D432D432D23082702031D512D22080E
:100A90002602031D512D21082502031D512D20087A
:100AA0002402031C542D552D642D2008A402210876
:100AB000031C210FA5022208031C220FA6022308F3
:100AC000031C230FA702642D01300310A30CA20CFA
:100AD000A10CA00CFF3E031D652D0130F502031D86
:100AE000722D732D432D752D752D2708A300260813
:100AF000A2002508A1002408A0007E2D0800C4271C
:100B00006F267727623083120313A0008030A10084
:100B100058274030DE27413083120313A000803075
:100B2000A1005827333083120313C000BC30BF002C
:100B30001030BE00BE0B9A2DBF0B9A2DC00B9A2D04
:100B40009D27A42DA42DA42D831203135108803AB0
:100B5000BE0080303E02031DAF2D61085002031C11
:100B6000B22DB32DA42DB42DBA242F3084000A2227
:100B700083120313BE0061083E06031DC02DC12D64
:100B8000CB2DB3222E3084000A2283120313BE0021
:100B90003E08E100D52D20212F3084000A22831247
:100BA0000313BE003E08E100D52D7727A42DA42D08
:100BB0001028003083120313AB000030AA0000306D
:100BC000A9000030A800E42D201CE72DE82D002E00
:100BD0002408A807250803110318013E0319F12D65
:100BE000A907260803110318013E0319F82DAA07C7
:100BF000270803110318013E0319FF2DAB07002E30
:100C00000130F4000310A40DA50DA60DA70DF40BE3
:100C1000022E01300310A30CA20CA10CA00CFF3E6D
:100C2000031D0A2E2308220421042004031D192E6B
:100C30001A2EE42D1B2E2B08A3002A08A200290837
:100C4000A1002808A000242E0800A0308B00A030AE
:100C5000831603138100831203136208233E84006A
:100C60000A22A000200883160313810483120313B1
:100C70006208183E84000A22A000A00A6208713EA1
:100C800084000A22A100A10A0130A2000030A300C2
:100C90004C2E0310A20DA30DA10B492E522E0310B2
:100CA000A20DA30DA00B4F2E2208CD002308CE00CD
:100CB0000030A31BFF30CF0081010030C4000030A2
:100CC000C3000030C2000030C1000030CC00003052
:100CD000CB000030CA000030C9008B170800831217
:100CE000031386170430A400CF30A3000330A20002
:100CF000A20B782EA30B782EA40B782E7F2E8312B6
:100D000003130608F0390338860085148510213056
:100D1000A3007630A200A20B8B2EA30B8B2E6400B7
:100D20008312031385148510F930A2006400A20B0E
:100D3000962E9A2E64008312031385148510F930C1
:100D4000A2006400A20BA12EA52E6400831203133F
:100D50000608F039023886008514851028303527BA
:100D60000C3035279D270630352708000B1DB92E7E
:100D7000BA2ECC2E0B110130C10700300318013000
:100D8000C207003003180130C307003003180130D8
:100D9000C40710308606CC2E0C1CCF2ED02ED82E99
:100DA0000B308F00DC308E000C1020308606D82EE1
:100DB0008C1CDB2EDC2EEC2E8C100130D00703189F
:100DC000D10A0030D107F43083160313920040306B
:100DD000831203138606EC2E7308FF0072088A0044
:100DE00071088400700E8300FE0E7E0E0900003034
:100DF000F4000030F5000030F600FE2E83120313DD
:100E0000201C032F042F152F2308F4072408031197
:100E10000318240A03190D2FF507250803110318D9
:100E2000250A0319142FF607152F01300310A30DFF
:100E3000A40DA50DFF3E031D162F01300310A20CBB
:100E4000A10CA00CFF3E031D1E2F2208210420042C
:100E5000031D2B2F2C2FFE2E2D2F7408A00075089C
:100E6000A1007608A200342F0800F6004230F400FA
:100E7000F40B382F6400F030831203130605F400DE
:100E80007608F50004300310F50CFF3E031D432FD8
:100E900075080F397404860085148510F030060536
:100EA000F40076080F397404860085148510080054
:100EB0008312031385156B2F2108FF00200884007F
:100EC00000223527013083120313A0070318A10A5B
:100ED0000030A1076B2F2108FF00200884000022AA
:100EE0000038031D742F752F5C2F762F0800831296
:100EF0000313051010308316031385002526AE2733
:100F0000BA2783120313D001D101831603138C1463
:100F10000C148B160800F701F801F9018313413016
:100F200084005F30CE27E627DF00E727E000E827D0
:100F3000E100E927E20083017F2D8312031385116D
:100F4000013035270D3083120313A100FB30A000C0
:100F5000A00BA82FA10BA82FAD2F080031308312B2
:100F6000031390000C1009308F00AC308E00C0309D
:100F70008B0008007F30831203139200C730831662
:100F8000031392008C1408000730831203139F0090
:100F90001030831603138500860108006400800169
:100FA000840A0406031900340406CF2F83120313A6
:100FB000A00085152008303E352708008312031352
:100FC000A00085112008803E352708002E3400340B
:040FD00001340734AD
:02400E0022FF8F
:00000001FF
