:020000040000FA
:06000000BBEF06F0120048
:08000800F26AF7EC04F01000AD
:020010001200DC
:08001800F26A9EEC05F01000F5
:020020001200CC
:02002A000000D4
:04002C000001606B04
:100030000F0EC112956A836A6F6A6F886F8412000F
:1000400080A206D0696A6D860001010E606F06D03D
:1000500080B204D06D6A696A0001606B00016005BE
:100060000EE16DBAFED7686A696A69806988000125
:10007000020E606FD08EA16AA28AA08AF28E120050
:1000800004011151FE0A14E0F70A10E00F0A09E01A
:10009000030A05E0040A01E012005AEF00F061EFE4
:1000A00000F013C4E6FF11D8E5521200E4EF00F0AF
:1000B000E8EF00F0000161957190F7EC05F089EF31
:1000C00001F000016283F7EF05F0FCEC05F0FE0E95
:1000D000DB040DE10001180E646F0D0E656F040165
:1000E000120E161901E117511EE0080E10D0FE0E77
:1000F000DB5002080FE100012A0E646F0D0E656FE0
:100100000401090E161901E117510DE0200E166FBA
:10011000176B09D0FE0EDB50060805E10401840EC2
:10012000046F006F49D000016851691104E116C4E1
:1001300068F017C469F0100E685D000E695903E29B
:1001400068C0DFFF0CD0100ED8806855000E6955CE
:1001500003E2100EDF6E03D0100EDF6E628103EC3F
:1001600006F0D950010FE96EDACFEAFF180EEE6EF5
:10017000040EED6EDFCF05F40401180E066F040EB9
:10018000076FDF5000080DE218EC06F0DF06010EE5
:10019000DB2A020E01E3DB2A0001642B000E65233B
:1001A000F0D7000161A104D061910401C80E03D011
:1001B00061810401880E046FF56E030EE15C02E2BA
:1001C000E16AE552DEEF05F01E0E716EF7EF05F005
:1001D0000401056B0AEC06F0C80E046F0001618390
:1001E0000401880E086F1200040137512F0A24E021
:1001F000310A20E01E0A1CE01A0A18E0300A14E056
:10020000020A10E02B0A0CE0260A08E0060A04E0C5
:10021000310A14E1C8EF01F0D4EF01F0DCEF01F096
:10022000E9EF01F055EF02F024EF03F0D8EF04F00E
:10023000EBEF04F0ECEF04F0F6EF04F00F0E836E3A
:10024000FFD7FCEC05F00001400E685D000E695917
:1002500003E268C0DFFF02D0400EDF6E03EC06F061
:100260006851691107E16A516B116C116D1102E15E
:10027000628509D06851691106E16A516B116C11F0
:100280006D1101E06289DFCF0DF40401280E0E6FBD
:10029000040E0F6FE4EC05F00001645165110FE0EE
:1002A000DF50000823E218EC06F0010EDB2A020EF4
:1002B00001E3DB2A642B000E6523DF06F1D76651CC
:1002C000671114E0DF50000811E266C0E9FF67C063
:1002D000EAFFEF50C3EC05F0DF06010EDB2A020E49
:1002E00001E3DB2A662B000E6723ECD7000161A532
:1002F00004D061950401C80E03D061850401880E05
:100300000C6FF56E030EE15C02E2E16AE552DEEF8E
:1003100005F00401550E286F530E296F420E2A6F07
:10032000530E2B6F70C02CF471C02DF472C02EF4DC
:1003300073C02FF46AC030F46BC031F46CC012F09B
:100340006DC013F0106A116A100ED8901332123279
:1003500011321032E806F9E110C032F411C033F462
:10036000000162A705D062970401010E346F02D02C
:100370000401346B0D0E11EC06F061A504D06195FB
:100380000401C80E03D061850401880E0C6F1200B1
:10039000BAEC05F0240E0001686F696BEC0E646F17
:1003A0000C0E656F20EF06F0E5DB00016287628DC1
:1003B000686B696B20EF06F0DDDB0001100E646FE7
:1003C0000D0E656F666B676B080E686F696B20EFCB
:1003D00006F0D9CFE6FFE1CFD9FF150EE126030ED7
:1003E000DB6AD950040FE96EDACFEAFFEEEC05F0D4
:1003F000EEEC05F0EE6A700EF36E030EF3CFDBFF4A
:100400000A0EF36EDB6E000162AB08D0629B030E36
:10041000F36E050EF3CFDBFF100E0FD062AD06D0EA
:10042000629D050EF36EDB6E200E07D062AF0BD01F
:10043000629F050EF36EDB6E240EF36E0F0EF3CF8C
:10044000DBFF100EDB6A62856A6B6B6B6C6B6D6B2E
:1004500091DBBADBDF6A120EDF5C13E2D950030FC7
:10046000106EDF500F011024E96E000EDA20EA6EE4
:10047000EF5089DBDF2A010EDB2A020EECE3DB2AD8
:10048000EAD70401120ECDDB61A504D06195040109
:10049000C80E03D061850401880E0C6FF56E150E31
:1004A000E15C02E2E16AE55289D3D9CFE6FFE1CF10
:1004B000D9FF040EE126000163B139D02CC470F0DD
:1004C0002DC471F02EC472F02FC473F00001106AB5
:1004D000116A1050040130110001686F11500401BD
:1004E00031110001696F0001106A116A1050040196
:1004F000301100016A6F11500401311100016B6F5E
:1005000000016C6B6D6B04013C5100016E6F6F6BF1
:10051000090E0001D8906E376F37E806FBE1000E38
:1005200000016E27100E00016F23000163816EC071
:1005300010F06FC011F0126A136A68C018F069C039
:1005400019F01A6A1B6A185000016A5D146E19507E
:1005500000016B59156E1A5000016C59166E1B5034
:1005600000016D59176E14501026155011221650A7
:1005700012221750132210C0F6FF11C0F7FF12C04D
:10058000F8FF0001400E685D000E695903E268C083
:10059000DFFF02D0400EDF6EDF50106E116A105088
:1005A0000001685F11500001695B00016851691129
:1005B00009E1000163910001628500016A6B6B6BC8
:1005C0006C6B6D6BDFCF0DF40401280E0E6F040E03
:1005D0000F6FD950020FE96EDACFEAFF280EEE6EE8
:1005E000040EED6EDF50000815E20800020EDBCFAE
:1005F000E9FF030EDBCFEAFFF5CFEFFFDF06F62AB8
:10060000000EF722000EF822020EDB2A030E01E391
:10061000DB2AE8D7000161A506D00001619504013D
:10062000C80E0C6F05D0000161850401880E0C6FA7
:10063000F56E040EE15C02E2E16AE552E16EF5500E
:10064000E552E7CFD9FF1200D9CFE6FFE1CFD9FFBE
:10065000090EE126000163B3A6D02CC470F02DC4AE
:1006600071F02EC472F02FC473F00001106A116A89
:100670001050040130110001686F11500401311154
:100680000001696F0001106A116A105004013011F5
:1006900000016A6F11500401311100016B6F0001FC
:1006A0006C6B6D6B04013C5100016E6F6F6B090E3A
:1006B0000001D8906E376F37E806FBE1000E0001AD
:1006C0006E27100E00016F23000163836EC010F0CF
:1006D0006FC011F0126A136A68C018F069C019F08F
:1006E0001A6A1B6A185000016A5D146E19500001E5
:1006F0006B59156E1A5000016C59166E1B50000193
:100700006D59176E145010261550112216501222D2
:100710001750132210C0F6FF11C0F7FF12C0F8FFE8
:10072000400E106E116A68C006F069C007F010C074
:100730000BF011C00CF0A5EC06F00650DF6EDF5098
:10074000000811E2A68EA69CA684A688550EA76E68
:10075000AA0EA76EA682DF06400EF626000EF7222E
:10076000000EF822ECD70001400E685D000E6959BA
:1007700003E268C009F403D00401400E096F0401CC
:10078000280E0A6F040E0B6F000161A306D0000152
:1007900061930401C80E086F05D000016183040154
:1007A000880E086FF9D000016E5102E1600E6F19DA
:1007B00008E1F66A600EF76EF86A0800010EF5149B
:1007C000831200016E5102E1620E6F1908E1F66AB0
:1007D000620EF76EF86A0800020EF51483126EC0FE
:1007E00010F06FC011F0126A136A68C018F069C087
:1007F00019F01A6A1B6A185000016A5D146E1950CC
:1008000000016B59156E1A5000016C59166E1B5081
:1008100000016D59176E14501026155011221650F4
:1008200012221750132210C0F6FF11C0F7FF12C09A
:10083000F8FF050EF6CFDBFF060EF7CFDBFF040156
:100840000951106E116A10500001685F11500001CB
:10085000695B010EDB6A200E0401095D03E209C435
:10086000DFFF10D00401095120080AE2200EDF6EDC
:10087000200E0401095DE76E010EE7CFDBFF02D019
:10088000200EDF6E020EDB6ADF50000813E2020E5C
:10089000DB50EA6A280FE96E040EEA22EF50F56E8B
:1008A0000C00DF06020EDB2AF62A000EF722000EED
:1008B000F822EAD7070EF6CFDBFF080EF7CFDBFFF3
:1008C000050EDBCFF6FF060EDBCFF7FFF86AA68E2C
:1008D000A69CA684550EA76EAA0EA76EA682070E2A
:1008E000DBCFF6FF080EDBCFF7FFF86A010EDB5017
:1008F00027E0010EDB50000814E2020EDB50EA6A2A
:10090000280FE96E040EEA22EF50F56E0C00010E7E
:10091000DB06020EDB2AF62A000EF722000EF82272
:10092000E8D7070EDBCFF6FF080EDBCFF7FFF86A3C
:10093000A68EA69CA684550EA76EAA0EA76EA682AA
:1009400000016851691109E10001639300016A6BBC
:100950006B6B6C6B6D6BDDDC1FD00001400E685D56
:10096000000E695903E268C009F403D00401400E87
:10097000096F0401280E0A6F040E0B6F000161A3BA
:1009800006D0000161930401C80E086F05D0000174
:1009900061830401880E086FF56E090EE15C02E2C6
:1009A000E16AE552E16EF550E552E7CFD9FF12005A
:1009B000E1D8040E0001686F696BC9D80401030E09
:1009C000286F296B2A6B2B6B0001646B656B666B60
:1009D000676B21EF01F037D1CDD8E0D804013B514E
:1009E00003E000016287628F89EF01F02CD168502B
:1009F000010B2DE06950010B2AE00001030E606F2E
:100A0000686A290E696E6A6A6B6A6E6A716A726ACE
:100A1000736A746A756A766A776A786A796A7A6AD2
:100A20007B6A7C6A7D6A7E6A7F6A160E706E61815F
:100A300061936195626B636B686B696B68A602D0AA
:100A40006896FCD76D98B2D8046B880E006F68501A
:100A5000080B5EE06950080B5BE06C5004E16D9898
:100A600040EC00F054D0040E6C5C19E100016851B8
:100A7000691105E0E66A65EC00F0E55248D062A332
:100A800004D0629312C46EFF04D062A102D06291BE
:100A9000AED8000161818AD8880E006F38D0080E68
:100AA0006C5C08E1000163A302D0CEDD30D0F4EC31
:100AB00000F02DD00C0E6C5C2AE100016851691128
:100AC00006E06351010B03E121EC01F020D062A5A7
:100AD00003D062951EDC1BD062A906D06299040186
:100AE000840E0C6F086F13D063A102D0DEDC0FD030
:100AF00063B30DD004018ED8000161A304D06193CB
:100B00000401C80E03D061830401880E086F689643
:100B10006850200B08E06950200B05E047D8880E8C
:100B2000006F7090689A6850080B07E16850010BDD
:100B300004E16850200B01E1A19A12001200F66A4C
:100B4000F76AF86A16EC00F020EC00F0FFD7126AA2
:100B5000136A125004013011106E13503111116ECE
:100B600000016851105C6A6F695111586B6F6C6BB2
:100B70006D6B12002CC470F02DC471F02EC472F095
:100B80002FC473F01200E66E010EDBCFE9FF020EF8
:100B9000DBCFEAFFE552E750EF6E12000001686B11
:100BA000696B6A6B6B6B6C6B6D6B12000401100EE2
:100BB000016F100E026F040E036F1200E16EF5500C
:100BC000E552E7CFD9FF1200D950010FE96EDACF15
:100BD000EAFF280EEE6E040EED6E1200EE6AEE6A6B
:100BE000EE6AEE6AEE6AEE6AEE6AEE6A12000401DE
:100BF000056BC80E046F1200D9CFE6FFE1CFD9FF15
:100C0000030EE1261200DF50116AE850685F1150B0
:100C1000695B12001F0E096F280E0A6F040E0B6F1E
:100C200012000D6F280E0E6F040E0F6F00011200E0
:100C300064C0F6FF65C0F7FF0800F550C3EF05F08C
:0E0C400086DF21EF01F096DFA9DF89EF01F0DA
:020C4E002A0E6C
:100C5000F66E000EF76E000EF86E00010900F550FA
:100C6000796F0900F5507A6F03E1796701D03DD0C3
:100C70000900F550746F0900F550756F0900F550C3
:100C8000766F09000900F550E96E0900F550EA6E2B
:100C9000090009000900F550776F0900F550786FD9
:100CA00009000900F6CF7BF0F7CF7CF0F8CF7DF09C
:100CB00074C0F6FF75C0F7FF76C0F8FF00017753E8
:100CC00002E1785307E00900F550EE6E7707F8E28D
:100CD0007807F9D77BC0F6FF7CC0F7FF7DC0F8FF2F
:0C0CE00000017907000E7A5BBFD71200FC
:040CEC00008004027E
:100CF000200000004469646C657400004D5344009A
:100D000018181818181818181818181831003D3D18
:100D1000000000300000020012010002000000107C
:100D2000D8040400000000000001090220000101B5
:100D30000080320904000002080650000705810205
:0A0D4000400000070501024000001A
:060D4A00036A026A100EAC
:100D5000E76ED89006360736023603360B50025C33
:100D60000C50035805E30B50025E0C50035A062A40
:060D7000E72EF0D712008F
:0A0D760013EE00F023EE00F0F86A1F
:0E0D80000F9C27EC06F09FEC05F0FDD712004B
:00000001FF
