:020000001028C6
:10000800FE00030EF2000408F3000A08F40083124D
:1000180003137F08F5001128B9288C1E1428152809
:100028002328981C182819281C28181218161C2868
:100038008A20F1007108F7007708AB20232875089B
:1000480083120313FF0074088A0073088400720E79
:100058008300FE0E7E0E0900831603130611861414
:10006800813099001815181283120313981718165F
:100078009812831603130C128C1618138312031389
:100088001813831603139812981608008312031383
:10009800A10059282108840077209D20013083126F
:1000A8000313A0002008A1075928210884007720FD
:1000B8000038031D602861284E2862280800302077
:1000C80001304A208B170B17831603130510831270
:1000D800031305148316031306128312031306165B
:1000E80075287528102800308A000408840A8207B9
:1000F8000034483465346C346C346F3420345734ED
:100108006F3472346C346434213400348312031332
:100118000616981C902891289528181218169528C4
:1001280095288C1E98289928952806121A089C2824
:100138000800F600831203130514A2280C1EA52834
:10014800A628A228A7287608990005100800F0001C
:10015800831203130514B0280C1EB328B428B02842
:10016800B5287008990005100800F7018301632875
:02400E0022FF8F
:00000001FF
