:020000001028C6
:10000800FE00030EF2000408F3000A08F40083124D
:1000180003137F08F5001128B6288C1E142815280C
:1000280028280514981C19281A281C28181218168C
:10003800051086171A08F1007108F7007708AA203A
:1000480083120313861328287508FF0074088A0092
:1000580073088400720E8300FE0E7E0E090083165C
:10006800031306118614813099001815181283128B
:100078000313981718169812831603130C128C166C
:100088001813831203131813831603139812981660
:10009800080083120313A1005C282108840066204D
:1000A8009E20013083120313A0002008A1075C28BA
:1000B8002108840066200038031D6328642851281D
:1000C8006528080000308A000408840A8207003482
:1000D800483465346C346C346F34203457346F349E
:1000E80072346C34643421340034332001304D20B0
:1000F8008B170B178316031305108613831203132C
:100108000510861387288C209E208728872810288A
:1001180083120313981C91289228962818121816EF
:10012800962896288C1E99289A2896289B281A087B
:100138009D280800F600A028831203130C1EA5288A
:10014800A628A028A728760899000800F000AC285F
:10015800831203130C1EB128B228AC28B3287008E8
:0A01680099000800F70183017928CF
:02400E0022FF8F
:00000001FF
