:040000008A11112828
:10000800FE00030EF0000408F1000A08F200831253
:1000180003137F08F3008A118E2F8A11E22F8312AF
:1000280003136008B401B4075F08B301B3073B309A
:10003800C8009A30C700CA30C6000030C500D401D5
:10004800B501B6013608803AFF0080307F02031DF3
:100058002F280A303502031C3228332835281E2958
:100068001E29831203134808A3004708A200460864
:10007800A1004508A0003008A7002F08A6002E08F8
:10008800A5002D08A4008A1115258A1183120313CF
:100098002008B1003108D3004808A3004708A2008F
:1000A8004608A1004508A0003008A7002F08A600B0
:1000B8002E08A5002D08A4008A1157268A1183123C
:1000C80003132308B0002208AF002108AE0020085F
:1000D800AD00D308031D7128722877285408031D22
:1000E8007628B528772853088A159E278A11013063
:1000F80083120313B1003108D4070330A000003085
:10010800A1003509B1003609B200B10A0319B20AD3
:100118003108093EA20032080318013E003EA30040
:100128008A11EF258A118312031321082004031D65
:100138009E289F28EB280930350636040319A52880
:10014800A628EB283330A0000030A1008A11BD2773
:100158008A112C3083120313B1003108B300EB2845
:10016800EB280330A0000030A1003509B1003609A2
:10017800B200B10A0319B20A3108093EA2003208D6
:100188000318013E003EA3008A11EF258A1183124D
:10019800031321082004031DD228D328E12809309D
:1001A800350636040319D928DA28E1288530A00055
:1001B8008030A1008A11BD278A118530831203136C
:1001C800A0008030A1008A11BD278A11EB280030D9
:1001D80083120313A3000030A2000030A1000A30EC
:1001E800A0004808A7004708A6004608A50045083B
:1001F800A4008A1115258A11831203132308C80045
:100208002208C7002108C6002008C5000130B5072C
:100218000318B60A0030B6073608803AFF00803067
:100228007F02031D19290A303502031C1C291D29C8
:1002380035281E29831203135408013E84008A11AD
:1002480043228A11B1003108B3003330A0000030D6
:10025800A1008A11BD278A118B3083120313A000D5
:100268008030A1008A11BD278A1108008312031368
:100278004208D101D1074108D001D00700308A15C2
:1002880094278A11831203134C084B044A04490427
:1002980003194F2950295C294C08B0004B08AF00BE
:1002A8004A08AE004908AD008A1113208A11662950
:1002B800303083120313A0008030A1008A11BD27BB
:1002C8008A11662940308A1594278A1100308312D2
:1002D8000313C4000030C3000B30C200B830C100A3
:1002E800D20108305202031C7A297B297D29B929B9
:1002F800B92944084C02031D8B2943084B02031DEE
:100308008B2942084A02031D8B2941084902031818
:100318008E298F299129B929B9290030A3000030E5
:10032800A2000030A1000A30A0004408A70043083A
:10033800A6004208A5004108A4008A1104278A11D2
:10034800831203132308C4002208C3002108C20033
:100358002008C1000130B9003908D207083052021C
:10036800031CB729B8297D29B9297C30A000803021
:10037800A1008A11BD278A11523083120313B900D4
:100388003908BD005208B9003908BD073D08840086
:100398008A1143228A11A0008A1143228A11A100DE
:1003A8008A11BD278A11A93083120313A000803057
:1003B800A1008A11BD278A11873083120313A00078
:1003C8008030A1008A11BD278A11831203134D08BA
:1003D800AD004E08AE004F08AF00B0010A30B100C2
:1003E8000030B20055308A1195238A115530831296
:1003F8000313A0000030A1008A11BD278A1107301D
:1004080083120313B9003908E2006208183E840019
:100418008A1143228A11B900B90A6208713E840020
:100428008A1143228A11BA00BA0A0130BB0000308F
:10043800BC00212A0310BB0DBC0DBA0B1E2A272AAB
:100448000310BB0DBC0DB90B242A3B08CD003C089A
:10045800CE000030BC1BFF30CF008330A0008030BE
:10046800A1008A11BD278A110800FF1B432A8313A4
:100478007F1883170008840A0319FF0A080002304E
:100488008A000408840A8207003420342034203487
:1004980020344B344B344B344D344D344D34473485
:1004A80000340034003400340034003400340034A4
:1004B800003401340234033400340034003400348E
:1004C800003400340034003406340734083400346F
:1004D8000134023403340434053406340734023456
:1004E800023402340A3401342D342D342D343E3490
:1004F8004E346F34203469346E3470347534743447
:100508003C342D342D342D34003448347A3420349E
:1005180043346F3475346E34743465347234203433
:10052800763431342E34313468340034A034A33472
:100538009D34A63491349A34973494348E340034EC
:1005480000340034003400340034003451342D3485
:1005580042347934743465347334203457346F3406
:1005680072346C3464342E3400340134023403346D
:1005780004340534063407340834033403340334AC
:100588006D3457342F3464344234203400342034EA
:10059800203420340034203431342F3400344834AB
:1005A8007A3400343F343F34003420344834003443
:1005B80053344834003455344834003456344834BD
:1005C800003420344C34003445344C340034563430
:1005D8004C34003420344D34003446340034831213
:1005E80003134908A0004A08A1004B08A2004C08C0
:1005F800A30011300310A30CA20CA10CA00CFF3E09
:10060800031DFE2A2308CC002208CB002108CA00BB
:100618002008C9000030C4000030C3000030C20008
:100628000130C100E20108306202031C1C2B1D2BA3
:100638001F2B572B572B44084C02031D2D2B430807
:100648004B02031D2D2B42084A02031D2D2B410886
:1006580049020318302B312B332B572B572B4108CA
:10066800A0004208A1004308A2004408A3000130EA
:100678000310A00DA10DA20DA30DFF3E031D3C2BE1
:100688002308C4002208C3002108C2002008C100B2
:100698000130A0002008E20708306202031C552B35
:1006A800562B1F2B572B08306202031C5C2B5D2B2B
:1006B800622B0730A0002008E200622B6208183E77
:1006C80084008A1143228A11A000A00A6208713EA0
:1006D80084008A1143228A11A100A10A0130A200D4
:1006E8000030A3007A2B0310A20DA30DA10B772BCA
:1006F800802B0310A20DA30DA00B7D2B2208CD008B
:100708002308CE000030A31BFF30CF006208A000F2
:10071800A101A2012008F7002108F8002208F90029
:10072800080083120313B8003008B6002F08B5007C
:100738002E08B4002D08B300A12B3108A000320800
:10074800A1000030A11BFF30A200A3003608A700BB
:100758003508A6003408A5003308A4008A11152519
:100768008A11831203132308B6002208B500210852
:10077800B4002008B3000130F6007608B807360840
:10078800350434043304031DCA2BCB2BA12BCC2BEB
:1007980038088400831380010130B802D32B310854
:1007A800A0003208A1000030A11BFF30A200A30066
:1007B8003008A7002F08A6002E08A5002D08A400C1
:1007C8008A1157268A11831203132008F600760827
:1007D800B7003108A0003208A1000030A11BFF308B
:1007E800A200A3003008A7002F08A6002E08A50025
:1007F8002D08A4008A1115258A11831203132308D2
:10080800B0002208AF002108AE002008AD000A3071
:100818003702031C102C112C152C0730F600760813
:10082800B7073030F6007608B7073708F6003808FB
:1008380084007608831380000130B80230082F0442
:100848002E042D04031D292C2A2CD32B2B2C080015
:100858008A158A278A118A11B5268A118A15C72707
:100868008A11623083120313A0008030A1008A111C
:10087800BD278A1140308A1594278A114130831286
:100888000313A0008030A1008A11BD278A113330DC
:1008980083120313C000BC30BF001030BE00BE0B73
:1008A800532CBF0B532CC00B532C8A15B4278A1119
:1008B8005F2C5F2C5F2C831203135108803ABE0013
:1008C80080303E02031D6A2C61085002031C6D2C07
:1008D8006E2C5F2C6F2C8A1185258A112F3084008D
:1008E8008A1143228A1183120313BE0061083E064F
:1008F800031D7F2C802C8E2C8A11F3228A112E3016
:1009080084008A1143228A1183120313BE003E0811
:10091800E1009C2C8A113A218A112F3084008A1117
:1009280043228A1183120313BE003E08E1009C2C67
:100938008A15C7278A115F2C5F2C8A111128A030CD
:100948008B00A030831603138100831203136208FF
:10095800233E84008A1143228A11A00020088316AE
:10096800031381048312031362080D3E84008A1165
:1009780043228A110139031DC22CC62C831203138A
:100988000616C92C83120313061262080D3E840052
:100998008A1143228A110239031DD32CD72C8312C2
:1009A80003138616DA2C8312031386126208183E84
:1009B80084008A1143228A11A000A00A6208713EAD
:1009C80084008A1143228A11A100A10A0130A200E1
:1009D8000030A300F22C0310A20DA30DA10BEF2CE5
:1009E800F82C0310A20DA30DA00BF52C2208CD00A6
:1009F8002308CE000030A31BFF30CF008101003058
:100A0800C4000030C3000030C2000030C100003014
:100A1800CC000030CB000030CA000030C9008B1772
:100A28000800003083120313AB000030AA00003026
:100A3800A9000030A8002308220421042004031977
:100A4800262D272D7B2DAC010314AC0D392D01303B
:100A5800F4000310A00DA10DA20DA30DF40B2D2D74
:100A68000130F4007408AC07392DA31F3C2D3D2D2F
:100A78002B2D3F2D3F2D0130F4000310A80DA90D9B
:100A8800AA0DAB0DF40B412D23082702031D562D8B
:100A980022082602031D562D21082502031D562D66
:100AA80020082402031C592D5A2D6A2D2008A4025F
:100AB8002108031C210FA5022208031C220FA602ED
:100AC8002308031C230FA70228146A2D01300310E2
:100AD800A30CA20CA10CA00CFF3E031D6B2D013032
:100AE800AC02031D782D792D3F2D7B2D7B2D2B08F6
:100AF800A3002A08A2002908A1002808A000842D24
:100B080008008316031385018B120C10831203133C
:100B180005140108AC00AD01AE012C08A0002D0899
:100B2800A1002E08A2004D08A3004E08A4004F08FB
:100B3800A5008A1150278A11831203132008AF00D9
:100B48002108B0002208B100B2014D08B3004E08D8
:100B5800B4004F08B50008300310B30DB40DB50D3F
:100B6800FF3E031DB02D3308A0003408A10035084E
:100B7800A200A3014408A7004308A6004208A50054
:100B88004108A4008A1104278A118312031320083C
:100B9800AF0721080318210FD22DD32DB007220843
:100BA8000318220FD82DD92DB10723080318230ABB
:100BB800B2073208CC003108CB003008CA002F0831
:100BC800C9004130AD00EE30AC00AC0BE92DAD0BE7
:100BD800E92D64000800F60183120313A31FF52D05
:100BE800F62DFF2DA209A309A20A0319A30AF601EB
:100BF8000314F60DFF2DA11F022E032E092EA009A6
:100C0800A109A00A0319A10A092E21082004031921
:100C18000E2E0F2E452EF5010314F50D1F2E013053
:100C28000310A00DA10DFF3E031D142E0130F4008A
:100C38007408F5071F2EA11F222E232E132E252EF2
:100C4800252E21082302031D2B2E20082202031C17
:100C58002E2E2F2E362E2008A2022108031CA303B5
:100C6800A302362E01300310A10CA00CFF3E031D79
:100C7800372E0130F502031D422E432E252E452E18
:100C8800452E7608031D492E4F2EA209A309A20A54
:100C98000319A30A4F2E2308A101A1072208A001C6
:100CA800A007562E080083120313230822042104E8
:100CB80020040319602E612EAB2EF5010314F50DE7
:100CC800732E0130F4000310A00DA10DA20DA30D89
:100CD800F40B672E0130F4007408F507732EA31F78
:100CE800762E772E652E792E792E23082702031D5E
:100CF800872E22082602031D872E21082502031DA0
:100D0800872E20082402031C8A2E8B2E9A2E200858
:100D1800A4022108031C210FA5022208031C220F8C
:100D2800A6022308031C230FA7029A2E01300310E2
:100D3800A30CA20CA10CA00CFF3E031D9B2E01309E
:100D4800F502031DA82EA92E792EAB2EAB2E27084F
:100D5800A3002608A2002508A1002408A000B42E9C
:100D680008008312031386170430A400CF30A300B1
:100D78000330A200A20BBE2EA30BBE2EA40BBE2EC8
:100D8800C52E831203130608F0390338860085142C
:100D980085102130A3007630A200A20BD12EA30B20
:100DA800D12E64008312031385148510F930A20034
:100DB8006400A20BDC2EE02E64008312031385145A
:100DC8008510F930A2006400A20BE72EEB2E640018
:100DD800831203130608F03902388600851485103B
:100DE80028308A15DD278A110C308A15DD278A11EB
:100DF8008A15B4278A1106308A15DD278A1108005A
:100E0800003083120313AB000030AA000030A900A1
:100E18000030A8000F2F201C122F132F2B2F24086F
:100E2800A807250803110318013E03191C2FA90759
:100E3800260803110318013E0319232FAA072708C0
:100E480003110318013E03192A2FAB072B2F01307A
:100E5800F4000310A40DA50DA60DA70DF40B2D2F5E
:100E680001300310A30CA20CA10CA00CFF3E031D23
:100E7800352F2308220421042004031D442F452F65
:100E88000F2F462F2B08A3002A08A2002908A1002B
:100E98002808A0004F2F08000030F4000030F500AB
:100EA8000030F600572F83120313201C5C2F5D2F90
:100EB8006E2F2308F407240803110318240A0319C2
:100EC800662FF507250803110318250A03196D2F46
:100ED800F6076E2F01300310A30DA40DA50DFF3EDC
:100EE800031D6F2F01300310A20CA10CA00CFF3EB4
:100EF800031D772F220821042004031D842F852F2A
:100F0800572F862F7408A0007508A1007608A20044
:100F18008D2F08000B1D912F922FA22F0B1101303E
:100F2800C107003003180130C20700300318013030
:100F3800C307003003180130C407A22F0C1CA52FCB
:100F4800A62FB22F0B308F00DC308E000C10013032
:100F5800D0070318D10A0030D107B22F7308FF0059
:100F680072088A0071088400700E8300FE0E7E0EDF
:100F78000900831203138515D42F2108FF002008C8
:100F880084008A1139228A118A15DD278A110130D5
:100F980083120313A0070318A10A0030A107D42F56
:100FA8002108FF00200884008A1139228A1100389C
:100FB800031DDF2FE02FC12FE12F0800F701F801F3
:100FC800F9018313413084005F308A1582278A1122
:100FD8008A157E278A11DF008A157F278A11E0008B
:100FE8008A1580278A11E1008A1581278A11E20073
:060FF80083018A112C2C7C
:101EFC002E3400340134073464008001840A040653
:101F0C00031900340406832F0730831203139F0038
:101F1C001030831603138500860108008312031307
:101F2C00A00085112008803E8A15DD278A1508003F
:101F3C0083120313A00085152008303E8A15DD2777
:101F4C008A15080031308312031390000C100930ED
:101F5C008F00AC308E00C0308B000800831203134E
:101F6C00851101308A15DD278A150D308312031374
:101F7C00A100FB30A000A00BC12FA10BC12FC62FBD
:101F8C000800831203130510103083160313850009
:101F9C008A11A3248A158A15A8278A15831203137C
:101FAC00D001D101831603130C148B160800F60014
:101FBC004230F400F40BE02F6400F0308312031372
:101FCC000605F4007608F50004300310F50CFF3E0E
:101FDC00031DEB2F75080F397404860085148510CA
:101FEC00F0300605F40076080F3974048600851469
:041FFC008510080044
:02400E0022FF8F
:00000001FF
